{
	"Inheritance_2.sol": {
		"Child": {
			"abi": [
				{
					"inputs": [
						{
							"internalType": "uint256",
							"name": "c",
							"type": "uint256"
						}
					],
					"name": "child_setNum",
					"outputs": [],
					"stateMutability": "nonpayable",
					"type": "function"
				},
				{
					"inputs": [
						{
							"internalType": "uint256",
							"name": "a",
							"type": "uint256"
						}
					],
					"name": "setGrand_Father_uint",
					"outputs": [],
					"stateMutability": "nonpayable",
					"type": "function"
				},
				{
					"inputs": [
						{
							"internalType": "uint256",
							"name": "a",
							"type": "uint256"
						}
					],
					"name": "setMother_uint",
					"outputs": [],
					"stateMutability": "nonpayable",
					"type": "function"
				},
				{
					"inputs": [
						{
							"internalType": "uint256",
							"name": "a",
							"type": "uint256"
						}
					],
					"name": "setfather_uint",
					"outputs": [],
					"stateMutability": "nonpayable",
					"type": "function"
				},
				{
					"inputs": [],
					"name": "uint_G_Father",
					"outputs": [
						{
							"internalType": "uint256",
							"name": "",
							"type": "uint256"
						}
					],
					"stateMutability": "view",
					"type": "function"
				},
				{
					"inputs": [],
					"name": "uint_child",
					"outputs": [
						{
							"internalType": "uint256",
							"name": "",
							"type": "uint256"
						}
					],
					"stateMutability": "view",
					"type": "function"
				},
				{
					"inputs": [],
					"name": "uint_father",
					"outputs": [
						{
							"internalType": "uint256",
							"name": "",
							"type": "uint256"
						}
					],
					"stateMutability": "view",
					"type": "function"
				},
				{
					"inputs": [],
					"name": "uint_mother",
					"outputs": [
						{
							"internalType": "uint256",
							"name": "",
							"type": "uint256"
						}
					],
					"stateMutability": "view",
					"type": "function"
				}
			],
			"devdoc": {
				"kind": "dev",
				"methods": {},
				"version": 1
			},
			"evm": {
				"assembly": "    /* \"Inheritance_2.sol\":587:904  contract Child is Father,Mother {... */\n  mstore(0x40, 0x80)\n  callvalue\n  dup1\n  iszero\n  tag_1\n  jumpi\n  0x00\n  dup1\n  revert\ntag_1:\n  pop\n  dataSize(sub_0)\n  dup1\n  dataOffset(sub_0)\n  0x00\n  codecopy\n  0x00\n  return\nstop\n\nsub_0: assembly {\n        /* \"Inheritance_2.sol\":587:904  contract Child is Father,Mother {... */\n      mstore(0x40, 0x80)\n      callvalue\n      dup1\n      iszero\n      tag_1\n      jumpi\n      0x00\n      dup1\n      revert\n    tag_1:\n      pop\n      jumpi(tag_2, lt(calldatasize, 0x04))\n      shr(0xe0, calldataload(0x00))\n      dup1\n      0xcd9009e6\n      gt\n      tag_11\n      jumpi\n      dup1\n      0xcd9009e6\n      eq\n      tag_7\n      jumpi\n      dup1\n      0xd0b01121\n      eq\n      tag_8\n      jumpi\n      dup1\n      0xd514a671\n      eq\n      tag_9\n      jumpi\n      dup1\n      0xee3c476a\n      eq\n      tag_10\n      jumpi\n      jump(tag_2)\n    tag_11:\n      dup1\n      0x33bc9c49\n      eq\n      tag_3\n      jumpi\n      dup1\n      0x91dac9f0\n      eq\n      tag_4\n      jumpi\n      dup1\n      0xba9ee1c8\n      eq\n      tag_5\n      jumpi\n      dup1\n      0xca08bdcc\n      eq\n      tag_6\n      jumpi\n    tag_2:\n      0x00\n      dup1\n      revert\n        /* \"Inheritance_2.sol\":469:495  uint256 public uint_mother */\n    tag_3:\n      tag_12\n      tag_13\n      jump\t// in\n    tag_12:\n      mload(0x40)\n      tag_14\n      swap2\n      swap1\n      tag_15\n      jump\t// in\n    tag_14:\n      mload(0x40)\n      dup1\n      swap2\n      sub\n      swap1\n      return\n        /* \"Inheritance_2.sol\":160:246  function setGrand_Father_uint(uint256 a) external {... */\n    tag_4:\n      tag_16\n      0x04\n      dup1\n      calldatasize\n      sub\n      dup2\n      add\n      swap1\n      tag_17\n      swap2\n      swap1\n      tag_18\n      jump\t// in\n    tag_17:\n      tag_19\n      jump\t// in\n    tag_16:\n      stop\n        /* \"Inheritance_2.sol\":502:580  function setMother_uint(uint256 a) external {... */\n    tag_5:\n      tag_20\n      0x04\n      dup1\n      calldatasize\n      sub\n      dup2\n      add\n      swap1\n      tag_21\n      swap2\n      swap1\n      tag_18\n      jump\t// in\n    tag_21:\n      tag_22\n      jump\t// in\n    tag_20:\n      stop\n        /* \"Inheritance_2.sol\":347:425  function setfather_uint(uint256 a) external {... */\n    tag_6:\n      tag_23\n      0x04\n      dup1\n      calldatasize\n      sub\n      dup2\n      add\n      swap1\n      tag_24\n      swap2\n      swap1\n      tag_18\n      jump\t// in\n    tag_24:\n      tag_25\n      jump\t// in\n    tag_23:\n      stop\n        /* \"Inheritance_2.sol\":626:651  uint256 public uint_child */\n    tag_7:\n      tag_26\n      tag_27\n      jump\t// in\n    tag_26:\n      mload(0x40)\n      tag_28\n      swap2\n      swap1\n      tag_15\n      jump\t// in\n    tag_28:\n      mload(0x40)\n      dup1\n      swap2\n      sub\n      swap1\n      return\n        /* \"Inheritance_2.sol\":312:338  uint256 public uint_father */\n    tag_8:\n      tag_29\n      tag_30\n      jump\t// in\n    tag_29:\n      mload(0x40)\n      tag_31\n      swap2\n      swap1\n      tag_15\n      jump\t// in\n    tag_31:\n      mload(0x40)\n      dup1\n      swap2\n      sub\n      swap1\n      return\n        /* \"Inheritance_2.sol\":89:117  uint256 public uint_G_Father */\n    tag_9:\n      tag_32\n      tag_33\n      jump\t// in\n    tag_32:\n      mload(0x40)\n      tag_34\n      swap2\n      swap1\n      tag_15\n      jump\t// in\n    tag_34:\n      mload(0x40)\n      dup1\n      swap2\n      sub\n      swap1\n      return\n        /* \"Inheritance_2.sol\":660:901  function child_setNum(uint256 c) external {... */\n    tag_10:\n      tag_35\n      0x04\n      dup1\n      calldatasize\n      sub\n      dup2\n      add\n      swap1\n      tag_36\n      swap2\n      swap1\n      tag_18\n      jump\t// in\n    tag_36:\n      tag_37\n      jump\t// in\n    tag_35:\n      stop\n        /* \"Inheritance_2.sol\":469:495  uint256 public uint_mother */\n    tag_13:\n      sload(0x03)\n      dup2\n      jump\t// out\n        /* \"Inheritance_2.sol\":160:246  function setGrand_Father_uint(uint256 a) external {... */\n    tag_19:\n        /* \"Inheritance_2.sol\":237:238  a */\n      dup1\n        /* \"Inheritance_2.sol\":221:234  uint_G_Father */\n      0x00\n        /* \"Inheritance_2.sol\":221:238  uint_G_Father = a */\n      dup2\n      swap1\n      sstore\n      pop\n        /* \"Inheritance_2.sol\":160:246  function setGrand_Father_uint(uint256 a) external {... */\n      pop\n      jump\t// out\n        /* \"Inheritance_2.sol\":502:580  function setMother_uint(uint256 a) external {... */\n    tag_22:\n        /* \"Inheritance_2.sol\":571:572  a */\n      dup1\n        /* \"Inheritance_2.sol\":557:568  uint_mother */\n      0x03\n        /* \"Inheritance_2.sol\":557:572  uint_mother = a */\n      dup2\n      swap1\n      sstore\n      pop\n        /* \"Inheritance_2.sol\":502:580  function setMother_uint(uint256 a) external {... */\n      pop\n      jump\t// out\n        /* \"Inheritance_2.sol\":347:425  function setfather_uint(uint256 a) external {... */\n    tag_25:\n        /* \"Inheritance_2.sol\":416:417  a */\n      dup1\n        /* \"Inheritance_2.sol\":402:413  uint_father */\n      0x02\n        /* \"Inheritance_2.sol\":402:417  uint_father = a */\n      dup2\n      swap1\n      sstore\n      pop\n        /* \"Inheritance_2.sol\":347:425  function setfather_uint(uint256 a) external {... */\n      pop\n      jump\t// out\n        /* \"Inheritance_2.sol\":626:651  uint256 public uint_child */\n    tag_27:\n      sload(0x04)\n      dup2\n      jump\t// out\n        /* \"Inheritance_2.sol\":312:338  uint256 public uint_father */\n    tag_30:\n      sload(0x02)\n      dup2\n      jump\t// out\n        /* \"Inheritance_2.sol\":89:117  uint256 public uint_G_Father */\n    tag_33:\n      sload(0x00)\n      dup2\n      jump\t// out\n        /* \"Inheritance_2.sol\":660:901  function child_setNum(uint256 c) external {... */\n    tag_37:\n        /* \"Inheritance_2.sol\":772:773  c */\n      dup1\n        /* \"Inheritance_2.sol\":756:769  uint_G_Father */\n      0x00\n        /* \"Inheritance_2.sol\":756:773  uint_G_Father = c */\n      dup2\n      swap1\n      sstore\n      pop\n        /* \"Inheritance_2.sol\":798:799  c */\n      dup1\n        /* \"Inheritance_2.sol\":784:795  uint_father */\n      0x02\n        /* \"Inheritance_2.sol\":784:799  uint_father = c */\n      dup2\n      swap1\n      sstore\n      pop\n        /* \"Inheritance_2.sol\":824:825  c */\n      dup1\n        /* \"Inheritance_2.sol\":810:821  uint_mother */\n      0x03\n        /* \"Inheritance_2.sol\":810:825  uint_mother = c */\n      dup2\n      swap1\n      sstore\n      pop\n        /* \"Inheritance_2.sol\":892:893  c */\n      dup1\n        /* \"Inheritance_2.sol\":876:889  internal_uint */\n      0x01\n        /* \"Inheritance_2.sol\":876:893  internal_uint = c */\n      dup2\n      swap1\n      sstore\n      pop\n        /* \"Inheritance_2.sol\":660:901  function child_setNum(uint256 c) external {... */\n      pop\n      jump\t// out\n        /* \"#utility.yul\":7:84   */\n    tag_42:\n        /* \"#utility.yul\":44:51   */\n      0x00\n        /* \"#utility.yul\":73:78   */\n      dup2\n        /* \"#utility.yul\":62:78   */\n      swap1\n      pop\n        /* \"#utility.yul\":7:84   */\n      swap2\n      swap1\n      pop\n      jump\t// out\n        /* \"#utility.yul\":90:208   */\n    tag_43:\n        /* \"#utility.yul\":177:201   */\n      tag_52\n        /* \"#utility.yul\":195:200   */\n      dup2\n        /* \"#utility.yul\":177:201   */\n      tag_42\n      jump\t// in\n    tag_52:\n        /* \"#utility.yul\":172:175   */\n      dup3\n        /* \"#utility.yul\":165:202   */\n      mstore\n        /* \"#utility.yul\":90:208   */\n      pop\n      pop\n      jump\t// out\n        /* \"#utility.yul\":214:436   */\n    tag_15:\n        /* \"#utility.yul\":307:311   */\n      0x00\n        /* \"#utility.yul\":345:347   */\n      0x20\n        /* \"#utility.yul\":334:343   */\n      dup3\n        /* \"#utility.yul\":330:348   */\n      add\n        /* \"#utility.yul\":322:348   */\n      swap1\n      pop\n        /* \"#utility.yul\":358:429   */\n      tag_54\n        /* \"#utility.yul\":426:427   */\n      0x00\n        /* \"#utility.yul\":415:424   */\n      dup4\n        /* \"#utility.yul\":411:428   */\n      add\n        /* \"#utility.yul\":402:408   */\n      dup5\n        /* \"#utility.yul\":358:429   */\n      tag_43\n      jump\t// in\n    tag_54:\n        /* \"#utility.yul\":214:436   */\n      swap3\n      swap2\n      pop\n      pop\n      jump\t// out\n        /* \"#utility.yul\":523:640   */\n    tag_45:\n        /* \"#utility.yul\":632:633   */\n      0x00\n        /* \"#utility.yul\":629:630   */\n      dup1\n        /* \"#utility.yul\":622:634   */\n      revert\n        /* \"#utility.yul\":769:891   */\n    tag_47:\n        /* \"#utility.yul\":842:866   */\n      tag_59\n        /* \"#utility.yul\":860:865   */\n      dup2\n        /* \"#utility.yul\":842:866   */\n      tag_42\n      jump\t// in\n    tag_59:\n        /* \"#utility.yul\":835:840   */\n      dup2\n        /* \"#utility.yul\":832:867   */\n      eq\n        /* \"#utility.yul\":822:885   */\n      tag_60\n      jumpi\n        /* \"#utility.yul\":881:882   */\n      0x00\n        /* \"#utility.yul\":878:879   */\n      dup1\n        /* \"#utility.yul\":871:883   */\n      revert\n        /* \"#utility.yul\":822:885   */\n    tag_60:\n        /* \"#utility.yul\":769:891   */\n      pop\n      jump\t// out\n        /* \"#utility.yul\":897:1036   */\n    tag_48:\n        /* \"#utility.yul\":943:948   */\n      0x00\n        /* \"#utility.yul\":981:987   */\n      dup2\n        /* \"#utility.yul\":968:988   */\n      calldataload\n        /* \"#utility.yul\":959:988   */\n      swap1\n      pop\n        /* \"#utility.yul\":997:1030   */\n      tag_62\n        /* \"#utility.yul\":1024:1029   */\n      dup2\n        /* \"#utility.yul\":997:1030   */\n      tag_47\n      jump\t// in\n    tag_62:\n        /* \"#utility.yul\":897:1036   */\n      swap3\n      swap2\n      pop\n      pop\n      jump\t// out\n        /* \"#utility.yul\":1042:1371   */\n    tag_18:\n        /* \"#utility.yul\":1101:1107   */\n      0x00\n        /* \"#utility.yul\":1150:1152   */\n      0x20\n        /* \"#utility.yul\":1138:1147   */\n      dup3\n        /* \"#utility.yul\":1129:1136   */\n      dup5\n        /* \"#utility.yul\":1125:1148   */\n      sub\n        /* \"#utility.yul\":1121:1153   */\n      slt\n        /* \"#utility.yul\":1118:1237   */\n      iszero\n      tag_64\n      jumpi\n        /* \"#utility.yul\":1156:1235   */\n      tag_65\n      tag_45\n      jump\t// in\n    tag_65:\n        /* \"#utility.yul\":1118:1237   */\n    tag_64:\n        /* \"#utility.yul\":1276:1277   */\n      0x00\n        /* \"#utility.yul\":1301:1354   */\n      tag_66\n        /* \"#utility.yul\":1346:1353   */\n      dup5\n        /* \"#utility.yul\":1337:1343   */\n      dup3\n        /* \"#utility.yul\":1326:1335   */\n      dup6\n        /* \"#utility.yul\":1322:1344   */\n      add\n        /* \"#utility.yul\":1301:1354   */\n      tag_48\n      jump\t// in\n    tag_66:\n        /* \"#utility.yul\":1291:1354   */\n      swap2\n      pop\n        /* \"#utility.yul\":1247:1364   */\n      pop\n        /* \"#utility.yul\":1042:1371   */\n      swap3\n      swap2\n      pop\n      pop\n      jump\t// out\n\n    auxdata: 0xa264697066735822122072eb7402bfb9ac55273e771589490a047d2cddcb76013fd77823bfbaa9879e6e64736f6c63430008150033\n}\n",
				"bytecode": {
					"linkReferences": {},
					"object": "608060405234801561000f575f80fd5b506102848061001d5f395ff3fe608060405234801561000f575f80fd5b5060043610610086575f3560e01c8063cd9009e611610059578063cd9009e6146100fc578063d0b011211461011a578063d514a67114610138578063ee3c476a1461015657610086565b806333bc9c491461008a57806391dac9f0146100a8578063ba9ee1c8146100c4578063ca08bdcc146100e0575b5f80fd5b610092610172565b60405161009f91906101dc565b60405180910390f35b6100c260048036038101906100bd9190610223565b610178565b005b6100de60048036038101906100d99190610223565b610181565b005b6100fa60048036038101906100f59190610223565b61018b565b005b610104610195565b60405161011191906101dc565b60405180910390f35b61012261019b565b60405161012f91906101dc565b60405180910390f35b6101406101a1565b60405161014d91906101dc565b60405180910390f35b610170600480360381019061016b9190610223565b6101a6565b005b60035481565b805f8190555050565b8060038190555050565b8060028190555050565b60045481565b60025481565b5f5481565b805f8190555080600281905550806003819055508060018190555050565b5f819050919050565b6101d6816101c4565b82525050565b5f6020820190506101ef5f8301846101cd565b92915050565b5f80fd5b610202816101c4565b811461020c575f80fd5b50565b5f8135905061021d816101f9565b92915050565b5f60208284031215610238576102376101f5565b5b5f6102458482850161020f565b9150509291505056fea264697066735822122072eb7402bfb9ac55273e771589490a047d2cddcb76013fd77823bfbaa9879e6e64736f6c63430008150033",
					"opcodes": "PUSH1 0x80 PUSH1 0x40 MSTORE CALLVALUE DUP1 ISZERO PUSH2 0xF JUMPI PUSH0 DUP1 REVERT JUMPDEST POP PUSH2 0x284 DUP1 PUSH2 0x1D PUSH0 CODECOPY PUSH0 RETURN INVALID PUSH1 0x80 PUSH1 0x40 MSTORE CALLVALUE DUP1 ISZERO PUSH2 0xF JUMPI PUSH0 DUP1 REVERT JUMPDEST POP PUSH1 0x4 CALLDATASIZE LT PUSH2 0x86 JUMPI PUSH0 CALLDATALOAD PUSH1 0xE0 SHR DUP1 PUSH4 0xCD9009E6 GT PUSH2 0x59 JUMPI DUP1 PUSH4 0xCD9009E6 EQ PUSH2 0xFC JUMPI DUP1 PUSH4 0xD0B01121 EQ PUSH2 0x11A JUMPI DUP1 PUSH4 0xD514A671 EQ PUSH2 0x138 JUMPI DUP1 PUSH4 0xEE3C476A EQ PUSH2 0x156 JUMPI PUSH2 0x86 JUMP JUMPDEST DUP1 PUSH4 0x33BC9C49 EQ PUSH2 0x8A JUMPI DUP1 PUSH4 0x91DAC9F0 EQ PUSH2 0xA8 JUMPI DUP1 PUSH4 0xBA9EE1C8 EQ PUSH2 0xC4 JUMPI DUP1 PUSH4 0xCA08BDCC EQ PUSH2 0xE0 JUMPI JUMPDEST PUSH0 DUP1 REVERT JUMPDEST PUSH2 0x92 PUSH2 0x172 JUMP JUMPDEST PUSH1 0x40 MLOAD PUSH2 0x9F SWAP2 SWAP1 PUSH2 0x1DC JUMP JUMPDEST PUSH1 0x40 MLOAD DUP1 SWAP2 SUB SWAP1 RETURN JUMPDEST PUSH2 0xC2 PUSH1 0x4 DUP1 CALLDATASIZE SUB DUP2 ADD SWAP1 PUSH2 0xBD SWAP2 SWAP1 PUSH2 0x223 JUMP JUMPDEST PUSH2 0x178 JUMP JUMPDEST STOP JUMPDEST PUSH2 0xDE PUSH1 0x4 DUP1 CALLDATASIZE SUB DUP2 ADD SWAP1 PUSH2 0xD9 SWAP2 SWAP1 PUSH2 0x223 JUMP JUMPDEST PUSH2 0x181 JUMP JUMPDEST STOP JUMPDEST PUSH2 0xFA PUSH1 0x4 DUP1 CALLDATASIZE SUB DUP2 ADD SWAP1 PUSH2 0xF5 SWAP2 SWAP1 PUSH2 0x223 JUMP JUMPDEST PUSH2 0x18B JUMP JUMPDEST STOP JUMPDEST PUSH2 0x104 PUSH2 0x195 JUMP JUMPDEST PUSH1 0x40 MLOAD PUSH2 0x111 SWAP2 SWAP1 PUSH2 0x1DC JUMP JUMPDEST PUSH1 0x40 MLOAD DUP1 SWAP2 SUB SWAP1 RETURN JUMPDEST PUSH2 0x122 PUSH2 0x19B JUMP JUMPDEST PUSH1 0x40 MLOAD PUSH2 0x12F SWAP2 SWAP1 PUSH2 0x1DC JUMP JUMPDEST PUSH1 0x40 MLOAD DUP1 SWAP2 SUB SWAP1 RETURN JUMPDEST PUSH2 0x140 PUSH2 0x1A1 JUMP JUMPDEST PUSH1 0x40 MLOAD PUSH2 0x14D SWAP2 SWAP1 PUSH2 0x1DC JUMP JUMPDEST PUSH1 0x40 MLOAD DUP1 SWAP2 SUB SWAP1 RETURN JUMPDEST PUSH2 0x170 PUSH1 0x4 DUP1 CALLDATASIZE SUB DUP2 ADD SWAP1 PUSH2 0x16B SWAP2 SWAP1 PUSH2 0x223 JUMP JUMPDEST PUSH2 0x1A6 JUMP JUMPDEST STOP JUMPDEST PUSH1 0x3 SLOAD DUP2 JUMP JUMPDEST DUP1 PUSH0 DUP2 SWAP1 SSTORE POP POP JUMP JUMPDEST DUP1 PUSH1 0x3 DUP2 SWAP1 SSTORE POP POP JUMP JUMPDEST DUP1 PUSH1 0x2 DUP2 SWAP1 SSTORE POP POP JUMP JUMPDEST PUSH1 0x4 SLOAD DUP2 JUMP JUMPDEST PUSH1 0x2 SLOAD DUP2 JUMP JUMPDEST PUSH0 SLOAD DUP2 JUMP JUMPDEST DUP1 PUSH0 DUP2 SWAP1 SSTORE POP DUP1 PUSH1 0x2 DUP2 SWAP1 SSTORE POP DUP1 PUSH1 0x3 DUP2 SWAP1 SSTORE POP DUP1 PUSH1 0x1 DUP2 SWAP1 SSTORE POP POP JUMP JUMPDEST PUSH0 DUP2 SWAP1 POP SWAP2 SWAP1 POP JUMP JUMPDEST PUSH2 0x1D6 DUP2 PUSH2 0x1C4 JUMP JUMPDEST DUP3 MSTORE POP POP JUMP JUMPDEST PUSH0 PUSH1 0x20 DUP3 ADD SWAP1 POP PUSH2 0x1EF PUSH0 DUP4 ADD DUP5 PUSH2 0x1CD JUMP JUMPDEST SWAP3 SWAP2 POP POP JUMP JUMPDEST PUSH0 DUP1 REVERT JUMPDEST PUSH2 0x202 DUP2 PUSH2 0x1C4 JUMP JUMPDEST DUP2 EQ PUSH2 0x20C JUMPI PUSH0 DUP1 REVERT JUMPDEST POP JUMP JUMPDEST PUSH0 DUP2 CALLDATALOAD SWAP1 POP PUSH2 0x21D DUP2 PUSH2 0x1F9 JUMP JUMPDEST SWAP3 SWAP2 POP POP JUMP JUMPDEST PUSH0 PUSH1 0x20 DUP3 DUP5 SUB SLT ISZERO PUSH2 0x238 JUMPI PUSH2 0x237 PUSH2 0x1F5 JUMP JUMPDEST JUMPDEST PUSH0 PUSH2 0x245 DUP5 DUP3 DUP6 ADD PUSH2 0x20F JUMP JUMPDEST SWAP2 POP POP SWAP3 SWAP2 POP POP JUMP INVALID LOG2 PUSH5 0x6970667358 0x22 SLT KECCAK256 PUSH19 0xEB7402BFB9AC55273E771589490A047D2CDDCB PUSH23 0x13FD77823BFBAA9879E6E64736F6C6343000815003300 "
				},
				"gasEstimates": {
					"creation": {
						"codeDepositCost": "128800",
						"executionCost": "175",
						"totalCost": "128975"
					},
					"external": {
						"child_setNum(uint256)": "88922",
						"setGrand_Father_uint(uint256)": "22537",
						"setMother_uint(uint256)": "22560",
						"setfather_uint(uint256)": "22582",
						"uint_G_Father()": "2468",
						"uint_child()": "2425",
						"uint_father()": "2447",
						"uint_mother()": "2426"
					}
				},
				"methodIdentifiers": {
					"child_setNum(uint256)": "ee3c476a",
					"setGrand_Father_uint(uint256)": "91dac9f0",
					"setMother_uint(uint256)": "ba9ee1c8",
					"setfather_uint(uint256)": "ca08bdcc",
					"uint_G_Father()": "d514a671",
					"uint_child()": "cd9009e6",
					"uint_father()": "d0b01121",
					"uint_mother()": "33bc9c49"
				}
			},
			"storageLayout": {
				"storage": [
					{
						"astId": 3,
						"contract": "Inheritance_2.sol:Child",
						"label": "uint_G_Father",
						"offset": 0,
						"slot": "0",
						"type": "t_uint256"
					},
					{
						"astId": 5,
						"contract": "Inheritance_2.sol:Child",
						"label": "internal_uint",
						"offset": 0,
						"slot": "1",
						"type": "t_uint256"
					},
					{
						"astId": 20,
						"contract": "Inheritance_2.sol:Child",
						"label": "uint_father",
						"offset": 0,
						"slot": "2",
						"type": "t_uint256"
					},
					{
						"astId": 35,
						"contract": "Inheritance_2.sol:Child",
						"label": "uint_mother",
						"offset": 0,
						"slot": "3",
						"type": "t_uint256"
					},
					{
						"astId": 52,
						"contract": "Inheritance_2.sol:Child",
						"label": "uint_child",
						"offset": 0,
						"slot": "4",
						"type": "t_uint256"
					}
				],
				"types": {
					"t_uint256": {
						"encoding": "inplace",
						"label": "uint256",
						"numberOfBytes": "32"
					}
				}
			},
			"userdoc": {
				"kind": "user",
				"methods": {},
				"version": 1
			}
		}
	}
}