{
	"Inheritance_2.sol": {
		"GrandFather": {
			"abi": [
				{
					"inputs": [
						{
							"internalType": "uint256",
							"name": "a",
							"type": "uint256"
						}
					],
					"name": "setGrand_Father_uint",
					"outputs": [],
					"stateMutability": "nonpayable",
					"type": "function"
				},
				{
					"inputs": [],
					"name": "uint_G_Father",
					"outputs": [
						{
							"internalType": "uint256",
							"name": "",
							"type": "uint256"
						}
					],
					"stateMutability": "view",
					"type": "function"
				}
			],
			"devdoc": {
				"kind": "dev",
				"methods": {},
				"version": 1
			},
			"evm": {
				"assembly": "    /* \"Inheritance_2.sol\":61:249  contract GrandFather {... */\n  mstore(0x40, 0x80)\n  callvalue\n  dup1\n  iszero\n  tag_1\n  jumpi\n  0x00\n  dup1\n  revert\ntag_1:\n  pop\n  dataSize(sub_0)\n  dup1\n  dataOffset(sub_0)\n  0x00\n  codecopy\n  0x00\n  return\nstop\n\nsub_0: assembly {\n        /* \"Inheritance_2.sol\":61:249  contract GrandFather {... */\n      mstore(0x40, 0x80)\n      callvalue\n      dup1\n      iszero\n      tag_1\n      jumpi\n      0x00\n      dup1\n      revert\n    tag_1:\n      pop\n      jumpi(tag_2, lt(calldatasize, 0x04))\n      shr(0xe0, calldataload(0x00))\n      dup1\n      0x91dac9f0\n      eq\n      tag_3\n      jumpi\n      dup1\n      0xd514a671\n      eq\n      tag_4\n      jumpi\n    tag_2:\n      0x00\n      dup1\n      revert\n        /* \"Inheritance_2.sol\":160:246  function setGrand_Father_uint(uint256 a) external {... */\n    tag_3:\n      tag_5\n      0x04\n      dup1\n      calldatasize\n      sub\n      dup2\n      add\n      swap1\n      tag_6\n      swap2\n      swap1\n      tag_7\n      jump\t// in\n    tag_6:\n      tag_8\n      jump\t// in\n    tag_5:\n      stop\n        /* \"Inheritance_2.sol\":89:117  uint256 public uint_G_Father */\n    tag_4:\n      tag_9\n      tag_10\n      jump\t// in\n    tag_9:\n      mload(0x40)\n      tag_11\n      swap2\n      swap1\n      tag_12\n      jump\t// in\n    tag_11:\n      mload(0x40)\n      dup1\n      swap2\n      sub\n      swap1\n      return\n        /* \"Inheritance_2.sol\":160:246  function setGrand_Father_uint(uint256 a) external {... */\n    tag_8:\n        /* \"Inheritance_2.sol\":237:238  a */\n      dup1\n        /* \"Inheritance_2.sol\":221:234  uint_G_Father */\n      0x00\n        /* \"Inheritance_2.sol\":221:238  uint_G_Father = a */\n      dup2\n      swap1\n      sstore\n      pop\n        /* \"Inheritance_2.sol\":160:246  function setGrand_Father_uint(uint256 a) external {... */\n      pop\n      jump\t// out\n        /* \"Inheritance_2.sol\":89:117  uint256 public uint_G_Father */\n    tag_10:\n      sload(0x00)\n      dup2\n      jump\t// out\n        /* \"#utility.yul\":88:205   */\n    tag_15:\n        /* \"#utility.yul\":197:198   */\n      0x00\n        /* \"#utility.yul\":194:195   */\n      dup1\n        /* \"#utility.yul\":187:199   */\n      revert\n        /* \"#utility.yul\":334:411   */\n    tag_17:\n        /* \"#utility.yul\":371:378   */\n      0x00\n        /* \"#utility.yul\":400:405   */\n      dup2\n        /* \"#utility.yul\":389:405   */\n      swap1\n      pop\n        /* \"#utility.yul\":334:411   */\n      swap2\n      swap1\n      pop\n      jump\t// out\n        /* \"#utility.yul\":417:539   */\n    tag_18:\n        /* \"#utility.yul\":490:514   */\n      tag_27\n        /* \"#utility.yul\":508:513   */\n      dup2\n        /* \"#utility.yul\":490:514   */\n      tag_17\n      jump\t// in\n    tag_27:\n        /* \"#utility.yul\":483:488   */\n      dup2\n        /* \"#utility.yul\":480:515   */\n      eq\n        /* \"#utility.yul\":470:533   */\n      tag_28\n      jumpi\n        /* \"#utility.yul\":529:530   */\n      0x00\n        /* \"#utility.yul\":526:527   */\n      dup1\n        /* \"#utility.yul\":519:531   */\n      revert\n        /* \"#utility.yul\":470:533   */\n    tag_28:\n        /* \"#utility.yul\":417:539   */\n      pop\n      jump\t// out\n        /* \"#utility.yul\":545:684   */\n    tag_19:\n        /* \"#utility.yul\":591:596   */\n      0x00\n        /* \"#utility.yul\":629:635   */\n      dup2\n        /* \"#utility.yul\":616:636   */\n      calldataload\n        /* \"#utility.yul\":607:636   */\n      swap1\n      pop\n        /* \"#utility.yul\":645:678   */\n      tag_30\n        /* \"#utility.yul\":672:677   */\n      dup2\n        /* \"#utility.yul\":645:678   */\n      tag_18\n      jump\t// in\n    tag_30:\n        /* \"#utility.yul\":545:684   */\n      swap3\n      swap2\n      pop\n      pop\n      jump\t// out\n        /* \"#utility.yul\":690:1019   */\n    tag_7:\n        /* \"#utility.yul\":749:755   */\n      0x00\n        /* \"#utility.yul\":798:800   */\n      0x20\n        /* \"#utility.yul\":786:795   */\n      dup3\n        /* \"#utility.yul\":777:784   */\n      dup5\n        /* \"#utility.yul\":773:796   */\n      sub\n        /* \"#utility.yul\":769:801   */\n      slt\n        /* \"#utility.yul\":766:885   */\n      iszero\n      tag_32\n      jumpi\n        /* \"#utility.yul\":804:883   */\n      tag_33\n      tag_15\n      jump\t// in\n    tag_33:\n        /* \"#utility.yul\":766:885   */\n    tag_32:\n        /* \"#utility.yul\":924:925   */\n      0x00\n        /* \"#utility.yul\":949:1002   */\n      tag_34\n        /* \"#utility.yul\":994:1001   */\n      dup5\n        /* \"#utility.yul\":985:991   */\n      dup3\n        /* \"#utility.yul\":974:983   */\n      dup6\n        /* \"#utility.yul\":970:992   */\n      add\n        /* \"#utility.yul\":949:1002   */\n      tag_19\n      jump\t// in\n    tag_34:\n        /* \"#utility.yul\":939:1002   */\n      swap2\n      pop\n        /* \"#utility.yul\":895:1012   */\n      pop\n        /* \"#utility.yul\":690:1019   */\n      swap3\n      swap2\n      pop\n      pop\n      jump\t// out\n        /* \"#utility.yul\":1025:1143   */\n    tag_20:\n        /* \"#utility.yul\":1112:1136   */\n      tag_36\n        /* \"#utility.yul\":1130:1135   */\n      dup2\n        /* \"#utility.yul\":1112:1136   */\n      tag_17\n      jump\t// in\n    tag_36:\n        /* \"#utility.yul\":1107:1110   */\n      dup3\n        /* \"#utility.yul\":1100:1137   */\n      mstore\n        /* \"#utility.yul\":1025:1143   */\n      pop\n      pop\n      jump\t// out\n        /* \"#utility.yul\":1149:1371   */\n    tag_12:\n        /* \"#utility.yul\":1242:1246   */\n      0x00\n        /* \"#utility.yul\":1280:1282   */\n      0x20\n        /* \"#utility.yul\":1269:1278   */\n      dup3\n        /* \"#utility.yul\":1265:1283   */\n      add\n        /* \"#utility.yul\":1257:1283   */\n      swap1\n      pop\n        /* \"#utility.yul\":1293:1364   */\n      tag_38\n        /* \"#utility.yul\":1361:1362   */\n      0x00\n        /* \"#utility.yul\":1350:1359   */\n      dup4\n        /* \"#utility.yul\":1346:1363   */\n      add\n        /* \"#utility.yul\":1337:1343   */\n      dup5\n        /* \"#utility.yul\":1293:1364   */\n      tag_20\n      jump\t// in\n    tag_38:\n        /* \"#utility.yul\":1149:1371   */\n      swap3\n      swap2\n      pop\n      pop\n      jump\t// out\n\n    auxdata: 0xa264697066735822122037f6acdc358cc21bf7232a8c83f5e6f09e15444c2bf17ac6961611c6a9be63f264736f6c63430008150033\n}\n",
				"bytecode": {
					"linkReferences": {},
					"object": "608060405234801561000f575f80fd5b506101268061001d5f395ff3fe6080604052348015600e575f80fd5b50600436106030575f3560e01c806391dac9f0146034578063d514a67114604c575b5f80fd5b604a60048036038101906046919060a6565b6066565b005b6052606f565b604051605d919060d9565b60405180910390f35b805f8190555050565b5f5481565b5f80fd5b5f819050919050565b6088816078565b81146091575f80fd5b50565b5f8135905060a0816081565b92915050565b5f6020828403121560b85760b76074565b5b5f60c3848285016094565b91505092915050565b60d3816078565b82525050565b5f60208201905060ea5f83018460cc565b9291505056fea264697066735822122037f6acdc358cc21bf7232a8c83f5e6f09e15444c2bf17ac6961611c6a9be63f264736f6c63430008150033",
					"opcodes": "PUSH1 0x80 PUSH1 0x40 MSTORE CALLVALUE DUP1 ISZERO PUSH2 0xF JUMPI PUSH0 DUP1 REVERT JUMPDEST POP PUSH2 0x126 DUP1 PUSH2 0x1D PUSH0 CODECOPY PUSH0 RETURN INVALID PUSH1 0x80 PUSH1 0x40 MSTORE CALLVALUE DUP1 ISZERO PUSH1 0xE JUMPI PUSH0 DUP1 REVERT JUMPDEST POP PUSH1 0x4 CALLDATASIZE LT PUSH1 0x30 JUMPI PUSH0 CALLDATALOAD PUSH1 0xE0 SHR DUP1 PUSH4 0x91DAC9F0 EQ PUSH1 0x34 JUMPI DUP1 PUSH4 0xD514A671 EQ PUSH1 0x4C JUMPI JUMPDEST PUSH0 DUP1 REVERT JUMPDEST PUSH1 0x4A PUSH1 0x4 DUP1 CALLDATASIZE SUB DUP2 ADD SWAP1 PUSH1 0x46 SWAP2 SWAP1 PUSH1 0xA6 JUMP JUMPDEST PUSH1 0x66 JUMP JUMPDEST STOP JUMPDEST PUSH1 0x52 PUSH1 0x6F JUMP JUMPDEST PUSH1 0x40 MLOAD PUSH1 0x5D SWAP2 SWAP1 PUSH1 0xD9 JUMP JUMPDEST PUSH1 0x40 MLOAD DUP1 SWAP2 SUB SWAP1 RETURN JUMPDEST DUP1 PUSH0 DUP2 SWAP1 SSTORE POP POP JUMP JUMPDEST PUSH0 SLOAD DUP2 JUMP JUMPDEST PUSH0 DUP1 REVERT JUMPDEST PUSH0 DUP2 SWAP1 POP SWAP2 SWAP1 POP JUMP JUMPDEST PUSH1 0x88 DUP2 PUSH1 0x78 JUMP JUMPDEST DUP2 EQ PUSH1 0x91 JUMPI PUSH0 DUP1 REVERT JUMPDEST POP JUMP JUMPDEST PUSH0 DUP2 CALLDATALOAD SWAP1 POP PUSH1 0xA0 DUP2 PUSH1 0x81 JUMP JUMPDEST SWAP3 SWAP2 POP POP JUMP JUMPDEST PUSH0 PUSH1 0x20 DUP3 DUP5 SUB SLT ISZERO PUSH1 0xB8 JUMPI PUSH1 0xB7 PUSH1 0x74 JUMP JUMPDEST JUMPDEST PUSH0 PUSH1 0xC3 DUP5 DUP3 DUP6 ADD PUSH1 0x94 JUMP JUMPDEST SWAP2 POP POP SWAP3 SWAP2 POP POP JUMP JUMPDEST PUSH1 0xD3 DUP2 PUSH1 0x78 JUMP JUMPDEST DUP3 MSTORE POP POP JUMP JUMPDEST PUSH0 PUSH1 0x20 DUP3 ADD SWAP1 POP PUSH1 0xEA PUSH0 DUP4 ADD DUP5 PUSH1 0xCC JUMP JUMPDEST SWAP3 SWAP2 POP POP JUMP INVALID LOG2 PUSH5 0x6970667358 0x22 SLT KECCAK256 CALLDATACOPY 0xF6 0xAC 0xDC CALLDATALOAD DUP13 0xC2 SHL 0xF7 0x23 0x2A DUP13 DUP4 CREATE2 0xE6 CREATE SWAP15 ISZERO PREVRANDAO 0x4C 0x2B CALL PUSH27 0xC6961611C6A9BE63F264736F6C6343000815003300000000000000 "
				},
				"gasEstimates": {
					"creation": {
						"codeDepositCost": "58800",
						"executionCost": "109",
						"totalCost": "58909"
					},
					"external": {
						"setGrand_Father_uint(uint256)": "22492",
						"uint_G_Father()": "2424"
					}
				},
				"methodIdentifiers": {
					"setGrand_Father_uint(uint256)": "91dac9f0",
					"uint_G_Father()": "d514a671"
				}
			},
			"storageLayout": {
				"storage": [
					{
						"astId": 3,
						"contract": "Inheritance_2.sol:GrandFather",
						"label": "uint_G_Father",
						"offset": 0,
						"slot": "0",
						"type": "t_uint256"
					},
					{
						"astId": 5,
						"contract": "Inheritance_2.sol:GrandFather",
						"label": "internal_uint",
						"offset": 0,
						"slot": "1",
						"type": "t_uint256"
					}
				],
				"types": {
					"t_uint256": {
						"encoding": "inplace",
						"label": "uint256",
						"numberOfBytes": "32"
					}
				}
			},
			"userdoc": {
				"kind": "user",
				"methods": {},
				"version": 1
			}
		}
	}
}