{
	"Inheritance_2.sol": {
		"Father": {
			"abi": [
				{
					"inputs": [
						{
							"internalType": "uint256",
							"name": "a",
							"type": "uint256"
						}
					],
					"name": "setGrand_Father_uint",
					"outputs": [],
					"stateMutability": "nonpayable",
					"type": "function"
				},
				{
					"inputs": [
						{
							"internalType": "uint256",
							"name": "a",
							"type": "uint256"
						}
					],
					"name": "setfather_uint",
					"outputs": [],
					"stateMutability": "nonpayable",
					"type": "function"
				},
				{
					"inputs": [],
					"name": "uint_G_Father",
					"outputs": [
						{
							"internalType": "uint256",
							"name": "",
							"type": "uint256"
						}
					],
					"stateMutability": "view",
					"type": "function"
				},
				{
					"inputs": [],
					"name": "uint_father",
					"outputs": [
						{
							"internalType": "uint256",
							"name": "",
							"type": "uint256"
						}
					],
					"stateMutability": "view",
					"type": "function"
				}
			],
			"devdoc": {
				"kind": "dev",
				"methods": {},
				"version": 1
			},
			"evm": {
				"assembly": "    /* \"Inheritance_2.sol\":275:428  contract Father is GrandFather{... */\n  mstore(0x40, 0x80)\n  callvalue\n  dup1\n  iszero\n  tag_1\n  jumpi\n  0x00\n  dup1\n  revert\ntag_1:\n  pop\n  dataSize(sub_0)\n  dup1\n  dataOffset(sub_0)\n  0x00\n  codecopy\n  0x00\n  return\nstop\n\nsub_0: assembly {\n        /* \"Inheritance_2.sol\":275:428  contract Father is GrandFather{... */\n      mstore(0x40, 0x80)\n      callvalue\n      dup1\n      iszero\n      tag_1\n      jumpi\n      0x00\n      dup1\n      revert\n    tag_1:\n      pop\n      jumpi(tag_2, lt(calldatasize, 0x04))\n      shr(0xe0, calldataload(0x00))\n      dup1\n      0x91dac9f0\n      eq\n      tag_3\n      jumpi\n      dup1\n      0xca08bdcc\n      eq\n      tag_4\n      jumpi\n      dup1\n      0xd0b01121\n      eq\n      tag_5\n      jumpi\n      dup1\n      0xd514a671\n      eq\n      tag_6\n      jumpi\n    tag_2:\n      0x00\n      dup1\n      revert\n        /* \"Inheritance_2.sol\":160:246  function setGrand_Father_uint(uint256 a) external {... */\n    tag_3:\n      tag_7\n      0x04\n      dup1\n      calldatasize\n      sub\n      dup2\n      add\n      swap1\n      tag_8\n      swap2\n      swap1\n      tag_9\n      jump\t// in\n    tag_8:\n      tag_10\n      jump\t// in\n    tag_7:\n      stop\n        /* \"Inheritance_2.sol\":347:425  function setfather_uint(uint256 a) external {... */\n    tag_4:\n      tag_11\n      0x04\n      dup1\n      calldatasize\n      sub\n      dup2\n      add\n      swap1\n      tag_12\n      swap2\n      swap1\n      tag_9\n      jump\t// in\n    tag_12:\n      tag_13\n      jump\t// in\n    tag_11:\n      stop\n        /* \"Inheritance_2.sol\":312:338  uint256 public uint_father */\n    tag_5:\n      tag_14\n      tag_15\n      jump\t// in\n    tag_14:\n      mload(0x40)\n      tag_16\n      swap2\n      swap1\n      tag_17\n      jump\t// in\n    tag_16:\n      mload(0x40)\n      dup1\n      swap2\n      sub\n      swap1\n      return\n        /* \"Inheritance_2.sol\":89:117  uint256 public uint_G_Father */\n    tag_6:\n      tag_18\n      tag_19\n      jump\t// in\n    tag_18:\n      mload(0x40)\n      tag_20\n      swap2\n      swap1\n      tag_17\n      jump\t// in\n    tag_20:\n      mload(0x40)\n      dup1\n      swap2\n      sub\n      swap1\n      return\n        /* \"Inheritance_2.sol\":160:246  function setGrand_Father_uint(uint256 a) external {... */\n    tag_10:\n        /* \"Inheritance_2.sol\":237:238  a */\n      dup1\n        /* \"Inheritance_2.sol\":221:234  uint_G_Father */\n      0x00\n        /* \"Inheritance_2.sol\":221:238  uint_G_Father = a */\n      dup2\n      swap1\n      sstore\n      pop\n        /* \"Inheritance_2.sol\":160:246  function setGrand_Father_uint(uint256 a) external {... */\n      pop\n      jump\t// out\n        /* \"Inheritance_2.sol\":347:425  function setfather_uint(uint256 a) external {... */\n    tag_13:\n        /* \"Inheritance_2.sol\":416:417  a */\n      dup1\n        /* \"Inheritance_2.sol\":402:413  uint_father */\n      0x02\n        /* \"Inheritance_2.sol\":402:417  uint_father = a */\n      dup2\n      swap1\n      sstore\n      pop\n        /* \"Inheritance_2.sol\":347:425  function setfather_uint(uint256 a) external {... */\n      pop\n      jump\t// out\n        /* \"Inheritance_2.sol\":312:338  uint256 public uint_father */\n    tag_15:\n      sload(0x02)\n      dup2\n      jump\t// out\n        /* \"Inheritance_2.sol\":89:117  uint256 public uint_G_Father */\n    tag_19:\n      sload(0x00)\n      dup2\n      jump\t// out\n        /* \"#utility.yul\":88:205   */\n    tag_24:\n        /* \"#utility.yul\":197:198   */\n      0x00\n        /* \"#utility.yul\":194:195   */\n      dup1\n        /* \"#utility.yul\":187:199   */\n      revert\n        /* \"#utility.yul\":334:411   */\n    tag_26:\n        /* \"#utility.yul\":371:378   */\n      0x00\n        /* \"#utility.yul\":400:405   */\n      dup2\n        /* \"#utility.yul\":389:405   */\n      swap1\n      pop\n        /* \"#utility.yul\":334:411   */\n      swap2\n      swap1\n      pop\n      jump\t// out\n        /* \"#utility.yul\":417:539   */\n    tag_27:\n        /* \"#utility.yul\":490:514   */\n      tag_36\n        /* \"#utility.yul\":508:513   */\n      dup2\n        /* \"#utility.yul\":490:514   */\n      tag_26\n      jump\t// in\n    tag_36:\n        /* \"#utility.yul\":483:488   */\n      dup2\n        /* \"#utility.yul\":480:515   */\n      eq\n        /* \"#utility.yul\":470:533   */\n      tag_37\n      jumpi\n        /* \"#utility.yul\":529:530   */\n      0x00\n        /* \"#utility.yul\":526:527   */\n      dup1\n        /* \"#utility.yul\":519:531   */\n      revert\n        /* \"#utility.yul\":470:533   */\n    tag_37:\n        /* \"#utility.yul\":417:539   */\n      pop\n      jump\t// out\n        /* \"#utility.yul\":545:684   */\n    tag_28:\n        /* \"#utility.yul\":591:596   */\n      0x00\n        /* \"#utility.yul\":629:635   */\n      dup2\n        /* \"#utility.yul\":616:636   */\n      calldataload\n        /* \"#utility.yul\":607:636   */\n      swap1\n      pop\n        /* \"#utility.yul\":645:678   */\n      tag_39\n        /* \"#utility.yul\":672:677   */\n      dup2\n        /* \"#utility.yul\":645:678   */\n      tag_27\n      jump\t// in\n    tag_39:\n        /* \"#utility.yul\":545:684   */\n      swap3\n      swap2\n      pop\n      pop\n      jump\t// out\n        /* \"#utility.yul\":690:1019   */\n    tag_9:\n        /* \"#utility.yul\":749:755   */\n      0x00\n        /* \"#utility.yul\":798:800   */\n      0x20\n        /* \"#utility.yul\":786:795   */\n      dup3\n        /* \"#utility.yul\":777:784   */\n      dup5\n        /* \"#utility.yul\":773:796   */\n      sub\n        /* \"#utility.yul\":769:801   */\n      slt\n        /* \"#utility.yul\":766:885   */\n      iszero\n      tag_41\n      jumpi\n        /* \"#utility.yul\":804:883   */\n      tag_42\n      tag_24\n      jump\t// in\n    tag_42:\n        /* \"#utility.yul\":766:885   */\n    tag_41:\n        /* \"#utility.yul\":924:925   */\n      0x00\n        /* \"#utility.yul\":949:1002   */\n      tag_43\n        /* \"#utility.yul\":994:1001   */\n      dup5\n        /* \"#utility.yul\":985:991   */\n      dup3\n        /* \"#utility.yul\":974:983   */\n      dup6\n        /* \"#utility.yul\":970:992   */\n      add\n        /* \"#utility.yul\":949:1002   */\n      tag_28\n      jump\t// in\n    tag_43:\n        /* \"#utility.yul\":939:1002   */\n      swap2\n      pop\n        /* \"#utility.yul\":895:1012   */\n      pop\n        /* \"#utility.yul\":690:1019   */\n      swap3\n      swap2\n      pop\n      pop\n      jump\t// out\n        /* \"#utility.yul\":1025:1143   */\n    tag_29:\n        /* \"#utility.yul\":1112:1136   */\n      tag_45\n        /* \"#utility.yul\":1130:1135   */\n      dup2\n        /* \"#utility.yul\":1112:1136   */\n      tag_26\n      jump\t// in\n    tag_45:\n        /* \"#utility.yul\":1107:1110   */\n      dup3\n        /* \"#utility.yul\":1100:1137   */\n      mstore\n        /* \"#utility.yul\":1025:1143   */\n      pop\n      pop\n      jump\t// out\n        /* \"#utility.yul\":1149:1371   */\n    tag_17:\n        /* \"#utility.yul\":1242:1246   */\n      0x00\n        /* \"#utility.yul\":1280:1282   */\n      0x20\n        /* \"#utility.yul\":1269:1278   */\n      dup3\n        /* \"#utility.yul\":1265:1283   */\n      add\n        /* \"#utility.yul\":1257:1283   */\n      swap1\n      pop\n        /* \"#utility.yul\":1293:1364   */\n      tag_47\n        /* \"#utility.yul\":1361:1362   */\n      0x00\n        /* \"#utility.yul\":1350:1359   */\n      dup4\n        /* \"#utility.yul\":1346:1363   */\n      add\n        /* \"#utility.yul\":1337:1343   */\n      dup5\n        /* \"#utility.yul\":1293:1364   */\n      tag_29\n      jump\t// in\n    tag_47:\n        /* \"#utility.yul\":1149:1371   */\n      swap3\n      swap2\n      pop\n      pop\n      jump\t// out\n\n    auxdata: 0xa2646970667358221220763ba3f1c5406031aee67be1555e5188970cb597800f072fea871fba285e298664736f6c63430008150033\n}\n",
				"bytecode": {
					"linkReferences": {},
					"object": "608060405234801561000f575f80fd5b506101a08061001d5f395ff3fe608060405234801561000f575f80fd5b506004361061004a575f3560e01c806391dac9f01461004e578063ca08bdcc1461006a578063d0b0112114610086578063d514a671146100a4575b5f80fd5b61006860048036038101906100639190610117565b6100c2565b005b610084600480360381019061007f9190610117565b6100cb565b005b61008e6100d5565b60405161009b9190610151565b60405180910390f35b6100ac6100db565b6040516100b99190610151565b60405180910390f35b805f8190555050565b8060028190555050565b60025481565b5f5481565b5f80fd5b5f819050919050565b6100f6816100e4565b8114610100575f80fd5b50565b5f81359050610111816100ed565b92915050565b5f6020828403121561012c5761012b6100e0565b5b5f61013984828501610103565b91505092915050565b61014b816100e4565b82525050565b5f6020820190506101645f830184610142565b9291505056fea2646970667358221220763ba3f1c5406031aee67be1555e5188970cb597800f072fea871fba285e298664736f6c63430008150033",
					"opcodes": "PUSH1 0x80 PUSH1 0x40 MSTORE CALLVALUE DUP1 ISZERO PUSH2 0xF JUMPI PUSH0 DUP1 REVERT JUMPDEST POP PUSH2 0x1A0 DUP1 PUSH2 0x1D PUSH0 CODECOPY PUSH0 RETURN INVALID PUSH1 0x80 PUSH1 0x40 MSTORE CALLVALUE DUP1 ISZERO PUSH2 0xF JUMPI PUSH0 DUP1 REVERT JUMPDEST POP PUSH1 0x4 CALLDATASIZE LT PUSH2 0x4A JUMPI PUSH0 CALLDATALOAD PUSH1 0xE0 SHR DUP1 PUSH4 0x91DAC9F0 EQ PUSH2 0x4E JUMPI DUP1 PUSH4 0xCA08BDCC EQ PUSH2 0x6A JUMPI DUP1 PUSH4 0xD0B01121 EQ PUSH2 0x86 JUMPI DUP1 PUSH4 0xD514A671 EQ PUSH2 0xA4 JUMPI JUMPDEST PUSH0 DUP1 REVERT JUMPDEST PUSH2 0x68 PUSH1 0x4 DUP1 CALLDATASIZE SUB DUP2 ADD SWAP1 PUSH2 0x63 SWAP2 SWAP1 PUSH2 0x117 JUMP JUMPDEST PUSH2 0xC2 JUMP JUMPDEST STOP JUMPDEST PUSH2 0x84 PUSH1 0x4 DUP1 CALLDATASIZE SUB DUP2 ADD SWAP1 PUSH2 0x7F SWAP2 SWAP1 PUSH2 0x117 JUMP JUMPDEST PUSH2 0xCB JUMP JUMPDEST STOP JUMPDEST PUSH2 0x8E PUSH2 0xD5 JUMP JUMPDEST PUSH1 0x40 MLOAD PUSH2 0x9B SWAP2 SWAP1 PUSH2 0x151 JUMP JUMPDEST PUSH1 0x40 MLOAD DUP1 SWAP2 SUB SWAP1 RETURN JUMPDEST PUSH2 0xAC PUSH2 0xDB JUMP JUMPDEST PUSH1 0x40 MLOAD PUSH2 0xB9 SWAP2 SWAP1 PUSH2 0x151 JUMP JUMPDEST PUSH1 0x40 MLOAD DUP1 SWAP2 SUB SWAP1 RETURN JUMPDEST DUP1 PUSH0 DUP2 SWAP1 SSTORE POP POP JUMP JUMPDEST DUP1 PUSH1 0x2 DUP2 SWAP1 SSTORE POP POP JUMP JUMPDEST PUSH1 0x2 SLOAD DUP2 JUMP JUMPDEST PUSH0 SLOAD DUP2 JUMP JUMPDEST PUSH0 DUP1 REVERT JUMPDEST PUSH0 DUP2 SWAP1 POP SWAP2 SWAP1 POP JUMP JUMPDEST PUSH2 0xF6 DUP2 PUSH2 0xE4 JUMP JUMPDEST DUP2 EQ PUSH2 0x100 JUMPI PUSH0 DUP1 REVERT JUMPDEST POP JUMP JUMPDEST PUSH0 DUP2 CALLDATALOAD SWAP1 POP PUSH2 0x111 DUP2 PUSH2 0xED JUMP JUMPDEST SWAP3 SWAP2 POP POP JUMP JUMPDEST PUSH0 PUSH1 0x20 DUP3 DUP5 SUB SLT ISZERO PUSH2 0x12C JUMPI PUSH2 0x12B PUSH2 0xE0 JUMP JUMPDEST JUMPDEST PUSH0 PUSH2 0x139 DUP5 DUP3 DUP6 ADD PUSH2 0x103 JUMP JUMPDEST SWAP2 POP POP SWAP3 SWAP2 POP POP JUMP JUMPDEST PUSH2 0x14B DUP2 PUSH2 0xE4 JUMP JUMPDEST DUP3 MSTORE POP POP JUMP JUMPDEST PUSH0 PUSH1 0x20 DUP3 ADD SWAP1 POP PUSH2 0x164 PUSH0 DUP4 ADD DUP5 PUSH2 0x142 JUMP JUMPDEST SWAP3 SWAP2 POP POP JUMP INVALID LOG2 PUSH5 0x6970667358 0x22 SLT KECCAK256 PUSH23 0x3BA3F1C5406031AEE67BE1555E5188970CB597800F072F 0xEA DUP8 0x1F 0xBA 0x28 0x5E 0x29 DUP7 PUSH5 0x736F6C6343 STOP ADDMOD ISZERO STOP CALLER "
				},
				"gasEstimates": {
					"creation": {
						"codeDepositCost": "83200",
						"executionCost": "127",
						"totalCost": "83327"
					},
					"external": {
						"setGrand_Father_uint(uint256)": "22492",
						"setfather_uint(uint256)": "22515",
						"uint_G_Father()": "2468",
						"uint_father()": "2447"
					}
				},
				"methodIdentifiers": {
					"setGrand_Father_uint(uint256)": "91dac9f0",
					"setfather_uint(uint256)": "ca08bdcc",
					"uint_G_Father()": "d514a671",
					"uint_father()": "d0b01121"
				}
			},
			"storageLayout": {
				"storage": [
					{
						"astId": 3,
						"contract": "Inheritance_2.sol:Father",
						"label": "uint_G_Father",
						"offset": 0,
						"slot": "0",
						"type": "t_uint256"
					},
					{
						"astId": 5,
						"contract": "Inheritance_2.sol:Father",
						"label": "internal_uint",
						"offset": 0,
						"slot": "1",
						"type": "t_uint256"
					},
					{
						"astId": 20,
						"contract": "Inheritance_2.sol:Father",
						"label": "uint_father",
						"offset": 0,
						"slot": "2",
						"type": "t_uint256"
					}
				],
				"types": {
					"t_uint256": {
						"encoding": "inplace",
						"label": "uint256",
						"numberOfBytes": "32"
					}
				}
			},
			"userdoc": {
				"kind": "user",
				"methods": {},
				"version": 1
			}
		}
	}
}