{
	"Contracts/Exercise_1.sol": {
		"ZTMExercise_1": {
			"abi": [
				{
					"inputs": [
						{
							"internalType": "uint256",
							"name": "number",
							"type": "uint256"
						}
					],
					"name": "sendMeBackLess",
					"outputs": [],
					"stateMutability": "payable",
					"type": "function"
				}
			],
			"devdoc": {
				"kind": "dev",
				"methods": {},
				"version": 1
			},
			"evm": {
				"assembly": "    /* \"Contracts/Exercise_1.sol\":59:568  contract ZTMExercise_1 {... */\n  mstore(0x40, 0x80)\n  callvalue\n  dup1\n  iszero\n  tag_1\n  jumpi\n  0x00\n  dup1\n  revert\ntag_1:\n  pop\n  dataSize(sub_0)\n  dup1\n  dataOffset(sub_0)\n  0x00\n  codecopy\n  0x00\n  return\nstop\n\nsub_0: assembly {\n        /* \"Contracts/Exercise_1.sol\":59:568  contract ZTMExercise_1 {... */\n      mstore(0x40, 0x80)\n      jumpi(tag_1, lt(calldatasize, 0x04))\n      shr(0xe0, calldataload(0x00))\n      dup1\n      0x3a4c0b07\n      eq\n      tag_2\n      jumpi\n    tag_1:\n      0x00\n      dup1\n      revert\n        /* \"Contracts/Exercise_1.sol\":89:565  function sendMeBackLess(uint256 number) external payable {... */\n    tag_2:\n      tag_3\n      0x04\n      dup1\n      calldatasize\n      sub\n      dup2\n      add\n      swap1\n      tag_4\n      swap2\n      swap1\n      tag_5\n      jump\t// in\n    tag_4:\n      tag_6\n      jump\t// in\n    tag_3:\n      stop\n    tag_6:\n        /* \"Contracts/Exercise_1.sol\":157:176  console.log(number) */\n      tag_8\n        /* \"Contracts/Exercise_1.sol\":169:175  number */\n      dup2\n        /* \"Contracts/Exercise_1.sol\":157:168  console.log */\n      tag_9\n        /* \"Contracts/Exercise_1.sol\":157:176  console.log(number) */\n      jump\t// in\n    tag_8:\n        /* \"Contracts/Exercise_1.sol\":205:206  9 */\n      0x09\n        /* \"Contracts/Exercise_1.sol\":195:201  number */\n      dup2\n        /* \"Contracts/Exercise_1.sol\":195:206  number != 9 */\n      sub\n        /* \"Contracts/Exercise_1.sol\":187:227  require(number != 9, \"We don't like 9.\") */\n      tag_10\n      jumpi\n      mload(0x40)\n      0x08c379a000000000000000000000000000000000000000000000000000000000\n      dup2\n      mstore\n      0x04\n      add\n      tag_11\n      swap1\n      tag_12\n      jump\t// in\n    tag_11:\n      mload(0x40)\n      dup1\n      swap2\n      sub\n      swap1\n      revert\n    tag_10:\n        /* \"Contracts/Exercise_1.sol\":258:259  0 */\n      0x00\n        /* \"Contracts/Exercise_1.sol\":253:254  2 */\n      0x02\n        /* \"Contracts/Exercise_1.sol\":244:250  number */\n      dup3\n        /* \"Contracts/Exercise_1.sol\":244:254  number % 2 */\n      tag_13\n      swap2\n      swap1\n      tag_14\n      jump\t// in\n    tag_13:\n        /* \"Contracts/Exercise_1.sol\":244:259  number % 2 == 0 */\n      sub\n        /* \"Contracts/Exercise_1.sol\":240:558  if (number % 2 == 0) {... */\n      tag_15\n      jumpi\n        /* \"Contracts/Exercise_1.sol\":276:296  console.log(\"in if\") */\n      tag_16\n      mload(0x40)\n      dup1\n      0x40\n      add\n      0x40\n      mstore\n      dup1\n      0x05\n      dup2\n      mstore\n      0x20\n      add\n      0x696e206966000000000000000000000000000000000000000000000000000000\n      dup2\n      mstore\n      pop\n        /* \"Contracts/Exercise_1.sol\":276:287  console.log */\n      tag_17\n        /* \"Contracts/Exercise_1.sol\":276:296  console.log(\"in if\") */\n      jump\t// in\n    tag_16:\n        /* \"Contracts/Exercise_1.sol\":312:336  console.log(msg.value/2) */\n      tag_18\n        /* \"Contracts/Exercise_1.sol\":334:335  2 */\n      0x02\n        /* \"Contracts/Exercise_1.sol\":324:333  msg.value */\n      callvalue\n        /* \"Contracts/Exercise_1.sol\":324:335  msg.value/2 */\n      tag_19\n      swap2\n      swap1\n      tag_20\n      jump\t// in\n    tag_19:\n        /* \"Contracts/Exercise_1.sol\":312:323  console.log */\n      tag_9\n        /* \"Contracts/Exercise_1.sol\":312:336  console.log(msg.value/2) */\n      jump\t// in\n    tag_18:\n        /* \"Contracts/Exercise_1.sol\":359:369  msg.sender */\n      caller\n        /* \"Contracts/Exercise_1.sol\":351:379  payable(msg.sender).transfer */\n      0xffffffffffffffffffffffffffffffffffffffff\n      and\n        /* \"Contracts/Exercise_1.sol\":351:394  payable(msg.sender).transfer(msg.value / 2) */\n      0x08fc\n        /* \"Contracts/Exercise_1.sol\":392:393  2 */\n      0x02\n        /* \"Contracts/Exercise_1.sol\":380:389  msg.value */\n      callvalue\n        /* \"Contracts/Exercise_1.sol\":380:393  msg.value / 2 */\n      tag_21\n      swap2\n      swap1\n      tag_20\n      jump\t// in\n    tag_21:\n        /* \"Contracts/Exercise_1.sol\":351:394  payable(msg.sender).transfer(msg.value / 2) */\n      swap1\n      dup2\n      iszero\n      mul\n      swap1\n      mload(0x40)\n      0x00\n      mload(0x40)\n      dup1\n      dup4\n      sub\n      dup2\n      dup6\n      dup9\n      dup9\n      call\n      swap4\n      pop\n      pop\n      pop\n      pop\n      iszero\n      dup1\n      iszero\n      tag_23\n      jumpi\n      returndatasize\n      0x00\n      dup1\n      returndatacopy\n      revert(0x00, returndatasize)\n    tag_23:\n      pop\n        /* \"Contracts/Exercise_1.sol\":240:558  if (number % 2 == 0) {... */\n      jump(tag_24)\n    tag_15:\n        /* \"Contracts/Exercise_1.sol\":429:451  console.log(\"in else\") */\n      tag_25\n      mload(0x40)\n      dup1\n      0x40\n      add\n      0x40\n      mstore\n      dup1\n      0x07\n      dup2\n      mstore\n      0x20\n      add\n      0x696e20656c736500000000000000000000000000000000000000000000000000\n      dup2\n      mstore\n      pop\n        /* \"Contracts/Exercise_1.sol\":429:440  console.log */\n      tag_17\n        /* \"Contracts/Exercise_1.sol\":429:451  console.log(\"in else\") */\n      jump\t// in\n    tag_25:\n        /* \"Contracts/Exercise_1.sol\":470:492  console.log(msg.value) */\n      tag_26\n        /* \"Contracts/Exercise_1.sol\":482:491  msg.value */\n      callvalue\n        /* \"Contracts/Exercise_1.sol\":470:481  console.log */\n      tag_9\n        /* \"Contracts/Exercise_1.sol\":470:492  console.log(msg.value) */\n      jump\t// in\n    tag_26:\n        /* \"Contracts/Exercise_1.sol\":515:525  msg.sender */\n      caller\n        /* \"Contracts/Exercise_1.sol\":507:535  payable(msg.sender).transfer */\n      0xffffffffffffffffffffffffffffffffffffffff\n      and\n        /* \"Contracts/Exercise_1.sol\":507:546  payable(msg.sender).transfer(msg.value) */\n      0x08fc\n        /* \"Contracts/Exercise_1.sol\":536:545  msg.value */\n      callvalue\n        /* \"Contracts/Exercise_1.sol\":507:546  payable(msg.sender).transfer(msg.value) */\n      swap1\n      dup2\n      iszero\n      mul\n      swap1\n      mload(0x40)\n      0x00\n      mload(0x40)\n      dup1\n      dup4\n      sub\n      dup2\n      dup6\n      dup9\n      dup9\n      call\n      swap4\n      pop\n      pop\n      pop\n      pop\n      iszero\n      dup1\n      iszero\n      tag_28\n      jumpi\n      returndatasize\n      0x00\n      dup1\n      returndatacopy\n      revert(0x00, returndatasize)\n    tag_28:\n      pop\n        /* \"Contracts/Exercise_1.sol\":240:558  if (number % 2 == 0) {... */\n    tag_24:\n        /* \"Contracts/Exercise_1.sol\":89:565  function sendMeBackLess(uint256 number) external payable {... */\n      pop\n      jump\t// out\n        /* \"Contracts/Exercise_1.sol\":6642:6760  function log(uint256 p0) internal pure {... */\n    tag_9:\n        /* \"Contracts/Exercise_1.sol\":6692:6752  _sendLogPayload(abi.encodeWithSignature(\"log(uint256)\", p0)) */\n      tag_30\n        /* \"Contracts/Exercise_1.sol\":6748:6750  p0 */\n      dup2\n        /* \"Contracts/Exercise_1.sol\":6708:6751  abi.encodeWithSignature(\"log(uint256)\", p0) */\n      add(0x24, mload(0x40))\n      tag_31\n      swap2\n      swap1\n      tag_32\n      jump\t// in\n    tag_31:\n      mload(0x40)\n      0x20\n      dup2\n      dup4\n      sub\n      sub\n      dup2\n      mstore\n      swap1\n      0x40\n      mstore\n      and(not(0xffffffffffffffffffffffffffffffffffffffffffffffffffffffff), 0xf82c50f100000000000000000000000000000000000000000000000000000000)\n      0x20\n      dup3\n      add\n      dup1\n      mload\n      0xffffffffffffffffffffffffffffffffffffffffffffffffffffffff\n      dup4\n      dup2\n      dup4\n      and\n      or\n      dup4\n      mstore\n      pop\n      pop\n      pop\n      pop\n        /* \"Contracts/Exercise_1.sol\":6692:6707  _sendLogPayload */\n      tag_33\n        /* \"Contracts/Exercise_1.sol\":6692:6752  _sendLogPayload(abi.encodeWithSignature(\"log(uint256)\", p0)) */\n      jump\t// in\n    tag_30:\n        /* \"Contracts/Exercise_1.sol\":6642:6760  function log(uint256 p0) internal pure {... */\n      pop\n      jump\t// out\n        /* \"Contracts/Exercise_1.sol\":6768:6891  function log(string memory p0) internal pure {... */\n    tag_17:\n        /* \"Contracts/Exercise_1.sol\":6824:6883  _sendLogPayload(abi.encodeWithSignature(\"log(string)\", p0)) */\n      tag_35\n        /* \"Contracts/Exercise_1.sol\":6879:6881  p0 */\n      dup2\n        /* \"Contracts/Exercise_1.sol\":6840:6882  abi.encodeWithSignature(\"log(string)\", p0) */\n      add(0x24, mload(0x40))\n      tag_36\n      swap2\n      swap1\n      tag_37\n      jump\t// in\n    tag_36:\n      mload(0x40)\n      0x20\n      dup2\n      dup4\n      sub\n      sub\n      dup2\n      mstore\n      swap1\n      0x40\n      mstore\n      and(not(0xffffffffffffffffffffffffffffffffffffffffffffffffffffffff), 0x41304fac00000000000000000000000000000000000000000000000000000000)\n      0x20\n      dup3\n      add\n      dup1\n      mload\n      0xffffffffffffffffffffffffffffffffffffffffffffffffffffffff\n      dup4\n      dup2\n      dup4\n      and\n      or\n      dup4\n      mstore\n      pop\n      pop\n      pop\n      pop\n        /* \"Contracts/Exercise_1.sol\":6824:6839  _sendLogPayload */\n      tag_33\n        /* \"Contracts/Exercise_1.sol\":6824:6883  _sendLogPayload(abi.encodeWithSignature(\"log(string)\", p0)) */\n      jump\t// in\n    tag_35:\n        /* \"Contracts/Exercise_1.sol\":6768:6891  function log(string memory p0) internal pure {... */\n      pop\n      jump\t// out\n        /* \"Contracts/Exercise_1.sol\":1386:1517  function _sendLogPayload(bytes memory payload) internal pure {... */\n    tag_33:\n        /* \"Contracts/Exercise_1.sol\":1458:1509  _castToPure(_sendLogPayloadImplementation)(payload) */\n      tag_39\n        /* \"Contracts/Exercise_1.sol\":1501:1508  payload */\n      dup2\n        /* \"Contracts/Exercise_1.sol\":1458:1500  _castToPure(_sendLogPayloadImplementation) */\n      tag_40\n        /* \"Contracts/Exercise_1.sol\":1470:1499  _sendLogPayloadImplementation */\n      tag_41\n        /* \"Contracts/Exercise_1.sol\":1458:1469  _castToPure */\n      tag_42\n        /* \"Contracts/Exercise_1.sol\":1458:1500  _castToPure(_sendLogPayloadImplementation) */\n      jump\t// in\n    tag_40:\n        /* \"Contracts/Exercise_1.sol\":1458:1509  _castToPure(_sendLogPayloadImplementation)(payload) */\n      0xffffffff\n      and\n      jump\t// in\n    tag_39:\n        /* \"Contracts/Exercise_1.sol\":1386:1517  function _sendLogPayload(bytes memory payload) internal pure {... */\n      pop\n      jump\t// out\n        /* \"Contracts/Exercise_1.sol\":690:1168  function _sendLogPayloadImplementation(bytes memory payload) internal view {... */\n    tag_41:\n        /* \"Contracts/Exercise_1.sol\":776:798  address consoleAddress */\n      0x00\n        /* \"Contracts/Exercise_1.sol\":639:681  0x000000000000000000636F6e736F6c652e6c6f67 */\n      0x636f6e736f6c652e6c6f67\n        /* \"Contracts/Exercise_1.sol\":776:816  address consoleAddress = CONSOLE_ADDRESS */\n      swap1\n      pop\n        /* \"Contracts/Exercise_1.sol\":1115:1116  0 */\n      0x00\n        /* \"Contracts/Exercise_1.sol\":1091:1092  0 */\n      dup1\n        /* \"Contracts/Exercise_1.sol\":1060:1067  payload */\n      dup4\n        /* \"Contracts/Exercise_1.sol\":1054:1068  mload(payload) */\n      mload\n        /* \"Contracts/Exercise_1.sol\":1028:1030  32 */\n      0x20\n        /* \"Contracts/Exercise_1.sol\":1019:1026  payload */\n      dup6\n        /* \"Contracts/Exercise_1.sol\":1015:1031  add(payload, 32) */\n      add\n        /* \"Contracts/Exercise_1.sol\":978:992  consoleAddress */\n      dup5\n        /* \"Contracts/Exercise_1.sol\":950:955  gas() */\n      gas\n        /* \"Contracts/Exercise_1.sol\":917:1135  staticcall(... */\n      staticcall\n        /* \"Contracts/Exercise_1.sol\":895:1150  pop(... */\n      pop\n        /* \"Contracts/Exercise_1.sol\":880:1161  {... */\n      pop\n        /* \"Contracts/Exercise_1.sol\":690:1168  function _sendLogPayloadImplementation(bytes memory payload) internal view {... */\n      pop\n      jump\t// out\n        /* \"Contracts/Exercise_1.sol\":1176:1378  function _castToPure(... */\n    tag_42:\n        /* \"Contracts/Exercise_1.sol\":1277:1310  function(bytes memory) pure fnOut */\n      tag_44\n        /* \"Contracts/Exercise_1.sol\":1356:1360  fnIn */\n      dup2\n        /* \"Contracts/Exercise_1.sol\":1347:1360  fnOut := fnIn */\n      swap1\n      pop\n        /* \"Contracts/Exercise_1.sol\":1176:1378  function _castToPure(... */\n      swap2\n      swap1\n      pop\n      jump\t// out\n    tag_44:\n      tag_46\n      tag_47\n      jump\t// in\n    tag_46:\n      jump\t// out\n        /* \"#utility.yul\":88:205   */\n    tag_49:\n        /* \"#utility.yul\":197:198   */\n      0x00\n        /* \"#utility.yul\":194:195   */\n      dup1\n        /* \"#utility.yul\":187:199   */\n      revert\n        /* \"#utility.yul\":334:411   */\n    tag_51:\n        /* \"#utility.yul\":371:378   */\n      0x00\n        /* \"#utility.yul\":400:405   */\n      dup2\n        /* \"#utility.yul\":389:405   */\n      swap1\n      pop\n        /* \"#utility.yul\":334:411   */\n      swap2\n      swap1\n      pop\n      jump\t// out\n        /* \"#utility.yul\":417:539   */\n    tag_52:\n        /* \"#utility.yul\":490:514   */\n      tag_70\n        /* \"#utility.yul\":508:513   */\n      dup2\n        /* \"#utility.yul\":490:514   */\n      tag_51\n      jump\t// in\n    tag_70:\n        /* \"#utility.yul\":483:488   */\n      dup2\n        /* \"#utility.yul\":480:515   */\n      eq\n        /* \"#utility.yul\":470:533   */\n      tag_71\n      jumpi\n        /* \"#utility.yul\":529:530   */\n      0x00\n        /* \"#utility.yul\":526:527   */\n      dup1\n        /* \"#utility.yul\":519:531   */\n      revert\n        /* \"#utility.yul\":470:533   */\n    tag_71:\n        /* \"#utility.yul\":417:539   */\n      pop\n      jump\t// out\n        /* \"#utility.yul\":545:684   */\n    tag_53:\n        /* \"#utility.yul\":591:596   */\n      0x00\n        /* \"#utility.yul\":629:635   */\n      dup2\n        /* \"#utility.yul\":616:636   */\n      calldataload\n        /* \"#utility.yul\":607:636   */\n      swap1\n      pop\n        /* \"#utility.yul\":645:678   */\n      tag_73\n        /* \"#utility.yul\":672:677   */\n      dup2\n        /* \"#utility.yul\":645:678   */\n      tag_52\n      jump\t// in\n    tag_73:\n        /* \"#utility.yul\":545:684   */\n      swap3\n      swap2\n      pop\n      pop\n      jump\t// out\n        /* \"#utility.yul\":690:1019   */\n    tag_5:\n        /* \"#utility.yul\":749:755   */\n      0x00\n        /* \"#utility.yul\":798:800   */\n      0x20\n        /* \"#utility.yul\":786:795   */\n      dup3\n        /* \"#utility.yul\":777:784   */\n      dup5\n        /* \"#utility.yul\":773:796   */\n      sub\n        /* \"#utility.yul\":769:801   */\n      slt\n        /* \"#utility.yul\":766:885   */\n      iszero\n      tag_75\n      jumpi\n        /* \"#utility.yul\":804:883   */\n      tag_76\n      tag_49\n      jump\t// in\n    tag_76:\n        /* \"#utility.yul\":766:885   */\n    tag_75:\n        /* \"#utility.yul\":924:925   */\n      0x00\n        /* \"#utility.yul\":949:1002   */\n      tag_77\n        /* \"#utility.yul\":994:1001   */\n      dup5\n        /* \"#utility.yul\":985:991   */\n      dup3\n        /* \"#utility.yul\":974:983   */\n      dup6\n        /* \"#utility.yul\":970:992   */\n      add\n        /* \"#utility.yul\":949:1002   */\n      tag_53\n      jump\t// in\n    tag_77:\n        /* \"#utility.yul\":939:1002   */\n      swap2\n      pop\n        /* \"#utility.yul\":895:1012   */\n      pop\n        /* \"#utility.yul\":690:1019   */\n      swap3\n      swap2\n      pop\n      pop\n      jump\t// out\n        /* \"#utility.yul\":1025:1194   */\n    tag_54:\n        /* \"#utility.yul\":1109:1120   */\n      0x00\n        /* \"#utility.yul\":1143:1149   */\n      dup3\n        /* \"#utility.yul\":1138:1141   */\n      dup3\n        /* \"#utility.yul\":1131:1150   */\n      mstore\n        /* \"#utility.yul\":1183:1187   */\n      0x20\n        /* \"#utility.yul\":1178:1181   */\n      dup3\n        /* \"#utility.yul\":1174:1188   */\n      add\n        /* \"#utility.yul\":1159:1188   */\n      swap1\n      pop\n        /* \"#utility.yul\":1025:1194   */\n      swap3\n      swap2\n      pop\n      pop\n      jump\t// out\n        /* \"#utility.yul\":1200:1366   */\n    tag_55:\n        /* \"#utility.yul\":1340:1358   */\n      0x576520646f6e2774206c696b6520392e00000000000000000000000000000000\n        /* \"#utility.yul\":1336:1337   */\n      0x00\n        /* \"#utility.yul\":1328:1334   */\n      dup3\n        /* \"#utility.yul\":1324:1338   */\n      add\n        /* \"#utility.yul\":1317:1359   */\n      mstore\n        /* \"#utility.yul\":1200:1366   */\n      pop\n      jump\t// out\n        /* \"#utility.yul\":1372:1738   */\n    tag_56:\n        /* \"#utility.yul\":1514:1517   */\n      0x00\n        /* \"#utility.yul\":1535:1602   */\n      tag_81\n        /* \"#utility.yul\":1599:1601   */\n      0x10\n        /* \"#utility.yul\":1594:1597   */\n      dup4\n        /* \"#utility.yul\":1535:1602   */\n      tag_54\n      jump\t// in\n    tag_81:\n        /* \"#utility.yul\":1528:1602   */\n      swap2\n      pop\n        /* \"#utility.yul\":1611:1704   */\n      tag_82\n        /* \"#utility.yul\":1700:1703   */\n      dup3\n        /* \"#utility.yul\":1611:1704   */\n      tag_55\n      jump\t// in\n    tag_82:\n        /* \"#utility.yul\":1729:1731   */\n      0x20\n        /* \"#utility.yul\":1724:1727   */\n      dup3\n        /* \"#utility.yul\":1720:1732   */\n      add\n        /* \"#utility.yul\":1713:1732   */\n      swap1\n      pop\n        /* \"#utility.yul\":1372:1738   */\n      swap2\n      swap1\n      pop\n      jump\t// out\n        /* \"#utility.yul\":1744:2163   */\n    tag_12:\n        /* \"#utility.yul\":1910:1914   */\n      0x00\n        /* \"#utility.yul\":1948:1950   */\n      0x20\n        /* \"#utility.yul\":1937:1946   */\n      dup3\n        /* \"#utility.yul\":1933:1951   */\n      add\n        /* \"#utility.yul\":1925:1951   */\n      swap1\n      pop\n        /* \"#utility.yul\":1997:2006   */\n      dup2\n        /* \"#utility.yul\":1991:1995   */\n      dup2\n        /* \"#utility.yul\":1987:2007   */\n      sub\n        /* \"#utility.yul\":1983:1984   */\n      0x00\n        /* \"#utility.yul\":1972:1981   */\n      dup4\n        /* \"#utility.yul\":1968:1985   */\n      add\n        /* \"#utility.yul\":1961:2008   */\n      mstore\n        /* \"#utility.yul\":2025:2156   */\n      tag_84\n        /* \"#utility.yul\":2151:2155   */\n      dup2\n        /* \"#utility.yul\":2025:2156   */\n      tag_56\n      jump\t// in\n    tag_84:\n        /* \"#utility.yul\":2017:2156   */\n      swap1\n      pop\n        /* \"#utility.yul\":1744:2163   */\n      swap2\n      swap1\n      pop\n      jump\t// out\n        /* \"#utility.yul\":2169:2349   */\n    tag_57:\n        /* \"#utility.yul\":2217:2294   */\n      0x4e487b7100000000000000000000000000000000000000000000000000000000\n        /* \"#utility.yul\":2214:2215   */\n      0x00\n        /* \"#utility.yul\":2207:2295   */\n      mstore\n        /* \"#utility.yul\":2314:2318   */\n      0x12\n        /* \"#utility.yul\":2311:2312   */\n      0x04\n        /* \"#utility.yul\":2304:2319   */\n      mstore\n        /* \"#utility.yul\":2338:2342   */\n      0x24\n        /* \"#utility.yul\":2335:2336   */\n      0x00\n        /* \"#utility.yul\":2328:2343   */\n      revert\n        /* \"#utility.yul\":2355:2531   */\n    tag_14:\n        /* \"#utility.yul\":2387:2388   */\n      0x00\n        /* \"#utility.yul\":2404:2424   */\n      tag_87\n        /* \"#utility.yul\":2422:2423   */\n      dup3\n        /* \"#utility.yul\":2404:2424   */\n      tag_51\n      jump\t// in\n    tag_87:\n        /* \"#utility.yul\":2399:2424   */\n      swap2\n      pop\n        /* \"#utility.yul\":2438:2458   */\n      tag_88\n        /* \"#utility.yul\":2456:2457   */\n      dup4\n        /* \"#utility.yul\":2438:2458   */\n      tag_51\n      jump\t// in\n    tag_88:\n        /* \"#utility.yul\":2433:2458   */\n      swap3\n      pop\n        /* \"#utility.yul\":2477:2478   */\n      dup3\n        /* \"#utility.yul\":2467:2502   */\n      tag_89\n      jumpi\n        /* \"#utility.yul\":2482:2500   */\n      tag_90\n      tag_57\n      jump\t// in\n    tag_90:\n        /* \"#utility.yul\":2467:2502   */\n    tag_89:\n        /* \"#utility.yul\":2523:2524   */\n      dup3\n        /* \"#utility.yul\":2520:2521   */\n      dup3\n        /* \"#utility.yul\":2516:2525   */\n      mod\n        /* \"#utility.yul\":2511:2525   */\n      swap1\n      pop\n        /* \"#utility.yul\":2355:2531   */\n      swap3\n      swap2\n      pop\n      pop\n      jump\t// out\n        /* \"#utility.yul\":2723:2908   */\n    tag_20:\n        /* \"#utility.yul\":2763:2764   */\n      0x00\n        /* \"#utility.yul\":2780:2800   */\n      tag_93\n        /* \"#utility.yul\":2798:2799   */\n      dup3\n        /* \"#utility.yul\":2780:2800   */\n      tag_51\n      jump\t// in\n    tag_93:\n        /* \"#utility.yul\":2775:2800   */\n      swap2\n      pop\n        /* \"#utility.yul\":2814:2834   */\n      tag_94\n        /* \"#utility.yul\":2832:2833   */\n      dup4\n        /* \"#utility.yul\":2814:2834   */\n      tag_51\n      jump\t// in\n    tag_94:\n        /* \"#utility.yul\":2809:2834   */\n      swap3\n      pop\n        /* \"#utility.yul\":2853:2854   */\n      dup3\n        /* \"#utility.yul\":2843:2878   */\n      tag_95\n      jumpi\n        /* \"#utility.yul\":2858:2876   */\n      tag_96\n      tag_57\n      jump\t// in\n    tag_96:\n        /* \"#utility.yul\":2843:2878   */\n    tag_95:\n        /* \"#utility.yul\":2900:2901   */\n      dup3\n        /* \"#utility.yul\":2897:2898   */\n      dup3\n        /* \"#utility.yul\":2893:2902   */\n      div\n        /* \"#utility.yul\":2888:2902   */\n      swap1\n      pop\n        /* \"#utility.yul\":2723:2908   */\n      swap3\n      swap2\n      pop\n      pop\n      jump\t// out\n        /* \"#utility.yul\":2914:3032   */\n    tag_59:\n        /* \"#utility.yul\":3001:3025   */\n      tag_98\n        /* \"#utility.yul\":3019:3024   */\n      dup2\n        /* \"#utility.yul\":3001:3025   */\n      tag_51\n      jump\t// in\n    tag_98:\n        /* \"#utility.yul\":2996:2999   */\n      dup3\n        /* \"#utility.yul\":2989:3026   */\n      mstore\n        /* \"#utility.yul\":2914:3032   */\n      pop\n      pop\n      jump\t// out\n        /* \"#utility.yul\":3038:3260   */\n    tag_32:\n        /* \"#utility.yul\":3131:3135   */\n      0x00\n        /* \"#utility.yul\":3169:3171   */\n      0x20\n        /* \"#utility.yul\":3158:3167   */\n      dup3\n        /* \"#utility.yul\":3154:3172   */\n      add\n        /* \"#utility.yul\":3146:3172   */\n      swap1\n      pop\n        /* \"#utility.yul\":3182:3253   */\n      tag_100\n        /* \"#utility.yul\":3250:3251   */\n      0x00\n        /* \"#utility.yul\":3239:3248   */\n      dup4\n        /* \"#utility.yul\":3235:3252   */\n      add\n        /* \"#utility.yul\":3226:3232   */\n      dup5\n        /* \"#utility.yul\":3182:3253   */\n      tag_59\n      jump\t// in\n    tag_100:\n        /* \"#utility.yul\":3038:3260   */\n      swap3\n      swap2\n      pop\n      pop\n      jump\t// out\n        /* \"#utility.yul\":3266:3365   */\n    tag_60:\n        /* \"#utility.yul\":3318:3324   */\n      0x00\n        /* \"#utility.yul\":3352:3357   */\n      dup2\n        /* \"#utility.yul\":3346:3358   */\n      mload\n        /* \"#utility.yul\":3336:3358   */\n      swap1\n      pop\n        /* \"#utility.yul\":3266:3365   */\n      swap2\n      swap1\n      pop\n      jump\t// out\n        /* \"#utility.yul\":3371:3617   */\n    tag_61:\n        /* \"#utility.yul\":3452:3453   */\n      0x00\n        /* \"#utility.yul\":3462:3575   */\n    tag_103:\n        /* \"#utility.yul\":3476:3482   */\n      dup4\n        /* \"#utility.yul\":3473:3474   */\n      dup2\n        /* \"#utility.yul\":3470:3483   */\n      lt\n        /* \"#utility.yul\":3462:3575   */\n      iszero\n      tag_105\n      jumpi\n        /* \"#utility.yul\":3561:3562   */\n      dup1\n        /* \"#utility.yul\":3556:3559   */\n      dup3\n        /* \"#utility.yul\":3552:3563   */\n      add\n        /* \"#utility.yul\":3546:3564   */\n      mload\n        /* \"#utility.yul\":3542:3543   */\n      dup2\n        /* \"#utility.yul\":3537:3540   */\n      dup5\n        /* \"#utility.yul\":3533:3544   */\n      add\n        /* \"#utility.yul\":3526:3565   */\n      mstore\n        /* \"#utility.yul\":3498:3500   */\n      0x20\n        /* \"#utility.yul\":3495:3496   */\n      dup2\n        /* \"#utility.yul\":3491:3501   */\n      add\n        /* \"#utility.yul\":3486:3501   */\n      swap1\n      pop\n        /* \"#utility.yul\":3462:3575   */\n      jump(tag_103)\n    tag_105:\n        /* \"#utility.yul\":3609:3610   */\n      0x00\n        /* \"#utility.yul\":3600:3606   */\n      dup5\n        /* \"#utility.yul\":3595:3598   */\n      dup5\n        /* \"#utility.yul\":3591:3607   */\n      add\n        /* \"#utility.yul\":3584:3611   */\n      mstore\n        /* \"#utility.yul\":3433:3617   */\n      pop\n        /* \"#utility.yul\":3371:3617   */\n      pop\n      pop\n      pop\n      jump\t// out\n        /* \"#utility.yul\":3623:3725   */\n    tag_62:\n        /* \"#utility.yul\":3664:3670   */\n      0x00\n        /* \"#utility.yul\":3715:3717   */\n      0x1f\n        /* \"#utility.yul\":3711:3718   */\n      not\n        /* \"#utility.yul\":3706:3708   */\n      0x1f\n        /* \"#utility.yul\":3699:3704   */\n      dup4\n        /* \"#utility.yul\":3695:3709   */\n      add\n        /* \"#utility.yul\":3691:3719   */\n      and\n        /* \"#utility.yul\":3681:3719   */\n      swap1\n      pop\n        /* \"#utility.yul\":3623:3725   */\n      swap2\n      swap1\n      pop\n      jump\t// out\n        /* \"#utility.yul\":3731:4108   */\n    tag_63:\n        /* \"#utility.yul\":3819:3822   */\n      0x00\n        /* \"#utility.yul\":3847:3886   */\n      tag_108\n        /* \"#utility.yul\":3880:3885   */\n      dup3\n        /* \"#utility.yul\":3847:3886   */\n      tag_60\n      jump\t// in\n    tag_108:\n        /* \"#utility.yul\":3902:3973   */\n      tag_109\n        /* \"#utility.yul\":3966:3972   */\n      dup2\n        /* \"#utility.yul\":3961:3964   */\n      dup6\n        /* \"#utility.yul\":3902:3973   */\n      tag_54\n      jump\t// in\n    tag_109:\n        /* \"#utility.yul\":3895:3973   */\n      swap4\n      pop\n        /* \"#utility.yul\":3982:4047   */\n      tag_110\n        /* \"#utility.yul\":4040:4046   */\n      dup2\n        /* \"#utility.yul\":4035:4038   */\n      dup6\n        /* \"#utility.yul\":4028:4032   */\n      0x20\n        /* \"#utility.yul\":4021:4026   */\n      dup7\n        /* \"#utility.yul\":4017:4033   */\n      add\n        /* \"#utility.yul\":3982:4047   */\n      tag_61\n      jump\t// in\n    tag_110:\n        /* \"#utility.yul\":4072:4101   */\n      tag_111\n        /* \"#utility.yul\":4094:4100   */\n      dup2\n        /* \"#utility.yul\":4072:4101   */\n      tag_62\n      jump\t// in\n    tag_111:\n        /* \"#utility.yul\":4067:4070   */\n      dup5\n        /* \"#utility.yul\":4063:4102   */\n      add\n        /* \"#utility.yul\":4056:4102   */\n      swap2\n      pop\n        /* \"#utility.yul\":3823:4108   */\n      pop\n        /* \"#utility.yul\":3731:4108   */\n      swap3\n      swap2\n      pop\n      pop\n      jump\t// out\n        /* \"#utility.yul\":4114:4427   */\n    tag_37:\n        /* \"#utility.yul\":4227:4231   */\n      0x00\n        /* \"#utility.yul\":4265:4267   */\n      0x20\n        /* \"#utility.yul\":4254:4263   */\n      dup3\n        /* \"#utility.yul\":4250:4268   */\n      add\n        /* \"#utility.yul\":4242:4268   */\n      swap1\n      pop\n        /* \"#utility.yul\":4314:4323   */\n      dup2\n        /* \"#utility.yul\":4308:4312   */\n      dup2\n        /* \"#utility.yul\":4304:4324   */\n      sub\n        /* \"#utility.yul\":4300:4301   */\n      0x00\n        /* \"#utility.yul\":4289:4298   */\n      dup4\n        /* \"#utility.yul\":4285:4302   */\n      add\n        /* \"#utility.yul\":4278:4325   */\n      mstore\n        /* \"#utility.yul\":4342:4420   */\n      tag_113\n        /* \"#utility.yul\":4415:4419   */\n      dup2\n        /* \"#utility.yul\":4406:4412   */\n      dup5\n        /* \"#utility.yul\":4342:4420   */\n      tag_63\n      jump\t// in\n    tag_113:\n        /* \"#utility.yul\":4334:4420   */\n      swap1\n      pop\n        /* \"#utility.yul\":4114:4427   */\n      swap3\n      swap2\n      pop\n      pop\n      jump\t// out\n        /* \"#utility.yul\":4433:4613   */\n    tag_47:\n        /* \"#utility.yul\":4481:4558   */\n      0x4e487b7100000000000000000000000000000000000000000000000000000000\n        /* \"#utility.yul\":4478:4479   */\n      0x00\n        /* \"#utility.yul\":4471:4559   */\n      mstore\n        /* \"#utility.yul\":4578:4582   */\n      0x51\n        /* \"#utility.yul\":4575:4576   */\n      0x04\n        /* \"#utility.yul\":4568:4583   */\n      mstore\n        /* \"#utility.yul\":4602:4606   */\n      0x24\n        /* \"#utility.yul\":4599:4600   */\n      0x00\n        /* \"#utility.yul\":4592:4607   */\n      revert\n\n    auxdata: 0xa26469706673582212201be86be050a4d112dba8519f8b956c6231399f9cbe3ea6f27dfe71b84d46b62764736f6c63430008150033\n}\n",
				"bytecode": {
					"linkReferences": {},
					"object": "608060405234801561000f575f80fd5b506105df8061001d5f395ff3fe60806040526004361061001d575f3560e01c80633a4c0b0714610021575b5f80fd5b61003b6004803603810190610036919061038a565b61003d565b005b610046816101d3565b60098103610089576040517f08c379a00000000000000000000000000000000000000000000000000000000081526004016100809061040f565b60405180910390fd5b5f600282610097919061045a565b03610144576100da6040518060400160405280600581526020017f696e20696600000000000000000000000000000000000000000000000000000081525061026c565b6100ef6002346100ea919061048a565b6101d3565b3373ffffffffffffffffffffffffffffffffffffffff166108fc600234610116919061048a565b90811502906040515f60405180830381858888f1935050505015801561013e573d5f803e3d5ffd5b506101d0565b6101826040518060400160405280600781526020017f696e20656c73650000000000000000000000000000000000000000000000000081525061026c565b61018b346101d3565b3373ffffffffffffffffffffffffffffffffffffffff166108fc3490811502906040515f60405180830381858888f193505050501580156101ce573d5f803e3d5ffd5b505b50565b610269816040516024016101e791906104c9565b6040516020818303038152906040527ff82c50f1000000000000000000000000000000000000000000000000000000007bffffffffffffffffffffffffffffffffffffffffffffffffffffffff19166020820180517bffffffffffffffffffffffffffffffffffffffffffffffffffffffff8381831617835250505050610305565b50565b61030281604051602401610280919061055c565b6040516020818303038152906040527f41304fac000000000000000000000000000000000000000000000000000000007bffffffffffffffffffffffffffffffffffffffffffffffffffffffff19166020820180517bffffffffffffffffffffffffffffffffffffffffffffffffffffffff8381831617835250505050610305565b50565b61031c8161031461031f61033e565b63ffffffff16565b50565b5f6a636f6e736f6c652e6c6f6790505f80835160208501845afa505050565b610349819050919050565b61035161057c565b565b5f80fd5b5f819050919050565b61036981610357565b8114610373575f80fd5b50565b5f8135905061038481610360565b92915050565b5f6020828403121561039f5761039e610353565b5b5f6103ac84828501610376565b91505092915050565b5f82825260208201905092915050565b7f576520646f6e2774206c696b6520392e000000000000000000000000000000005f82015250565b5f6103f96010836103b5565b9150610404826103c5565b602082019050919050565b5f6020820190508181035f830152610426816103ed565b9050919050565b7f4e487b71000000000000000000000000000000000000000000000000000000005f52601260045260245ffd5b5f61046482610357565b915061046f83610357565b92508261047f5761047e61042d565b5b828206905092915050565b5f61049482610357565b915061049f83610357565b9250826104af576104ae61042d565b5b828204905092915050565b6104c381610357565b82525050565b5f6020820190506104dc5f8301846104ba565b92915050565b5f81519050919050565b5f5b838110156105095780820151818401526020810190506104ee565b5f8484015250505050565b5f601f19601f8301169050919050565b5f61052e826104e2565b61053881856103b5565b93506105488185602086016104ec565b61055181610514565b840191505092915050565b5f6020820190508181035f8301526105748184610524565b905092915050565b7f4e487b71000000000000000000000000000000000000000000000000000000005f52605160045260245ffdfea26469706673582212201be86be050a4d112dba8519f8b956c6231399f9cbe3ea6f27dfe71b84d46b62764736f6c63430008150033",
					"opcodes": "PUSH1 0x80 PUSH1 0x40 MSTORE CALLVALUE DUP1 ISZERO PUSH2 0xF JUMPI PUSH0 DUP1 REVERT JUMPDEST POP PUSH2 0x5DF DUP1 PUSH2 0x1D PUSH0 CODECOPY PUSH0 RETURN INVALID PUSH1 0x80 PUSH1 0x40 MSTORE PUSH1 0x4 CALLDATASIZE LT PUSH2 0x1D JUMPI PUSH0 CALLDATALOAD PUSH1 0xE0 SHR DUP1 PUSH4 0x3A4C0B07 EQ PUSH2 0x21 JUMPI JUMPDEST PUSH0 DUP1 REVERT JUMPDEST PUSH2 0x3B PUSH1 0x4 DUP1 CALLDATASIZE SUB DUP2 ADD SWAP1 PUSH2 0x36 SWAP2 SWAP1 PUSH2 0x38A JUMP JUMPDEST PUSH2 0x3D JUMP JUMPDEST STOP JUMPDEST PUSH2 0x46 DUP2 PUSH2 0x1D3 JUMP JUMPDEST PUSH1 0x9 DUP2 SUB PUSH2 0x89 JUMPI PUSH1 0x40 MLOAD PUSH32 0x8C379A000000000000000000000000000000000000000000000000000000000 DUP2 MSTORE PUSH1 0x4 ADD PUSH2 0x80 SWAP1 PUSH2 0x40F JUMP JUMPDEST PUSH1 0x40 MLOAD DUP1 SWAP2 SUB SWAP1 REVERT JUMPDEST PUSH0 PUSH1 0x2 DUP3 PUSH2 0x97 SWAP2 SWAP1 PUSH2 0x45A JUMP JUMPDEST SUB PUSH2 0x144 JUMPI PUSH2 0xDA PUSH1 0x40 MLOAD DUP1 PUSH1 0x40 ADD PUSH1 0x40 MSTORE DUP1 PUSH1 0x5 DUP2 MSTORE PUSH1 0x20 ADD PUSH32 0x696E206966000000000000000000000000000000000000000000000000000000 DUP2 MSTORE POP PUSH2 0x26C JUMP JUMPDEST PUSH2 0xEF PUSH1 0x2 CALLVALUE PUSH2 0xEA SWAP2 SWAP1 PUSH2 0x48A JUMP JUMPDEST PUSH2 0x1D3 JUMP JUMPDEST CALLER PUSH20 0xFFFFFFFFFFFFFFFFFFFFFFFFFFFFFFFFFFFFFFFF AND PUSH2 0x8FC PUSH1 0x2 CALLVALUE PUSH2 0x116 SWAP2 SWAP1 PUSH2 0x48A JUMP JUMPDEST SWAP1 DUP2 ISZERO MUL SWAP1 PUSH1 0x40 MLOAD PUSH0 PUSH1 0x40 MLOAD DUP1 DUP4 SUB DUP2 DUP6 DUP9 DUP9 CALL SWAP4 POP POP POP POP ISZERO DUP1 ISZERO PUSH2 0x13E JUMPI RETURNDATASIZE PUSH0 DUP1 RETURNDATACOPY RETURNDATASIZE PUSH0 REVERT JUMPDEST POP PUSH2 0x1D0 JUMP JUMPDEST PUSH2 0x182 PUSH1 0x40 MLOAD DUP1 PUSH1 0x40 ADD PUSH1 0x40 MSTORE DUP1 PUSH1 0x7 DUP2 MSTORE PUSH1 0x20 ADD PUSH32 0x696E20656C736500000000000000000000000000000000000000000000000000 DUP2 MSTORE POP PUSH2 0x26C JUMP JUMPDEST PUSH2 0x18B CALLVALUE PUSH2 0x1D3 JUMP JUMPDEST CALLER PUSH20 0xFFFFFFFFFFFFFFFFFFFFFFFFFFFFFFFFFFFFFFFF AND PUSH2 0x8FC CALLVALUE SWAP1 DUP2 ISZERO MUL SWAP1 PUSH1 0x40 MLOAD PUSH0 PUSH1 0x40 MLOAD DUP1 DUP4 SUB DUP2 DUP6 DUP9 DUP9 CALL SWAP4 POP POP POP POP ISZERO DUP1 ISZERO PUSH2 0x1CE JUMPI RETURNDATASIZE PUSH0 DUP1 RETURNDATACOPY RETURNDATASIZE PUSH0 REVERT JUMPDEST POP JUMPDEST POP JUMP JUMPDEST PUSH2 0x269 DUP2 PUSH1 0x40 MLOAD PUSH1 0x24 ADD PUSH2 0x1E7 SWAP2 SWAP1 PUSH2 0x4C9 JUMP JUMPDEST PUSH1 0x40 MLOAD PUSH1 0x20 DUP2 DUP4 SUB SUB DUP2 MSTORE SWAP1 PUSH1 0x40 MSTORE PUSH32 0xF82C50F100000000000000000000000000000000000000000000000000000000 PUSH28 0xFFFFFFFFFFFFFFFFFFFFFFFFFFFFFFFFFFFFFFFFFFFFFFFFFFFFFFFF NOT AND PUSH1 0x20 DUP3 ADD DUP1 MLOAD PUSH28 0xFFFFFFFFFFFFFFFFFFFFFFFFFFFFFFFFFFFFFFFFFFFFFFFFFFFFFFFF DUP4 DUP2 DUP4 AND OR DUP4 MSTORE POP POP POP POP PUSH2 0x305 JUMP JUMPDEST POP JUMP JUMPDEST PUSH2 0x302 DUP2 PUSH1 0x40 MLOAD PUSH1 0x24 ADD PUSH2 0x280 SWAP2 SWAP1 PUSH2 0x55C JUMP JUMPDEST PUSH1 0x40 MLOAD PUSH1 0x20 DUP2 DUP4 SUB SUB DUP2 MSTORE SWAP1 PUSH1 0x40 MSTORE PUSH32 0x41304FAC00000000000000000000000000000000000000000000000000000000 PUSH28 0xFFFFFFFFFFFFFFFFFFFFFFFFFFFFFFFFFFFFFFFFFFFFFFFFFFFFFFFF NOT AND PUSH1 0x20 DUP3 ADD DUP1 MLOAD PUSH28 0xFFFFFFFFFFFFFFFFFFFFFFFFFFFFFFFFFFFFFFFFFFFFFFFFFFFFFFFF DUP4 DUP2 DUP4 AND OR DUP4 MSTORE POP POP POP POP PUSH2 0x305 JUMP JUMPDEST POP JUMP JUMPDEST PUSH2 0x31C DUP2 PUSH2 0x314 PUSH2 0x31F PUSH2 0x33E JUMP JUMPDEST PUSH4 0xFFFFFFFF AND JUMP JUMPDEST POP JUMP JUMPDEST PUSH0 PUSH11 0x636F6E736F6C652E6C6F67 SWAP1 POP PUSH0 DUP1 DUP4 MLOAD PUSH1 0x20 DUP6 ADD DUP5 GAS STATICCALL POP POP POP JUMP JUMPDEST PUSH2 0x349 DUP2 SWAP1 POP SWAP2 SWAP1 POP JUMP JUMPDEST PUSH2 0x351 PUSH2 0x57C JUMP JUMPDEST JUMP JUMPDEST PUSH0 DUP1 REVERT JUMPDEST PUSH0 DUP2 SWAP1 POP SWAP2 SWAP1 POP JUMP JUMPDEST PUSH2 0x369 DUP2 PUSH2 0x357 JUMP JUMPDEST DUP2 EQ PUSH2 0x373 JUMPI PUSH0 DUP1 REVERT JUMPDEST POP JUMP JUMPDEST PUSH0 DUP2 CALLDATALOAD SWAP1 POP PUSH2 0x384 DUP2 PUSH2 0x360 JUMP JUMPDEST SWAP3 SWAP2 POP POP JUMP JUMPDEST PUSH0 PUSH1 0x20 DUP3 DUP5 SUB SLT ISZERO PUSH2 0x39F JUMPI PUSH2 0x39E PUSH2 0x353 JUMP JUMPDEST JUMPDEST PUSH0 PUSH2 0x3AC DUP5 DUP3 DUP6 ADD PUSH2 0x376 JUMP JUMPDEST SWAP2 POP POP SWAP3 SWAP2 POP POP JUMP JUMPDEST PUSH0 DUP3 DUP3 MSTORE PUSH1 0x20 DUP3 ADD SWAP1 POP SWAP3 SWAP2 POP POP JUMP JUMPDEST PUSH32 0x576520646F6E2774206C696B6520392E00000000000000000000000000000000 PUSH0 DUP3 ADD MSTORE POP JUMP JUMPDEST PUSH0 PUSH2 0x3F9 PUSH1 0x10 DUP4 PUSH2 0x3B5 JUMP JUMPDEST SWAP2 POP PUSH2 0x404 DUP3 PUSH2 0x3C5 JUMP JUMPDEST PUSH1 0x20 DUP3 ADD SWAP1 POP SWAP2 SWAP1 POP JUMP JUMPDEST PUSH0 PUSH1 0x20 DUP3 ADD SWAP1 POP DUP2 DUP2 SUB PUSH0 DUP4 ADD MSTORE PUSH2 0x426 DUP2 PUSH2 0x3ED JUMP JUMPDEST SWAP1 POP SWAP2 SWAP1 POP JUMP JUMPDEST PUSH32 0x4E487B7100000000000000000000000000000000000000000000000000000000 PUSH0 MSTORE PUSH1 0x12 PUSH1 0x4 MSTORE PUSH1 0x24 PUSH0 REVERT JUMPDEST PUSH0 PUSH2 0x464 DUP3 PUSH2 0x357 JUMP JUMPDEST SWAP2 POP PUSH2 0x46F DUP4 PUSH2 0x357 JUMP JUMPDEST SWAP3 POP DUP3 PUSH2 0x47F JUMPI PUSH2 0x47E PUSH2 0x42D JUMP JUMPDEST JUMPDEST DUP3 DUP3 MOD SWAP1 POP SWAP3 SWAP2 POP POP JUMP JUMPDEST PUSH0 PUSH2 0x494 DUP3 PUSH2 0x357 JUMP JUMPDEST SWAP2 POP PUSH2 0x49F DUP4 PUSH2 0x357 JUMP JUMPDEST SWAP3 POP DUP3 PUSH2 0x4AF JUMPI PUSH2 0x4AE PUSH2 0x42D JUMP JUMPDEST JUMPDEST DUP3 DUP3 DIV SWAP1 POP SWAP3 SWAP2 POP POP JUMP JUMPDEST PUSH2 0x4C3 DUP2 PUSH2 0x357 JUMP JUMPDEST DUP3 MSTORE POP POP JUMP JUMPDEST PUSH0 PUSH1 0x20 DUP3 ADD SWAP1 POP PUSH2 0x4DC PUSH0 DUP4 ADD DUP5 PUSH2 0x4BA JUMP JUMPDEST SWAP3 SWAP2 POP POP JUMP JUMPDEST PUSH0 DUP2 MLOAD SWAP1 POP SWAP2 SWAP1 POP JUMP JUMPDEST PUSH0 JUMPDEST DUP4 DUP2 LT ISZERO PUSH2 0x509 JUMPI DUP1 DUP3 ADD MLOAD DUP2 DUP5 ADD MSTORE PUSH1 0x20 DUP2 ADD SWAP1 POP PUSH2 0x4EE JUMP JUMPDEST PUSH0 DUP5 DUP5 ADD MSTORE POP POP POP POP JUMP JUMPDEST PUSH0 PUSH1 0x1F NOT PUSH1 0x1F DUP4 ADD AND SWAP1 POP SWAP2 SWAP1 POP JUMP JUMPDEST PUSH0 PUSH2 0x52E DUP3 PUSH2 0x4E2 JUMP JUMPDEST PUSH2 0x538 DUP2 DUP6 PUSH2 0x3B5 JUMP JUMPDEST SWAP4 POP PUSH2 0x548 DUP2 DUP6 PUSH1 0x20 DUP7 ADD PUSH2 0x4EC JUMP JUMPDEST PUSH2 0x551 DUP2 PUSH2 0x514 JUMP JUMPDEST DUP5 ADD SWAP2 POP POP SWAP3 SWAP2 POP POP JUMP JUMPDEST PUSH0 PUSH1 0x20 DUP3 ADD SWAP1 POP DUP2 DUP2 SUB PUSH0 DUP4 ADD MSTORE PUSH2 0x574 DUP2 DUP5 PUSH2 0x524 JUMP JUMPDEST SWAP1 POP SWAP3 SWAP2 POP POP JUMP JUMPDEST PUSH32 0x4E487B7100000000000000000000000000000000000000000000000000000000 PUSH0 MSTORE PUSH1 0x51 PUSH1 0x4 MSTORE PUSH1 0x24 PUSH0 REVERT INVALID LOG2 PUSH5 0x6970667358 0x22 SLT KECCAK256 SHL 0xE8 PUSH12 0xE050A4D112DBA8519F8B956C PUSH3 0x31399F SWAP13 0xBE RETURNDATACOPY 0xA6 CALLCODE PUSH30 0xFE71B84D46B62764736F6C63430008150033000000000000000000000000 "
				},
				"gasEstimates": {
					"creation": {
						"codeDepositCost": "300600",
						"executionCost": "335",
						"totalCost": "300935"
					},
					"external": {
						"sendMeBackLess(uint256)": "infinite"
					}
				},
				"methodIdentifiers": {
					"sendMeBackLess(uint256)": "3a4c0b07"
				}
			},
			"storageLayout": {
				"storage": [],
				"types": null
			},
			"userdoc": {
				"kind": "user",
				"methods": {},
				"version": 1
			}
		}
	}
}