{
	"Contracts/Inheritance_1.sol": {
		"Child": {
			"abi": [
				{
					"inputs": [],
					"stateMutability": "nonpayable",
					"type": "constructor"
				},
				{
					"inputs": [
						{
							"internalType": "uint256",
							"name": "c",
							"type": "uint256"
						}
					],
					"name": "child_setNum",
					"outputs": [],
					"stateMutability": "nonpayable",
					"type": "function"
				},
				{
					"inputs": [
						{
							"internalType": "uint256",
							"name": "o",
							"type": "uint256"
						}
					],
					"name": "override_able_func",
					"outputs": [],
					"stateMutability": "nonpayable",
					"type": "function"
				},
				{
					"inputs": [
						{
							"internalType": "uint256",
							"name": "a",
							"type": "uint256"
						}
					],
					"name": "setMother_uint",
					"outputs": [],
					"stateMutability": "nonpayable",
					"type": "function"
				},
				{
					"inputs": [
						{
							"internalType": "uint256",
							"name": "a",
							"type": "uint256"
						}
					],
					"name": "setfather_uint",
					"outputs": [],
					"stateMutability": "nonpayable",
					"type": "function"
				},
				{
					"inputs": [],
					"name": "uint_child",
					"outputs": [
						{
							"internalType": "uint256",
							"name": "",
							"type": "uint256"
						}
					],
					"stateMutability": "view",
					"type": "function"
				},
				{
					"inputs": [],
					"name": "uint_father",
					"outputs": [
						{
							"internalType": "uint256",
							"name": "",
							"type": "uint256"
						}
					],
					"stateMutability": "view",
					"type": "function"
				},
				{
					"inputs": [],
					"name": "uint_mother",
					"outputs": [
						{
							"internalType": "uint256",
							"name": "",
							"type": "uint256"
						}
					],
					"stateMutability": "view",
					"type": "function"
				}
			],
			"devdoc": {
				"kind": "dev",
				"methods": {},
				"version": 1
			},
			"evm": {
				"assembly": "    /* \"Contracts/Inheritance_1.sol\":631:1573  contract Child is Father, Mother {... */\n  mstore(0x40, 0x80)\n    /* \"Contracts/Inheritance_1.sol\":880:914  constructor() Father(4) Mother(){} */\n  callvalue\n  dup1\n  iszero\n  tag_1\n  jumpi\n  0x00\n  dup1\n  revert\ntag_1:\n  pop\n    /* \"Contracts/Inheritance_1.sol\":901:902  4 */\n  0x04\n    /* \"Contracts/Inheritance_1.sol\":157:160  num */\n  dup1\n    /* \"Contracts/Inheritance_1.sol\":143:154  uint_father */\n  0x00\n    /* \"Contracts/Inheritance_1.sol\":143:160  uint_father = num */\n  dup2\n  swap1\n  sstore\n  pop\n    /* \"Contracts/Inheritance_1.sol\":111:167  constructor (uint num){... */\n  pop\n    /* \"Contracts/Inheritance_1.sol\":441:442  0 */\n  0x00\n    /* \"Contracts/Inheritance_1.sol\":427:438  uint_mother */\n  0x01\n    /* \"Contracts/Inheritance_1.sol\":427:442  uint_mother = 0 */\n  dup2\n  swap1\n  sstore\n  pop\n    /* \"Contracts/Inheritance_1.sol\":631:1573  contract Child is Father, Mother {... */\n  dataSize(sub_0)\n  dup1\n  dataOffset(sub_0)\n  0x00\n  codecopy\n  0x00\n  return\nstop\n\nsub_0: assembly {\n        /* \"Contracts/Inheritance_1.sol\":631:1573  contract Child is Father, Mother {... */\n      mstore(0x40, 0x80)\n      callvalue\n      dup1\n      iszero\n      tag_1\n      jumpi\n      0x00\n      dup1\n      revert\n    tag_1:\n      pop\n      jumpi(tag_2, lt(calldatasize, 0x04))\n      shr(0xe0, calldataload(0x00))\n      dup1\n      0xca08bdcc\n      gt\n      tag_10\n      jumpi\n      dup1\n      0xca08bdcc\n      eq\n      tag_6\n      jumpi\n      dup1\n      0xcd9009e6\n      eq\n      tag_7\n      jumpi\n      dup1\n      0xd0b01121\n      eq\n      tag_8\n      jumpi\n      dup1\n      0xee3c476a\n      eq\n      tag_9\n      jumpi\n      jump(tag_2)\n    tag_10:\n      dup1\n      0x33bc9c49\n      eq\n      tag_3\n      jumpi\n      dup1\n      0x8bbccffb\n      eq\n      tag_4\n      jumpi\n      dup1\n      0xba9ee1c8\n      eq\n      tag_5\n      jumpi\n    tag_2:\n      0x00\n      dup1\n      revert\n        /* \"Contracts/Inheritance_1.sol\":372:398  uint256 public uint_mother */\n    tag_3:\n      tag_11\n      tag_12\n      jump\t// in\n    tag_11:\n      mload(0x40)\n      tag_13\n      swap2\n      swap1\n      tag_14\n      jump\t// in\n    tag_13:\n      mload(0x40)\n      dup1\n      swap2\n      sub\n      swap1\n      return\n        /* \"Contracts/Inheritance_1.sol\":1465:1571  function override_able_func (uint256 o) external override (Mother,Father) {... */\n    tag_4:\n      tag_15\n      0x04\n      dup1\n      calldatasize\n      sub\n      dup2\n      add\n      swap1\n      tag_16\n      swap2\n      swap1\n      tag_17\n      jump\t// in\n    tag_16:\n      tag_18\n      jump\t// in\n    tag_15:\n      stop\n        /* \"Contracts/Inheritance_1.sol\":454:530  function setMother_uint(uint256 a) external {... */\n    tag_5:\n      tag_19\n      0x04\n      dup1\n      calldatasize\n      sub\n      dup2\n      add\n      swap1\n      tag_20\n      swap2\n      swap1\n      tag_17\n      jump\t// in\n    tag_20:\n      tag_21\n      jump\t// in\n    tag_19:\n      stop\n        /* \"Contracts/Inheritance_1.sol\":173:249  function setfather_uint(uint256 a) external {... */\n    tag_6:\n      tag_22\n      0x04\n      dup1\n      calldatasize\n      sub\n      dup2\n      add\n      swap1\n      tag_23\n      swap2\n      swap1\n      tag_17\n      jump\t// in\n    tag_23:\n      tag_24\n      jump\t// in\n    tag_22:\n      stop\n        /* \"Contracts/Inheritance_1.sol\":670:695  uint256 public uint_child */\n    tag_7:\n      tag_25\n      tag_26\n      jump\t// in\n    tag_25:\n      mload(0x40)\n      tag_27\n      swap2\n      swap1\n      tag_14\n      jump\t// in\n    tag_27:\n      mload(0x40)\n      dup1\n      swap2\n      sub\n      swap1\n      return\n        /* \"Contracts/Inheritance_1.sol\":79:105  uint256 public uint_father */\n    tag_8:\n      tag_28\n      tag_29\n      jump\t// in\n    tag_28:\n      mload(0x40)\n      tag_30\n      swap2\n      swap1\n      tag_14\n      jump\t// in\n    tag_30:\n      mload(0x40)\n      dup1\n      swap2\n      sub\n      swap1\n      return\n        /* \"Contracts/Inheritance_1.sol\":1038:1174  function child_setNum(uint256 c) external {... */\n    tag_9:\n      tag_31\n      0x04\n      dup1\n      calldatasize\n      sub\n      dup2\n      add\n      swap1\n      tag_32\n      swap2\n      swap1\n      tag_17\n      jump\t// in\n    tag_32:\n      tag_33\n      jump\t// in\n    tag_31:\n      stop\n        /* \"Contracts/Inheritance_1.sol\":372:398  uint256 public uint_mother */\n    tag_12:\n      sload(0x01)\n      dup2\n      jump\t// out\n        /* \"Contracts/Inheritance_1.sol\":1465:1571  function override_able_func (uint256 o) external override (Mother,Father) {... */\n    tag_18:\n        /* \"Contracts/Inheritance_1.sol\":1563:1564  o */\n      dup1\n        /* \"Contracts/Inheritance_1.sol\":1549:1560  uint_mother */\n      0x01\n        /* \"Contracts/Inheritance_1.sol\":1549:1564  uint_mother = o */\n      dup2\n      swap1\n      sstore\n      pop\n        /* \"Contracts/Inheritance_1.sol\":1465:1571  function override_able_func (uint256 o) external override (Mother,Father) {... */\n      pop\n      jump\t// out\n        /* \"Contracts/Inheritance_1.sol\":454:530  function setMother_uint(uint256 a) external {... */\n    tag_21:\n        /* \"Contracts/Inheritance_1.sol\":522:523  a */\n      dup1\n        /* \"Contracts/Inheritance_1.sol\":508:519  uint_mother */\n      0x01\n        /* \"Contracts/Inheritance_1.sol\":508:523  uint_mother = a */\n      dup2\n      swap1\n      sstore\n      pop\n        /* \"Contracts/Inheritance_1.sol\":454:530  function setMother_uint(uint256 a) external {... */\n      pop\n      jump\t// out\n        /* \"Contracts/Inheritance_1.sol\":173:249  function setfather_uint(uint256 a) external {... */\n    tag_24:\n        /* \"Contracts/Inheritance_1.sol\":241:242  a */\n      dup1\n        /* \"Contracts/Inheritance_1.sol\":227:238  uint_father */\n      0x00\n        /* \"Contracts/Inheritance_1.sol\":227:242  uint_father = a */\n      dup2\n      swap1\n      sstore\n      pop\n        /* \"Contracts/Inheritance_1.sol\":173:249  function setfather_uint(uint256 a) external {... */\n      pop\n      jump\t// out\n        /* \"Contracts/Inheritance_1.sol\":670:695  uint256 public uint_child */\n    tag_26:\n      sload(0x02)\n      dup2\n      jump\t// out\n        /* \"Contracts/Inheritance_1.sol\":79:105  uint256 public uint_father */\n    tag_29:\n      sload(0x00)\n      dup2\n      jump\t// out\n        /* \"Contracts/Inheritance_1.sol\":1038:1174  function child_setNum(uint256 c) external {... */\n    tag_33:\n        /* \"Contracts/Inheritance_1.sol\":1141:1142  c */\n      dup1\n        /* \"Contracts/Inheritance_1.sol\":1127:1138  uint_father */\n      0x00\n        /* \"Contracts/Inheritance_1.sol\":1127:1142  uint_father = c */\n      dup2\n      swap1\n      sstore\n      pop\n        /* \"Contracts/Inheritance_1.sol\":1166:1167  c */\n      dup1\n        /* \"Contracts/Inheritance_1.sol\":1152:1163  uint_mother */\n      0x01\n        /* \"Contracts/Inheritance_1.sol\":1152:1167  uint_mother = c */\n      dup2\n      swap1\n      sstore\n      pop\n        /* \"Contracts/Inheritance_1.sol\":1038:1174  function child_setNum(uint256 c) external {... */\n      pop\n      jump\t// out\n        /* \"#utility.yul\":7:84   */\n    tag_38:\n        /* \"#utility.yul\":44:51   */\n      0x00\n        /* \"#utility.yul\":73:78   */\n      dup2\n        /* \"#utility.yul\":62:78   */\n      swap1\n      pop\n        /* \"#utility.yul\":7:84   */\n      swap2\n      swap1\n      pop\n      jump\t// out\n        /* \"#utility.yul\":90:208   */\n    tag_39:\n        /* \"#utility.yul\":177:201   */\n      tag_48\n        /* \"#utility.yul\":195:200   */\n      dup2\n        /* \"#utility.yul\":177:201   */\n      tag_38\n      jump\t// in\n    tag_48:\n        /* \"#utility.yul\":172:175   */\n      dup3\n        /* \"#utility.yul\":165:202   */\n      mstore\n        /* \"#utility.yul\":90:208   */\n      pop\n      pop\n      jump\t// out\n        /* \"#utility.yul\":214:436   */\n    tag_14:\n        /* \"#utility.yul\":307:311   */\n      0x00\n        /* \"#utility.yul\":345:347   */\n      0x20\n        /* \"#utility.yul\":334:343   */\n      dup3\n        /* \"#utility.yul\":330:348   */\n      add\n        /* \"#utility.yul\":322:348   */\n      swap1\n      pop\n        /* \"#utility.yul\":358:429   */\n      tag_50\n        /* \"#utility.yul\":426:427   */\n      0x00\n        /* \"#utility.yul\":415:424   */\n      dup4\n        /* \"#utility.yul\":411:428   */\n      add\n        /* \"#utility.yul\":402:408   */\n      dup5\n        /* \"#utility.yul\":358:429   */\n      tag_39\n      jump\t// in\n    tag_50:\n        /* \"#utility.yul\":214:436   */\n      swap3\n      swap2\n      pop\n      pop\n      jump\t// out\n        /* \"#utility.yul\":523:640   */\n    tag_41:\n        /* \"#utility.yul\":632:633   */\n      0x00\n        /* \"#utility.yul\":629:630   */\n      dup1\n        /* \"#utility.yul\":622:634   */\n      revert\n        /* \"#utility.yul\":769:891   */\n    tag_43:\n        /* \"#utility.yul\":842:866   */\n      tag_55\n        /* \"#utility.yul\":860:865   */\n      dup2\n        /* \"#utility.yul\":842:866   */\n      tag_38\n      jump\t// in\n    tag_55:\n        /* \"#utility.yul\":835:840   */\n      dup2\n        /* \"#utility.yul\":832:867   */\n      eq\n        /* \"#utility.yul\":822:885   */\n      tag_56\n      jumpi\n        /* \"#utility.yul\":881:882   */\n      0x00\n        /* \"#utility.yul\":878:879   */\n      dup1\n        /* \"#utility.yul\":871:883   */\n      revert\n        /* \"#utility.yul\":822:885   */\n    tag_56:\n        /* \"#utility.yul\":769:891   */\n      pop\n      jump\t// out\n        /* \"#utility.yul\":897:1036   */\n    tag_44:\n        /* \"#utility.yul\":943:948   */\n      0x00\n        /* \"#utility.yul\":981:987   */\n      dup2\n        /* \"#utility.yul\":968:988   */\n      calldataload\n        /* \"#utility.yul\":959:988   */\n      swap1\n      pop\n        /* \"#utility.yul\":997:1030   */\n      tag_58\n        /* \"#utility.yul\":1024:1029   */\n      dup2\n        /* \"#utility.yul\":997:1030   */\n      tag_43\n      jump\t// in\n    tag_58:\n        /* \"#utility.yul\":897:1036   */\n      swap3\n      swap2\n      pop\n      pop\n      jump\t// out\n        /* \"#utility.yul\":1042:1371   */\n    tag_17:\n        /* \"#utility.yul\":1101:1107   */\n      0x00\n        /* \"#utility.yul\":1150:1152   */\n      0x20\n        /* \"#utility.yul\":1138:1147   */\n      dup3\n        /* \"#utility.yul\":1129:1136   */\n      dup5\n        /* \"#utility.yul\":1125:1148   */\n      sub\n        /* \"#utility.yul\":1121:1153   */\n      slt\n        /* \"#utility.yul\":1118:1237   */\n      iszero\n      tag_60\n      jumpi\n        /* \"#utility.yul\":1156:1235   */\n      tag_61\n      tag_41\n      jump\t// in\n    tag_61:\n        /* \"#utility.yul\":1118:1237   */\n    tag_60:\n        /* \"#utility.yul\":1276:1277   */\n      0x00\n        /* \"#utility.yul\":1301:1354   */\n      tag_62\n        /* \"#utility.yul\":1346:1353   */\n      dup5\n        /* \"#utility.yul\":1337:1343   */\n      dup3\n        /* \"#utility.yul\":1326:1335   */\n      dup6\n        /* \"#utility.yul\":1322:1344   */\n      add\n        /* \"#utility.yul\":1301:1354   */\n      tag_44\n      jump\t// in\n    tag_62:\n        /* \"#utility.yul\":1291:1354   */\n      swap2\n      pop\n        /* \"#utility.yul\":1247:1364   */\n      pop\n        /* \"#utility.yul\":1042:1371   */\n      swap3\n      swap2\n      pop\n      pop\n      jump\t// out\n\n    auxdata: 0xa26469706673582212206a5b4f0ae7eae70722819fbe876fe37c25370e0b47b883fff23a58e0594c80d264736f6c63430008150033\n}\n",
				"bytecode": {
					"linkReferences": {},
					"object": "608060405234801561000f575f80fd5b506004805f81905550505f6001819055506102478061002d5f395ff3fe608060405234801561000f575f80fd5b506004361061007b575f3560e01c8063ca08bdcc11610059578063ca08bdcc146100d5578063cd9009e6146100f1578063d0b011211461010f578063ee3c476a1461012d5761007b565b806333bc9c491461007f5780638bbccffb1461009d578063ba9ee1c8146100b9575b5f80fd5b610087610149565b604051610094919061019f565b60405180910390f35b6100b760048036038101906100b291906101e6565b61014f565b005b6100d360048036038101906100ce91906101e6565b610159565b005b6100ef60048036038101906100ea91906101e6565b610163565b005b6100f961016c565b604051610106919061019f565b60405180910390f35b610117610172565b604051610124919061019f565b60405180910390f35b610147600480360381019061014291906101e6565b610177565b005b60015481565b8060018190555050565b8060018190555050565b805f8190555050565b60025481565b5f5481565b805f819055508060018190555050565b5f819050919050565b61019981610187565b82525050565b5f6020820190506101b25f830184610190565b92915050565b5f80fd5b6101c581610187565b81146101cf575f80fd5b50565b5f813590506101e0816101bc565b92915050565b5f602082840312156101fb576101fa6101b8565b5b5f610208848285016101d2565b9150509291505056fea26469706673582212206a5b4f0ae7eae70722819fbe876fe37c25370e0b47b883fff23a58e0594c80d264736f6c63430008150033",
					"opcodes": "PUSH1 0x80 PUSH1 0x40 MSTORE CALLVALUE DUP1 ISZERO PUSH2 0xF JUMPI PUSH0 DUP1 REVERT JUMPDEST POP PUSH1 0x4 DUP1 PUSH0 DUP2 SWAP1 SSTORE POP POP PUSH0 PUSH1 0x1 DUP2 SWAP1 SSTORE POP PUSH2 0x247 DUP1 PUSH2 0x2D PUSH0 CODECOPY PUSH0 RETURN INVALID PUSH1 0x80 PUSH1 0x40 MSTORE CALLVALUE DUP1 ISZERO PUSH2 0xF JUMPI PUSH0 DUP1 REVERT JUMPDEST POP PUSH1 0x4 CALLDATASIZE LT PUSH2 0x7B JUMPI PUSH0 CALLDATALOAD PUSH1 0xE0 SHR DUP1 PUSH4 0xCA08BDCC GT PUSH2 0x59 JUMPI DUP1 PUSH4 0xCA08BDCC EQ PUSH2 0xD5 JUMPI DUP1 PUSH4 0xCD9009E6 EQ PUSH2 0xF1 JUMPI DUP1 PUSH4 0xD0B01121 EQ PUSH2 0x10F JUMPI DUP1 PUSH4 0xEE3C476A EQ PUSH2 0x12D JUMPI PUSH2 0x7B JUMP JUMPDEST DUP1 PUSH4 0x33BC9C49 EQ PUSH2 0x7F JUMPI DUP1 PUSH4 0x8BBCCFFB EQ PUSH2 0x9D JUMPI DUP1 PUSH4 0xBA9EE1C8 EQ PUSH2 0xB9 JUMPI JUMPDEST PUSH0 DUP1 REVERT JUMPDEST PUSH2 0x87 PUSH2 0x149 JUMP JUMPDEST PUSH1 0x40 MLOAD PUSH2 0x94 SWAP2 SWAP1 PUSH2 0x19F JUMP JUMPDEST PUSH1 0x40 MLOAD DUP1 SWAP2 SUB SWAP1 RETURN JUMPDEST PUSH2 0xB7 PUSH1 0x4 DUP1 CALLDATASIZE SUB DUP2 ADD SWAP1 PUSH2 0xB2 SWAP2 SWAP1 PUSH2 0x1E6 JUMP JUMPDEST PUSH2 0x14F JUMP JUMPDEST STOP JUMPDEST PUSH2 0xD3 PUSH1 0x4 DUP1 CALLDATASIZE SUB DUP2 ADD SWAP1 PUSH2 0xCE SWAP2 SWAP1 PUSH2 0x1E6 JUMP JUMPDEST PUSH2 0x159 JUMP JUMPDEST STOP JUMPDEST PUSH2 0xEF PUSH1 0x4 DUP1 CALLDATASIZE SUB DUP2 ADD SWAP1 PUSH2 0xEA SWAP2 SWAP1 PUSH2 0x1E6 JUMP JUMPDEST PUSH2 0x163 JUMP JUMPDEST STOP JUMPDEST PUSH2 0xF9 PUSH2 0x16C JUMP JUMPDEST PUSH1 0x40 MLOAD PUSH2 0x106 SWAP2 SWAP1 PUSH2 0x19F JUMP JUMPDEST PUSH1 0x40 MLOAD DUP1 SWAP2 SUB SWAP1 RETURN JUMPDEST PUSH2 0x117 PUSH2 0x172 JUMP JUMPDEST PUSH1 0x40 MLOAD PUSH2 0x124 SWAP2 SWAP1 PUSH2 0x19F JUMP JUMPDEST PUSH1 0x40 MLOAD DUP1 SWAP2 SUB SWAP1 RETURN JUMPDEST PUSH2 0x147 PUSH1 0x4 DUP1 CALLDATASIZE SUB DUP2 ADD SWAP1 PUSH2 0x142 SWAP2 SWAP1 PUSH2 0x1E6 JUMP JUMPDEST PUSH2 0x177 JUMP JUMPDEST STOP JUMPDEST PUSH1 0x1 SLOAD DUP2 JUMP JUMPDEST DUP1 PUSH1 0x1 DUP2 SWAP1 SSTORE POP POP JUMP JUMPDEST DUP1 PUSH1 0x1 DUP2 SWAP1 SSTORE POP POP JUMP JUMPDEST DUP1 PUSH0 DUP2 SWAP1 SSTORE POP POP JUMP JUMPDEST PUSH1 0x2 SLOAD DUP2 JUMP JUMPDEST PUSH0 SLOAD DUP2 JUMP JUMPDEST DUP1 PUSH0 DUP2 SWAP1 SSTORE POP DUP1 PUSH1 0x1 DUP2 SWAP1 SSTORE POP POP JUMP JUMPDEST PUSH0 DUP2 SWAP1 POP SWAP2 SWAP1 POP JUMP JUMPDEST PUSH2 0x199 DUP2 PUSH2 0x187 JUMP JUMPDEST DUP3 MSTORE POP POP JUMP JUMPDEST PUSH0 PUSH1 0x20 DUP3 ADD SWAP1 POP PUSH2 0x1B2 PUSH0 DUP4 ADD DUP5 PUSH2 0x190 JUMP JUMPDEST SWAP3 SWAP2 POP POP JUMP JUMPDEST PUSH0 DUP1 REVERT JUMPDEST PUSH2 0x1C5 DUP2 PUSH2 0x187 JUMP JUMPDEST DUP2 EQ PUSH2 0x1CF JUMPI PUSH0 DUP1 REVERT JUMPDEST POP JUMP JUMPDEST PUSH0 DUP2 CALLDATALOAD SWAP1 POP PUSH2 0x1E0 DUP2 PUSH2 0x1BC JUMP JUMPDEST SWAP3 SWAP2 POP POP JUMP JUMPDEST PUSH0 PUSH1 0x20 DUP3 DUP5 SUB SLT ISZERO PUSH2 0x1FB JUMPI PUSH2 0x1FA PUSH2 0x1B8 JUMP JUMPDEST JUMPDEST PUSH0 PUSH2 0x208 DUP5 DUP3 DUP6 ADD PUSH2 0x1D2 JUMP JUMPDEST SWAP2 POP POP SWAP3 SWAP2 POP POP JUMP INVALID LOG2 PUSH5 0x6970667358 0x22 SLT KECCAK256 PUSH11 0x5B4F0AE7EAE70722819FBE DUP8 PUSH16 0xE37C25370E0B47B883FFF23A58E0594C DUP1 0xD2 PUSH5 0x736F6C6343 STOP ADDMOD ISZERO STOP CALLER "
				},
				"gasEstimates": {
					"creation": {
						"codeDepositCost": "116600",
						"executionCost": "27294",
						"totalCost": "143894"
					},
					"external": {
						"child_setNum(uint256)": "44694",
						"override_able_func(uint256)": "22538",
						"setMother_uint(uint256)": "22560",
						"setfather_uint(uint256)": "22514",
						"uint_child()": "2447",
						"uint_father()": "2468",
						"uint_mother()": "2426"
					}
				},
				"methodIdentifiers": {
					"child_setNum(uint256)": "ee3c476a",
					"override_able_func(uint256)": "8bbccffb",
					"setMother_uint(uint256)": "ba9ee1c8",
					"setfather_uint(uint256)": "ca08bdcc",
					"uint_child()": "cd9009e6",
					"uint_father()": "d0b01121",
					"uint_mother()": "33bc9c49"
				}
			},
			"storageLayout": {
				"storage": [
					{
						"astId": 3,
						"contract": "Contracts/Inheritance_1.sol:Child",
						"label": "uint_father",
						"offset": 0,
						"slot": "0",
						"type": "t_uint256"
					},
					{
						"astId": 36,
						"contract": "Contracts/Inheritance_1.sol:Child",
						"label": "uint_mother",
						"offset": 0,
						"slot": "1",
						"type": "t_uint256"
					},
					{
						"astId": 71,
						"contract": "Contracts/Inheritance_1.sol:Child",
						"label": "uint_child",
						"offset": 0,
						"slot": "2",
						"type": "t_uint256"
					}
				],
				"types": {
					"t_uint256": {
						"encoding": "inplace",
						"label": "uint256",
						"numberOfBytes": "32"
					}
				}
			},
			"userdoc": {
				"kind": "user",
				"methods": {},
				"version": 1
			}
		}
	}
}