{
	"Contracts/checked_Unchecked_Arithmatic.sol": {
		"Checked": {
			"abi": [
				{
					"inputs": [],
					"name": "checkedAdd",
					"outputs": [
						{
							"internalType": "uint256",
							"name": "",
							"type": "uint256"
						}
					],
					"stateMutability": "pure",
					"type": "function"
				},
				{
					"inputs": [],
					"name": "checkedDivision",
					"outputs": [
						{
							"internalType": "int256",
							"name": "",
							"type": "int256"
						}
					],
					"stateMutability": "pure",
					"type": "function"
				},
				{
					"inputs": [],
					"name": "checkedSub",
					"outputs": [
						{
							"internalType": "uint256",
							"name": "",
							"type": "uint256"
						}
					],
					"stateMutability": "pure",
					"type": "function"
				},
				{
					"inputs": [],
					"name": "max_int",
					"outputs": [
						{
							"internalType": "int256",
							"name": "",
							"type": "int256"
						}
					],
					"stateMutability": "view",
					"type": "function"
				},
				{
					"inputs": [],
					"name": "max_uint",
					"outputs": [
						{
							"internalType": "uint256",
							"name": "",
							"type": "uint256"
						}
					],
					"stateMutability": "view",
					"type": "function"
				},
				{
					"inputs": [],
					"name": "min_int",
					"outputs": [
						{
							"internalType": "int256",
							"name": "",
							"type": "int256"
						}
					],
					"stateMutability": "view",
					"type": "function"
				},
				{
					"inputs": [],
					"name": "min_uint",
					"outputs": [
						{
							"internalType": "uint256",
							"name": "",
							"type": "uint256"
						}
					],
					"stateMutability": "view",
					"type": "function"
				},
				{
					"inputs": [],
					"name": "unCheckedAdd",
					"outputs": [
						{
							"internalType": "uint256",
							"name": "",
							"type": "uint256"
						}
					],
					"stateMutability": "pure",
					"type": "function"
				},
				{
					"inputs": [],
					"name": "unCheckedDivision",
					"outputs": [
						{
							"internalType": "int256",
							"name": "",
							"type": "int256"
						}
					],
					"stateMutability": "pure",
					"type": "function"
				},
				{
					"inputs": [],
					"name": "unCheckedSub",
					"outputs": [
						{
							"internalType": "uint256",
							"name": "",
							"type": "uint256"
						}
					],
					"stateMutability": "pure",
					"type": "function"
				}
			],
			"devdoc": {
				"kind": "dev",
				"methods": {},
				"version": 1
			},
			"evm": {
				"assembly": "    /* \"Contracts/checked_Unchecked_Arithmatic.sol\":57:1519  contract Checked {... */\n  mstore(0x40, 0x80)\n    /* \"Contracts/checked_Unchecked_Arithmatic.sol\":106:123  type(uint256).max */\n  0xffffffffffffffffffffffffffffffffffffffffffffffffffffffffffffffff\n    /* \"Contracts/checked_Unchecked_Arithmatic.sol\":80:123  uint256 public max_uint = type(uint256).max */\n  0x00\n  sstore\n    /* \"Contracts/checked_Unchecked_Arithmatic.sol\":155:172  type(uint256).min */\n  0x00\n    /* \"Contracts/checked_Unchecked_Arithmatic.sol\":129:172  uint256 public min_uint = type(uint256).min */\n  0x01\n  sstore\n    /* \"Contracts/checked_Unchecked_Arithmatic.sol\":202:218  type(int256).min */\n  0x8000000000000000000000000000000000000000000000000000000000000000\n    /* \"Contracts/checked_Unchecked_Arithmatic.sol\":178:218  int256 public min_int = type(int256).min */\n  0x02\n  sstore\n    /* \"Contracts/checked_Unchecked_Arithmatic.sol\":248:264  type(int256).max */\n  0x7fffffffffffffffffffffffffffffffffffffffffffffffffffffffffffffff\n    /* \"Contracts/checked_Unchecked_Arithmatic.sol\":224:264  int256 public max_int = type(int256).max */\n  0x03\n  sstore\n    /* \"Contracts/checked_Unchecked_Arithmatic.sol\":57:1519  contract Checked {... */\n  callvalue\n  dup1\n  iszero\n  tag_1\n  jumpi\n  0x00\n  dup1\n  revert\ntag_1:\n  pop\n  dataSize(sub_0)\n  dup1\n  dataOffset(sub_0)\n  0x00\n  codecopy\n  0x00\n  return\nstop\n\nsub_0: assembly {\n        /* \"Contracts/checked_Unchecked_Arithmatic.sol\":57:1519  contract Checked {... */\n      mstore(0x40, 0x80)\n      callvalue\n      dup1\n      iszero\n      tag_1\n      jumpi\n      0x00\n      dup1\n      revert\n    tag_1:\n      pop\n      jumpi(tag_2, lt(calldatasize, 0x04))\n      shr(0xe0, calldataload(0x00))\n      dup1\n      0xbaf880d0\n      gt\n      tag_13\n      jumpi\n      dup1\n      0xbaf880d0\n      eq\n      tag_8\n      jumpi\n      dup1\n      0xda2e1dfa\n      eq\n      tag_9\n      jumpi\n      dup1\n      0xf6c5d864\n      eq\n      tag_10\n      jumpi\n      dup1\n      0xf738bfad\n      eq\n      tag_11\n      jumpi\n      dup1\n      0xf8d765f9\n      eq\n      tag_12\n      jumpi\n      jump(tag_2)\n    tag_13:\n      dup1\n      0x55ef6583\n      eq\n      tag_3\n      jumpi\n      dup1\n      0x6890f11e\n      eq\n      tag_4\n      jumpi\n      dup1\n      0x8cf74b8b\n      eq\n      tag_5\n      jumpi\n      dup1\n      0xa35ea154\n      eq\n      tag_6\n      jumpi\n      dup1\n      0xa4bbf363\n      eq\n      tag_7\n      jumpi\n    tag_2:\n      0x00\n      dup1\n      revert\n        /* \"Contracts/checked_Unchecked_Arithmatic.sol\":481:725  function checkedDivision() external pure returns (int256) {... */\n    tag_3:\n      tag_14\n      tag_15\n      jump\t// in\n    tag_14:\n      mload(0x40)\n      tag_16\n      swap2\n      swap1\n      tag_17\n      jump\t// in\n    tag_16:\n      mload(0x40)\n      dup1\n      swap2\n      sub\n      swap1\n      return\n        /* \"Contracts/checked_Unchecked_Arithmatic.sol\":731:995  function unCheckedAdd() external pure returns (uint256) {... */\n    tag_4:\n      tag_18\n      tag_19\n      jump\t// in\n    tag_18:\n      mload(0x40)\n      tag_20\n      swap2\n      swap1\n      tag_21\n      jump\t// in\n    tag_20:\n      mload(0x40)\n      dup1\n      swap2\n      sub\n      swap1\n      return\n        /* \"Contracts/checked_Unchecked_Arithmatic.sol\":129:172  uint256 public min_uint = type(uint256).min */\n    tag_5:\n      tag_22\n      tag_23\n      jump\t// in\n    tag_22:\n      mload(0x40)\n      tag_24\n      swap2\n      swap1\n      tag_21\n      jump\t// in\n    tag_24:\n      mload(0x40)\n      dup1\n      swap2\n      sub\n      swap1\n      return\n        /* \"Contracts/checked_Unchecked_Arithmatic.sol\":1001:1261  function unCheckedSub() external pure returns (uint256) {... */\n    tag_6:\n      tag_25\n      tag_26\n      jump\t// in\n    tag_25:\n      mload(0x40)\n      tag_27\n      swap2\n      swap1\n      tag_21\n      jump\t// in\n    tag_27:\n      mload(0x40)\n      dup1\n      swap2\n      sub\n      swap1\n      return\n        /* \"Contracts/checked_Unchecked_Arithmatic.sol\":80:123  uint256 public max_uint = type(uint256).max */\n    tag_7:\n      tag_28\n      tag_29\n      jump\t// in\n    tag_28:\n      mload(0x40)\n      tag_30\n      swap2\n      swap1\n      tag_21\n      jump\t// in\n    tag_30:\n      mload(0x40)\n      dup1\n      swap2\n      sub\n      swap1\n      return\n        /* \"Contracts/checked_Unchecked_Arithmatic.sol\":178:218  int256 public min_int = type(int256).min */\n    tag_8:\n      tag_31\n      tag_32\n      jump\t// in\n    tag_31:\n      mload(0x40)\n      tag_33\n      swap2\n      swap1\n      tag_17\n      jump\t// in\n    tag_33:\n      mload(0x40)\n      dup1\n      swap2\n      sub\n      swap1\n      return\n        /* \"Contracts/checked_Unchecked_Arithmatic.sol\":376:475  function checkedSub() external pure returns (uint256) {... */\n    tag_9:\n      tag_34\n      tag_35\n      jump\t// in\n    tag_34:\n      mload(0x40)\n      tag_36\n      swap2\n      swap1\n      tag_21\n      jump\t// in\n    tag_36:\n      mload(0x40)\n      dup1\n      swap2\n      sub\n      swap1\n      return\n        /* \"Contracts/checked_Unchecked_Arithmatic.sol\":271:370  function checkedAdd() external pure returns (uint256) {... */\n    tag_10:\n      tag_37\n      tag_38\n      jump\t// in\n    tag_37:\n      mload(0x40)\n      tag_39\n      swap2\n      swap1\n      tag_21\n      jump\t// in\n    tag_39:\n      mload(0x40)\n      dup1\n      swap2\n      sub\n      swap1\n      return\n        /* \"Contracts/checked_Unchecked_Arithmatic.sol\":224:264  int256 public max_int = type(int256).max */\n    tag_11:\n      tag_40\n      tag_41\n      jump\t// in\n    tag_40:\n      mload(0x40)\n      tag_42\n      swap2\n      swap1\n      tag_17\n      jump\t// in\n    tag_42:\n      mload(0x40)\n      dup1\n      swap2\n      sub\n      swap1\n      return\n        /* \"Contracts/checked_Unchecked_Arithmatic.sol\":1267:1517  function unCheckedDivision() external pure returns (int256) {... */\n    tag_12:\n      tag_43\n      tag_44\n      jump\t// in\n    tag_43:\n      mload(0x40)\n      tag_45\n      swap2\n      swap1\n      tag_17\n      jump\t// in\n    tag_45:\n      mload(0x40)\n      dup1\n      swap2\n      sub\n      swap1\n      return\n        /* \"Contracts/checked_Unchecked_Arithmatic.sol\":481:725  function checkedDivision() external pure returns (int256) {... */\n    tag_15:\n        /* \"Contracts/checked_Unchecked_Arithmatic.sol\":531:537  int256 */\n      0x00\n        /* \"Contracts/checked_Unchecked_Arithmatic.sol\":716:718  -1 */\n      0xffffffffffffffffffffffffffffffffffffffffffffffffffffffffffffffff\n        /* \"Contracts/checked_Unchecked_Arithmatic.sol\":697:713  type(int256).min */\n      0x8000000000000000000000000000000000000000000000000000000000000000\n        /* \"Contracts/checked_Unchecked_Arithmatic.sol\":697:718  type(int256).min / -1 */\n      tag_47\n      swap2\n      swap1\n      tag_48\n      jump\t// in\n    tag_47:\n        /* \"Contracts/checked_Unchecked_Arithmatic.sol\":690:718  return type(int256).min / -1 */\n      swap1\n      pop\n        /* \"Contracts/checked_Unchecked_Arithmatic.sol\":481:725  function checkedDivision() external pure returns (int256) {... */\n      swap1\n      jump\t// out\n        /* \"Contracts/checked_Unchecked_Arithmatic.sol\":731:995  function unCheckedAdd() external pure returns (uint256) {... */\n    tag_19:\n        /* \"Contracts/checked_Unchecked_Arithmatic.sol\":778:785  uint256 */\n      0x00\n        /* \"Contracts/checked_Unchecked_Arithmatic.sol\":977:978  1 */\n      0x01\n        /* \"Contracts/checked_Unchecked_Arithmatic.sol\":957:974  type(uint256).max */\n      0xffffffffffffffffffffffffffffffffffffffffffffffffffffffffffffffff\n        /* \"Contracts/checked_Unchecked_Arithmatic.sol\":957:978  type(uint256).max + 1 */\n      add\n        /* \"Contracts/checked_Unchecked_Arithmatic.sol\":950:978  return type(uint256).max + 1 */\n      swap1\n      pop\n        /* \"Contracts/checked_Unchecked_Arithmatic.sol\":731:995  function unCheckedAdd() external pure returns (uint256) {... */\n      swap1\n      jump\t// out\n        /* \"Contracts/checked_Unchecked_Arithmatic.sol\":129:172  uint256 public min_uint = type(uint256).min */\n    tag_23:\n      sload(0x01)\n      dup2\n      jump\t// out\n        /* \"Contracts/checked_Unchecked_Arithmatic.sol\":1001:1261  function unCheckedSub() external pure returns (uint256) {... */\n    tag_26:\n        /* \"Contracts/checked_Unchecked_Arithmatic.sol\":1048:1055  uint256 */\n      0x00\n        /* \"Contracts/checked_Unchecked_Arithmatic.sol\":1243:1244  1 */\n      0x01\n        /* \"Contracts/checked_Unchecked_Arithmatic.sol\":1223:1240  type(uint256).min */\n      0x00\n        /* \"Contracts/checked_Unchecked_Arithmatic.sol\":1223:1244  type(uint256).min - 1 */\n      sub\n        /* \"Contracts/checked_Unchecked_Arithmatic.sol\":1216:1244  return type(uint256).min - 1 */\n      swap1\n      pop\n        /* \"Contracts/checked_Unchecked_Arithmatic.sol\":1001:1261  function unCheckedSub() external pure returns (uint256) {... */\n      swap1\n      jump\t// out\n        /* \"Contracts/checked_Unchecked_Arithmatic.sol\":80:123  uint256 public max_uint = type(uint256).max */\n    tag_29:\n      sload(0x00)\n      dup2\n      jump\t// out\n        /* \"Contracts/checked_Unchecked_Arithmatic.sol\":178:218  int256 public min_int = type(int256).min */\n    tag_32:\n      sload(0x02)\n      dup2\n      jump\t// out\n        /* \"Contracts/checked_Unchecked_Arithmatic.sol\":376:475  function checkedSub() external pure returns (uint256) {... */\n    tag_35:\n        /* \"Contracts/checked_Unchecked_Arithmatic.sol\":421:428  uint256 */\n      0x00\n        /* \"Contracts/checked_Unchecked_Arithmatic.sol\":467:468  1 */\n      0x01\n        /* \"Contracts/checked_Unchecked_Arithmatic.sol\":447:464  type(uint256).min */\n      0x00\n        /* \"Contracts/checked_Unchecked_Arithmatic.sol\":447:468  type(uint256).min - 1 */\n      tag_52\n      swap2\n      swap1\n      tag_53\n      jump\t// in\n    tag_52:\n        /* \"Contracts/checked_Unchecked_Arithmatic.sol\":440:468  return type(uint256).min - 1 */\n      swap1\n      pop\n        /* \"Contracts/checked_Unchecked_Arithmatic.sol\":376:475  function checkedSub() external pure returns (uint256) {... */\n      swap1\n      jump\t// out\n        /* \"Contracts/checked_Unchecked_Arithmatic.sol\":271:370  function checkedAdd() external pure returns (uint256) {... */\n    tag_38:\n        /* \"Contracts/checked_Unchecked_Arithmatic.sol\":316:323  uint256 */\n      0x00\n        /* \"Contracts/checked_Unchecked_Arithmatic.sol\":362:363  1 */\n      0x01\n        /* \"Contracts/checked_Unchecked_Arithmatic.sol\":342:359  type(uint256).max */\n      0xffffffffffffffffffffffffffffffffffffffffffffffffffffffffffffffff\n        /* \"Contracts/checked_Unchecked_Arithmatic.sol\":342:363  type(uint256).max + 1 */\n      tag_55\n      swap2\n      swap1\n      tag_56\n      jump\t// in\n    tag_55:\n        /* \"Contracts/checked_Unchecked_Arithmatic.sol\":335:363  return type(uint256).max + 1 */\n      swap1\n      pop\n        /* \"Contracts/checked_Unchecked_Arithmatic.sol\":271:370  function checkedAdd() external pure returns (uint256) {... */\n      swap1\n      jump\t// out\n        /* \"Contracts/checked_Unchecked_Arithmatic.sol\":224:264  int256 public max_int = type(int256).max */\n    tag_41:\n      sload(0x03)\n      dup2\n      jump\t// out\n        /* \"Contracts/checked_Unchecked_Arithmatic.sol\":1267:1517  function unCheckedDivision() external pure returns (int256) {... */\n    tag_44:\n        /* \"Contracts/checked_Unchecked_Arithmatic.sol\":1319:1325  int256 */\n      0x00\n        /* \"Contracts/checked_Unchecked_Arithmatic.sol\":1498:1500  -1 */\n      0xffffffffffffffffffffffffffffffffffffffffffffffffffffffffffffffff\n        /* \"Contracts/checked_Unchecked_Arithmatic.sol\":1479:1495  type(int256).min */\n      0x8000000000000000000000000000000000000000000000000000000000000000\n        /* \"Contracts/checked_Unchecked_Arithmatic.sol\":1479:1500  type(int256).min / -1 */\n      dup2\n      tag_58\n      jumpi\n      tag_59\n      tag_60\n      jump\t// in\n    tag_59:\n    tag_58:\n      sdiv\n        /* \"Contracts/checked_Unchecked_Arithmatic.sol\":1472:1500  return type(int256).min / -1 */\n      swap1\n      pop\n        /* \"Contracts/checked_Unchecked_Arithmatic.sol\":1267:1517  function unCheckedDivision() external pure returns (int256) {... */\n      swap1\n      jump\t// out\n        /* \"#utility.yul\":7:83   */\n    tag_61:\n        /* \"#utility.yul\":43:50   */\n      0x00\n        /* \"#utility.yul\":72:77   */\n      dup2\n        /* \"#utility.yul\":61:77   */\n      swap1\n      pop\n        /* \"#utility.yul\":7:83   */\n      swap2\n      swap1\n      pop\n      jump\t// out\n        /* \"#utility.yul\":89:204   */\n    tag_62:\n        /* \"#utility.yul\":174:197   */\n      tag_69\n        /* \"#utility.yul\":191:196   */\n      dup2\n        /* \"#utility.yul\":174:197   */\n      tag_61\n      jump\t// in\n    tag_69:\n        /* \"#utility.yul\":169:172   */\n      dup3\n        /* \"#utility.yul\":162:198   */\n      mstore\n        /* \"#utility.yul\":89:204   */\n      pop\n      pop\n      jump\t// out\n        /* \"#utility.yul\":210:428   */\n    tag_17:\n        /* \"#utility.yul\":301:305   */\n      0x00\n        /* \"#utility.yul\":339:341   */\n      0x20\n        /* \"#utility.yul\":328:337   */\n      dup3\n        /* \"#utility.yul\":324:342   */\n      add\n        /* \"#utility.yul\":316:342   */\n      swap1\n      pop\n        /* \"#utility.yul\":352:421   */\n      tag_71\n        /* \"#utility.yul\":418:419   */\n      0x00\n        /* \"#utility.yul\":407:416   */\n      dup4\n        /* \"#utility.yul\":403:420   */\n      add\n        /* \"#utility.yul\":394:400   */\n      dup5\n        /* \"#utility.yul\":352:421   */\n      tag_62\n      jump\t// in\n    tag_71:\n        /* \"#utility.yul\":210:428   */\n      swap3\n      swap2\n      pop\n      pop\n      jump\t// out\n        /* \"#utility.yul\":434:511   */\n    tag_63:\n        /* \"#utility.yul\":471:478   */\n      0x00\n        /* \"#utility.yul\":500:505   */\n      dup2\n        /* \"#utility.yul\":489:505   */\n      swap1\n      pop\n        /* \"#utility.yul\":434:511   */\n      swap2\n      swap1\n      pop\n      jump\t// out\n        /* \"#utility.yul\":517:635   */\n    tag_64:\n        /* \"#utility.yul\":604:628   */\n      tag_74\n        /* \"#utility.yul\":622:627   */\n      dup2\n        /* \"#utility.yul\":604:628   */\n      tag_63\n      jump\t// in\n    tag_74:\n        /* \"#utility.yul\":599:602   */\n      dup3\n        /* \"#utility.yul\":592:629   */\n      mstore\n        /* \"#utility.yul\":517:635   */\n      pop\n      pop\n      jump\t// out\n        /* \"#utility.yul\":641:863   */\n    tag_21:\n        /* \"#utility.yul\":734:738   */\n      0x00\n        /* \"#utility.yul\":772:774   */\n      0x20\n        /* \"#utility.yul\":761:770   */\n      dup3\n        /* \"#utility.yul\":757:775   */\n      add\n        /* \"#utility.yul\":749:775   */\n      swap1\n      pop\n        /* \"#utility.yul\":785:856   */\n      tag_76\n        /* \"#utility.yul\":853:854   */\n      0x00\n        /* \"#utility.yul\":842:851   */\n      dup4\n        /* \"#utility.yul\":838:855   */\n      add\n        /* \"#utility.yul\":829:835   */\n      dup5\n        /* \"#utility.yul\":785:856   */\n      tag_64\n      jump\t// in\n    tag_76:\n        /* \"#utility.yul\":641:863   */\n      swap3\n      swap2\n      pop\n      pop\n      jump\t// out\n        /* \"#utility.yul\":869:1049   */\n    tag_60:\n        /* \"#utility.yul\":917:994   */\n      0x4e487b7100000000000000000000000000000000000000000000000000000000\n        /* \"#utility.yul\":914:915   */\n      0x00\n        /* \"#utility.yul\":907:995   */\n      mstore\n        /* \"#utility.yul\":1014:1018   */\n      0x12\n        /* \"#utility.yul\":1011:1012   */\n      0x04\n        /* \"#utility.yul\":1004:1019   */\n      mstore\n        /* \"#utility.yul\":1038:1042   */\n      0x24\n        /* \"#utility.yul\":1035:1036   */\n      0x00\n        /* \"#utility.yul\":1028:1043   */\n      revert\n        /* \"#utility.yul\":1055:1235   */\n    tag_65:\n        /* \"#utility.yul\":1103:1180   */\n      0x4e487b7100000000000000000000000000000000000000000000000000000000\n        /* \"#utility.yul\":1100:1101   */\n      0x00\n        /* \"#utility.yul\":1093:1181   */\n      mstore\n        /* \"#utility.yul\":1200:1204   */\n      0x11\n        /* \"#utility.yul\":1197:1198   */\n      0x04\n        /* \"#utility.yul\":1190:1205   */\n      mstore\n        /* \"#utility.yul\":1224:1228   */\n      0x24\n        /* \"#utility.yul\":1221:1222   */\n      0x00\n        /* \"#utility.yul\":1214:1229   */\n      revert\n        /* \"#utility.yul\":1241:1626   */\n    tag_48:\n        /* \"#utility.yul\":1280:1281   */\n      0x00\n        /* \"#utility.yul\":1297:1316   */\n      tag_80\n        /* \"#utility.yul\":1314:1315   */\n      dup3\n        /* \"#utility.yul\":1297:1316   */\n      tag_61\n      jump\t// in\n    tag_80:\n        /* \"#utility.yul\":1292:1316   */\n      swap2\n      pop\n        /* \"#utility.yul\":1330:1349   */\n      tag_81\n        /* \"#utility.yul\":1347:1348   */\n      dup4\n        /* \"#utility.yul\":1330:1349   */\n      tag_61\n      jump\t// in\n    tag_81:\n        /* \"#utility.yul\":1325:1349   */\n      swap3\n      pop\n        /* \"#utility.yul\":1368:1369   */\n      dup3\n        /* \"#utility.yul\":1358:1393   */\n      tag_82\n      jumpi\n        /* \"#utility.yul\":1373:1391   */\n      tag_83\n      tag_60\n      jump\t// in\n    tag_83:\n        /* \"#utility.yul\":1358:1393   */\n    tag_82:\n        /* \"#utility.yul\":1559:1560   */\n      0x01\n        /* \"#utility.yul\":1556:1557   */\n      0x00\n        /* \"#utility.yul\":1552:1561   */\n      sub\n        /* \"#utility.yul\":1549:1550   */\n      dup4\n        /* \"#utility.yul\":1546:1562   */\n      eq\n        /* \"#utility.yul\":1465:1531   */\n      0x8000000000000000000000000000000000000000000000000000000000000000\n        /* \"#utility.yul\":1462:1463   */\n      dup4\n        /* \"#utility.yul\":1459:1532   */\n      eq\n        /* \"#utility.yul\":1442:1572   */\n      and\n        /* \"#utility.yul\":1439:1595   */\n      iszero\n      tag_84\n      jumpi\n        /* \"#utility.yul\":1575:1593   */\n      tag_85\n      tag_65\n      jump\t// in\n    tag_85:\n        /* \"#utility.yul\":1439:1595   */\n    tag_84:\n        /* \"#utility.yul\":1618:1619   */\n      dup3\n        /* \"#utility.yul\":1615:1616   */\n      dup3\n        /* \"#utility.yul\":1610:1620   */\n      sdiv\n        /* \"#utility.yul\":1605:1620   */\n      swap1\n      pop\n        /* \"#utility.yul\":1241:1626   */\n      swap3\n      swap2\n      pop\n      pop\n      jump\t// out\n        /* \"#utility.yul\":1632:1826   */\n    tag_53:\n        /* \"#utility.yul\":1672:1676   */\n      0x00\n        /* \"#utility.yul\":1692:1712   */\n      tag_87\n        /* \"#utility.yul\":1710:1711   */\n      dup3\n        /* \"#utility.yul\":1692:1712   */\n      tag_63\n      jump\t// in\n    tag_87:\n        /* \"#utility.yul\":1687:1712   */\n      swap2\n      pop\n        /* \"#utility.yul\":1726:1746   */\n      tag_88\n        /* \"#utility.yul\":1744:1745   */\n      dup4\n        /* \"#utility.yul\":1726:1746   */\n      tag_63\n      jump\t// in\n    tag_88:\n        /* \"#utility.yul\":1721:1746   */\n      swap3\n      pop\n        /* \"#utility.yul\":1770:1771   */\n      dup3\n        /* \"#utility.yul\":1767:1768   */\n      dup3\n        /* \"#utility.yul\":1763:1772   */\n      sub\n        /* \"#utility.yul\":1755:1772   */\n      swap1\n      pop\n        /* \"#utility.yul\":1794:1795   */\n      dup2\n        /* \"#utility.yul\":1788:1792   */\n      dup2\n        /* \"#utility.yul\":1785:1796   */\n      gt\n        /* \"#utility.yul\":1782:1819   */\n      iszero\n      tag_89\n      jumpi\n        /* \"#utility.yul\":1799:1817   */\n      tag_90\n      tag_65\n      jump\t// in\n    tag_90:\n        /* \"#utility.yul\":1782:1819   */\n    tag_89:\n        /* \"#utility.yul\":1632:1826   */\n      swap3\n      swap2\n      pop\n      pop\n      jump\t// out\n        /* \"#utility.yul\":1832:2023   */\n    tag_56:\n        /* \"#utility.yul\":1872:1875   */\n      0x00\n        /* \"#utility.yul\":1891:1911   */\n      tag_92\n        /* \"#utility.yul\":1909:1910   */\n      dup3\n        /* \"#utility.yul\":1891:1911   */\n      tag_63\n      jump\t// in\n    tag_92:\n        /* \"#utility.yul\":1886:1911   */\n      swap2\n      pop\n        /* \"#utility.yul\":1925:1945   */\n      tag_93\n        /* \"#utility.yul\":1943:1944   */\n      dup4\n        /* \"#utility.yul\":1925:1945   */\n      tag_63\n      jump\t// in\n    tag_93:\n        /* \"#utility.yul\":1920:1945   */\n      swap3\n      pop\n        /* \"#utility.yul\":1968:1969   */\n      dup3\n        /* \"#utility.yul\":1965:1966   */\n      dup3\n        /* \"#utility.yul\":1961:1970   */\n      add\n        /* \"#utility.yul\":1954:1970   */\n      swap1\n      pop\n        /* \"#utility.yul\":1989:1992   */\n      dup1\n        /* \"#utility.yul\":1986:1987   */\n      dup3\n        /* \"#utility.yul\":1983:1993   */\n      gt\n        /* \"#utility.yul\":1980:2016   */\n      iszero\n      tag_94\n      jumpi\n        /* \"#utility.yul\":1996:2014   */\n      tag_95\n      tag_65\n      jump\t// in\n    tag_95:\n        /* \"#utility.yul\":1980:2016   */\n    tag_94:\n        /* \"#utility.yul\":1832:2023   */\n      swap3\n      swap2\n      pop\n      pop\n      jump\t// out\n\n    auxdata: 0xa2646970667358221220df5bb8789a3cc21daf61154874b952f2255c392c18f4f05d7933f7a55d2ce6c464736f6c63430008150033\n}\n",
				"bytecode": {
					"linkReferences": {},
					"object": "60806040527fffffffffffffffffffffffffffffffffffffffffffffffffffffffffffffffff5f555f6001557f80000000000000000000000000000000000000000000000000000000000000006002557f7fffffffffffffffffffffffffffffffffffffffffffffffffffffffffffffff60035534801561007e575f80fd5b506104c68061008c5f395ff3fe608060405234801561000f575f80fd5b506004361061009c575f3560e01c8063baf880d011610064578063baf880d014610136578063da2e1dfa14610154578063f6c5d86414610172578063f738bfad14610190578063f8d765f9146101ae5761009c565b806355ef6583146100a05780636890f11e146100be5780638cf74b8b146100dc578063a35ea154146100fa578063a4bbf36314610118575b5f80fd5b6100a86101cc565b6040516100b5919061031e565b60405180910390f35b6100c661021e565b6040516100d3919061034f565b60405180910390f35b6100e4610248565b6040516100f1919061034f565b60405180910390f35b61010261024e565b60405161010f919061034f565b60405180910390f35b610120610258565b60405161012d919061034f565b60405180910390f35b61013e61025d565b60405161014b919061031e565b60405180910390f35b61015c610263565b604051610169919061034f565b60405180910390f35b61017a610276565b604051610187919061034f565b60405180910390f35b6101986102a9565b6040516101a5919061031e565b60405180910390f35b6101b66102af565b6040516101c3919061031e565b60405180910390f35b5f7fffffffffffffffffffffffffffffffffffffffffffffffffffffffffffffffff7f800000000000000000000000000000000000000000000000000000000000000061021991906103c2565b905090565b5f60017fffffffffffffffffffffffffffffffffffffffffffffffffffffffffffffffff01905090565b60015481565b5f60015f03905090565b5f5481565b60025481565b5f60015f610271919061042a565b905090565b5f60017fffffffffffffffffffffffffffffffffffffffffffffffffffffffffffffffff6102a4919061045d565b905090565b60035481565b5f7fffffffffffffffffffffffffffffffffffffffffffffffffffffffffffffffff7f800000000000000000000000000000000000000000000000000000000000000081610300576102ff610368565b5b05905090565b5f819050919050565b61031881610306565b82525050565b5f6020820190506103315f83018461030f565b92915050565b5f819050919050565b61034981610337565b82525050565b5f6020820190506103625f830184610340565b92915050565b7f4e487b71000000000000000000000000000000000000000000000000000000005f52601260045260245ffd5b7f4e487b71000000000000000000000000000000000000000000000000000000005f52601160045260245ffd5b5f6103cc82610306565b91506103d783610306565b9250826103e7576103e6610368565b5b60015f0383147f80000000000000000000000000000000000000000000000000000000000000008314161561041f5761041e610395565b5b828205905092915050565b5f61043482610337565b915061043f83610337565b925082820390508181111561045757610456610395565b5b92915050565b5f61046782610337565b915061047283610337565b925082820190508082111561048a57610489610395565b5b9291505056fea2646970667358221220df5bb8789a3cc21daf61154874b952f2255c392c18f4f05d7933f7a55d2ce6c464736f6c63430008150033",
					"opcodes": "PUSH1 0x80 PUSH1 0x40 MSTORE PUSH32 0xFFFFFFFFFFFFFFFFFFFFFFFFFFFFFFFFFFFFFFFFFFFFFFFFFFFFFFFFFFFFFFFF PUSH0 SSTORE PUSH0 PUSH1 0x1 SSTORE PUSH32 0x8000000000000000000000000000000000000000000000000000000000000000 PUSH1 0x2 SSTORE PUSH32 0x7FFFFFFFFFFFFFFFFFFFFFFFFFFFFFFFFFFFFFFFFFFFFFFFFFFFFFFFFFFFFFFF PUSH1 0x3 SSTORE CALLVALUE DUP1 ISZERO PUSH2 0x7E JUMPI PUSH0 DUP1 REVERT JUMPDEST POP PUSH2 0x4C6 DUP1 PUSH2 0x8C PUSH0 CODECOPY PUSH0 RETURN INVALID PUSH1 0x80 PUSH1 0x40 MSTORE CALLVALUE DUP1 ISZERO PUSH2 0xF JUMPI PUSH0 DUP1 REVERT JUMPDEST POP PUSH1 0x4 CALLDATASIZE LT PUSH2 0x9C JUMPI PUSH0 CALLDATALOAD PUSH1 0xE0 SHR DUP1 PUSH4 0xBAF880D0 GT PUSH2 0x64 JUMPI DUP1 PUSH4 0xBAF880D0 EQ PUSH2 0x136 JUMPI DUP1 PUSH4 0xDA2E1DFA EQ PUSH2 0x154 JUMPI DUP1 PUSH4 0xF6C5D864 EQ PUSH2 0x172 JUMPI DUP1 PUSH4 0xF738BFAD EQ PUSH2 0x190 JUMPI DUP1 PUSH4 0xF8D765F9 EQ PUSH2 0x1AE JUMPI PUSH2 0x9C JUMP JUMPDEST DUP1 PUSH4 0x55EF6583 EQ PUSH2 0xA0 JUMPI DUP1 PUSH4 0x6890F11E EQ PUSH2 0xBE JUMPI DUP1 PUSH4 0x8CF74B8B EQ PUSH2 0xDC JUMPI DUP1 PUSH4 0xA35EA154 EQ PUSH2 0xFA JUMPI DUP1 PUSH4 0xA4BBF363 EQ PUSH2 0x118 JUMPI JUMPDEST PUSH0 DUP1 REVERT JUMPDEST PUSH2 0xA8 PUSH2 0x1CC JUMP JUMPDEST PUSH1 0x40 MLOAD PUSH2 0xB5 SWAP2 SWAP1 PUSH2 0x31E JUMP JUMPDEST PUSH1 0x40 MLOAD DUP1 SWAP2 SUB SWAP1 RETURN JUMPDEST PUSH2 0xC6 PUSH2 0x21E JUMP JUMPDEST PUSH1 0x40 MLOAD PUSH2 0xD3 SWAP2 SWAP1 PUSH2 0x34F JUMP JUMPDEST PUSH1 0x40 MLOAD DUP1 SWAP2 SUB SWAP1 RETURN JUMPDEST PUSH2 0xE4 PUSH2 0x248 JUMP JUMPDEST PUSH1 0x40 MLOAD PUSH2 0xF1 SWAP2 SWAP1 PUSH2 0x34F JUMP JUMPDEST PUSH1 0x40 MLOAD DUP1 SWAP2 SUB SWAP1 RETURN JUMPDEST PUSH2 0x102 PUSH2 0x24E JUMP JUMPDEST PUSH1 0x40 MLOAD PUSH2 0x10F SWAP2 SWAP1 PUSH2 0x34F JUMP JUMPDEST PUSH1 0x40 MLOAD DUP1 SWAP2 SUB SWAP1 RETURN JUMPDEST PUSH2 0x120 PUSH2 0x258 JUMP JUMPDEST PUSH1 0x40 MLOAD PUSH2 0x12D SWAP2 SWAP1 PUSH2 0x34F JUMP JUMPDEST PUSH1 0x40 MLOAD DUP1 SWAP2 SUB SWAP1 RETURN JUMPDEST PUSH2 0x13E PUSH2 0x25D JUMP JUMPDEST PUSH1 0x40 MLOAD PUSH2 0x14B SWAP2 SWAP1 PUSH2 0x31E JUMP JUMPDEST PUSH1 0x40 MLOAD DUP1 SWAP2 SUB SWAP1 RETURN JUMPDEST PUSH2 0x15C PUSH2 0x263 JUMP JUMPDEST PUSH1 0x40 MLOAD PUSH2 0x169 SWAP2 SWAP1 PUSH2 0x34F JUMP JUMPDEST PUSH1 0x40 MLOAD DUP1 SWAP2 SUB SWAP1 RETURN JUMPDEST PUSH2 0x17A PUSH2 0x276 JUMP JUMPDEST PUSH1 0x40 MLOAD PUSH2 0x187 SWAP2 SWAP1 PUSH2 0x34F JUMP JUMPDEST PUSH1 0x40 MLOAD DUP1 SWAP2 SUB SWAP1 RETURN JUMPDEST PUSH2 0x198 PUSH2 0x2A9 JUMP JUMPDEST PUSH1 0x40 MLOAD PUSH2 0x1A5 SWAP2 SWAP1 PUSH2 0x31E JUMP JUMPDEST PUSH1 0x40 MLOAD DUP1 SWAP2 SUB SWAP1 RETURN JUMPDEST PUSH2 0x1B6 PUSH2 0x2AF JUMP JUMPDEST PUSH1 0x40 MLOAD PUSH2 0x1C3 SWAP2 SWAP1 PUSH2 0x31E JUMP JUMPDEST PUSH1 0x40 MLOAD DUP1 SWAP2 SUB SWAP1 RETURN JUMPDEST PUSH0 PUSH32 0xFFFFFFFFFFFFFFFFFFFFFFFFFFFFFFFFFFFFFFFFFFFFFFFFFFFFFFFFFFFFFFFF PUSH32 0x8000000000000000000000000000000000000000000000000000000000000000 PUSH2 0x219 SWAP2 SWAP1 PUSH2 0x3C2 JUMP JUMPDEST SWAP1 POP SWAP1 JUMP JUMPDEST PUSH0 PUSH1 0x1 PUSH32 0xFFFFFFFFFFFFFFFFFFFFFFFFFFFFFFFFFFFFFFFFFFFFFFFFFFFFFFFFFFFFFFFF ADD SWAP1 POP SWAP1 JUMP JUMPDEST PUSH1 0x1 SLOAD DUP2 JUMP JUMPDEST PUSH0 PUSH1 0x1 PUSH0 SUB SWAP1 POP SWAP1 JUMP JUMPDEST PUSH0 SLOAD DUP2 JUMP JUMPDEST PUSH1 0x2 SLOAD DUP2 JUMP JUMPDEST PUSH0 PUSH1 0x1 PUSH0 PUSH2 0x271 SWAP2 SWAP1 PUSH2 0x42A JUMP JUMPDEST SWAP1 POP SWAP1 JUMP JUMPDEST PUSH0 PUSH1 0x1 PUSH32 0xFFFFFFFFFFFFFFFFFFFFFFFFFFFFFFFFFFFFFFFFFFFFFFFFFFFFFFFFFFFFFFFF PUSH2 0x2A4 SWAP2 SWAP1 PUSH2 0x45D JUMP JUMPDEST SWAP1 POP SWAP1 JUMP JUMPDEST PUSH1 0x3 SLOAD DUP2 JUMP JUMPDEST PUSH0 PUSH32 0xFFFFFFFFFFFFFFFFFFFFFFFFFFFFFFFFFFFFFFFFFFFFFFFFFFFFFFFFFFFFFFFF PUSH32 0x8000000000000000000000000000000000000000000000000000000000000000 DUP2 PUSH2 0x300 JUMPI PUSH2 0x2FF PUSH2 0x368 JUMP JUMPDEST JUMPDEST SDIV SWAP1 POP SWAP1 JUMP JUMPDEST PUSH0 DUP2 SWAP1 POP SWAP2 SWAP1 POP JUMP JUMPDEST PUSH2 0x318 DUP2 PUSH2 0x306 JUMP JUMPDEST DUP3 MSTORE POP POP JUMP JUMPDEST PUSH0 PUSH1 0x20 DUP3 ADD SWAP1 POP PUSH2 0x331 PUSH0 DUP4 ADD DUP5 PUSH2 0x30F JUMP JUMPDEST SWAP3 SWAP2 POP POP JUMP JUMPDEST PUSH0 DUP2 SWAP1 POP SWAP2 SWAP1 POP JUMP JUMPDEST PUSH2 0x349 DUP2 PUSH2 0x337 JUMP JUMPDEST DUP3 MSTORE POP POP JUMP JUMPDEST PUSH0 PUSH1 0x20 DUP3 ADD SWAP1 POP PUSH2 0x362 PUSH0 DUP4 ADD DUP5 PUSH2 0x340 JUMP JUMPDEST SWAP3 SWAP2 POP POP JUMP JUMPDEST PUSH32 0x4E487B7100000000000000000000000000000000000000000000000000000000 PUSH0 MSTORE PUSH1 0x12 PUSH1 0x4 MSTORE PUSH1 0x24 PUSH0 REVERT JUMPDEST PUSH32 0x4E487B7100000000000000000000000000000000000000000000000000000000 PUSH0 MSTORE PUSH1 0x11 PUSH1 0x4 MSTORE PUSH1 0x24 PUSH0 REVERT JUMPDEST PUSH0 PUSH2 0x3CC DUP3 PUSH2 0x306 JUMP JUMPDEST SWAP2 POP PUSH2 0x3D7 DUP4 PUSH2 0x306 JUMP JUMPDEST SWAP3 POP DUP3 PUSH2 0x3E7 JUMPI PUSH2 0x3E6 PUSH2 0x368 JUMP JUMPDEST JUMPDEST PUSH1 0x1 PUSH0 SUB DUP4 EQ PUSH32 0x8000000000000000000000000000000000000000000000000000000000000000 DUP4 EQ AND ISZERO PUSH2 0x41F JUMPI PUSH2 0x41E PUSH2 0x395 JUMP JUMPDEST JUMPDEST DUP3 DUP3 SDIV SWAP1 POP SWAP3 SWAP2 POP POP JUMP JUMPDEST PUSH0 PUSH2 0x434 DUP3 PUSH2 0x337 JUMP JUMPDEST SWAP2 POP PUSH2 0x43F DUP4 PUSH2 0x337 JUMP JUMPDEST SWAP3 POP DUP3 DUP3 SUB SWAP1 POP DUP2 DUP2 GT ISZERO PUSH2 0x457 JUMPI PUSH2 0x456 PUSH2 0x395 JUMP JUMPDEST JUMPDEST SWAP3 SWAP2 POP POP JUMP JUMPDEST PUSH0 PUSH2 0x467 DUP3 PUSH2 0x337 JUMP JUMPDEST SWAP2 POP PUSH2 0x472 DUP4 PUSH2 0x337 JUMP JUMPDEST SWAP3 POP DUP3 DUP3 ADD SWAP1 POP DUP1 DUP3 GT ISZERO PUSH2 0x48A JUMPI PUSH2 0x489 PUSH2 0x395 JUMP JUMPDEST JUMPDEST SWAP3 SWAP2 POP POP JUMP INVALID LOG2 PUSH5 0x6970667358 0x22 SLT KECCAK256 0xDF JUMPDEST 0xB8 PUSH25 0x9A3CC21DAF61154874B952F2255C392C18F4F05D7933F7A55D 0x2C 0xE6 0xC4 PUSH5 0x736F6C6343 STOP ADDMOD ISZERO STOP CALLER "
				},
				"gasEstimates": {
					"creation": {
						"codeDepositCost": "244400",
						"executionCost": "71607",
						"totalCost": "316007"
					},
					"external": {
						"checkedAdd()": "infinite",
						"checkedDivision()": "infinite",
						"checkedSub()": "infinite",
						"max_int()": "2491",
						"max_uint()": "2513",
						"min_int()": "2425",
						"min_uint()": "2470",
						"unCheckedAdd()": "361",
						"unCheckedDivision()": "445",
						"unCheckedSub()": "404"
					}
				},
				"methodIdentifiers": {
					"checkedAdd()": "f6c5d864",
					"checkedDivision()": "55ef6583",
					"checkedSub()": "da2e1dfa",
					"max_int()": "f738bfad",
					"max_uint()": "a4bbf363",
					"min_int()": "baf880d0",
					"min_uint()": "8cf74b8b",
					"unCheckedAdd()": "6890f11e",
					"unCheckedDivision()": "f8d765f9",
					"unCheckedSub()": "a35ea154"
				}
			},
			"storageLayout": {
				"storage": [
					{
						"astId": 8,
						"contract": "Contracts/checked_Unchecked_Arithmatic.sol:Checked",
						"label": "max_uint",
						"offset": 0,
						"slot": "0",
						"type": "t_uint256"
					},
					{
						"astId": 15,
						"contract": "Contracts/checked_Unchecked_Arithmatic.sol:Checked",
						"label": "min_uint",
						"offset": 0,
						"slot": "1",
						"type": "t_uint256"
					},
					{
						"astId": 22,
						"contract": "Contracts/checked_Unchecked_Arithmatic.sol:Checked",
						"label": "min_int",
						"offset": 0,
						"slot": "2",
						"type": "t_int256"
					},
					{
						"astId": 29,
						"contract": "Contracts/checked_Unchecked_Arithmatic.sol:Checked",
						"label": "max_int",
						"offset": 0,
						"slot": "3",
						"type": "t_int256"
					}
				],
				"types": {
					"t_int256": {
						"encoding": "inplace",
						"label": "int256",
						"numberOfBytes": "32"
					},
					"t_uint256": {
						"encoding": "inplace",
						"label": "uint256",
						"numberOfBytes": "32"
					}
				}
			},
			"userdoc": {
				"kind": "user",
				"methods": {},
				"version": 1
			}
		}
	}
}