{
	"data": {
		"bytecode": {
			"linkReferences": {},
			"object": "608060405234801561000f575f80fd5b506102e28061001d5f395ff3fe608060405234801561000f575f80fd5b5060043610610055575f3560e01c8063124f74ed14610059578063be9a655514610063578063c040e6b81461006d578063e1c7392a1461008b578063efbe1c1c14610095575b5f80fd5b61006161009f565b005b61006b610106565b005b61007561016d565b6040516100829190610293565b60405180910390f35b61009361017d565b005b61009d6101e3565b005b600260038111156100b3576100b2610220565b5b5f8054906101000a900460ff1660038111156100d2576100d1610220565b5b146100db575f80fd5b60035f806101000a81548160ff021916908360038111156100ff576100fe610220565b5b0217905550565b6001600381111561011a57610119610220565b5b5f8054906101000a900460ff16600381111561013957610138610220565b5b14610142575f80fd5b60025f806101000a81548160ff0219169083600381111561016657610165610220565b5b0217905550565b5f8054906101000a900460ff1681565b5f60038111156101905761018f610220565b5b5f8054906101000a900460ff1660038111156101af576101ae610220565b5b146101b8575f80fd5b60015f806101000a81548160ff021916908360038111156101dc576101db610220565b5b0217905550565b6003808111156101f6576101f5610220565b5b5f8054906101000a900460ff16600381111561021557610214610220565b5b1461021e575f80fd5b565b7f4e487b71000000000000000000000000000000000000000000000000000000005f52602160045260245ffd5b6004811061025e5761025d610220565b5b50565b5f81905061026e8261024d565b919050565b5f61027d82610261565b9050919050565b61028d81610273565b82525050565b5f6020820190506102a65f830184610284565b9291505056fea264697066735822122069d24e085fec91880832a575952f2666e299f8f13eeca11453274800b19d6e9464736f6c63430008150033",
			"opcodes": "PUSH1 0x80 PUSH1 0x40 MSTORE CALLVALUE DUP1 ISZERO PUSH2 0xF JUMPI PUSH0 DUP1 REVERT JUMPDEST POP PUSH2 0x2E2 DUP1 PUSH2 0x1D PUSH0 CODECOPY PUSH0 RETURN INVALID PUSH1 0x80 PUSH1 0x40 MSTORE CALLVALUE DUP1 ISZERO PUSH2 0xF JUMPI PUSH0 DUP1 REVERT JUMPDEST POP PUSH1 0x4 CALLDATASIZE LT PUSH2 0x55 JUMPI PUSH0 CALLDATALOAD PUSH1 0xE0 SHR DUP1 PUSH4 0x124F74ED EQ PUSH2 0x59 JUMPI DUP1 PUSH4 0xBE9A6555 EQ PUSH2 0x63 JUMPI DUP1 PUSH4 0xC040E6B8 EQ PUSH2 0x6D JUMPI DUP1 PUSH4 0xE1C7392A EQ PUSH2 0x8B JUMPI DUP1 PUSH4 0xEFBE1C1C EQ PUSH2 0x95 JUMPI JUMPDEST PUSH0 DUP1 REVERT JUMPDEST PUSH2 0x61 PUSH2 0x9F JUMP JUMPDEST STOP JUMPDEST PUSH2 0x6B PUSH2 0x106 JUMP JUMPDEST STOP JUMPDEST PUSH2 0x75 PUSH2 0x16D JUMP JUMPDEST PUSH1 0x40 MLOAD PUSH2 0x82 SWAP2 SWAP1 PUSH2 0x293 JUMP JUMPDEST PUSH1 0x40 MLOAD DUP1 SWAP2 SUB SWAP1 RETURN JUMPDEST PUSH2 0x93 PUSH2 0x17D JUMP JUMPDEST STOP JUMPDEST PUSH2 0x9D PUSH2 0x1E3 JUMP JUMPDEST STOP JUMPDEST PUSH1 0x2 PUSH1 0x3 DUP2 GT ISZERO PUSH2 0xB3 JUMPI PUSH2 0xB2 PUSH2 0x220 JUMP JUMPDEST JUMPDEST PUSH0 DUP1 SLOAD SWAP1 PUSH2 0x100 EXP SWAP1 DIV PUSH1 0xFF AND PUSH1 0x3 DUP2 GT ISZERO PUSH2 0xD2 JUMPI PUSH2 0xD1 PUSH2 0x220 JUMP JUMPDEST JUMPDEST EQ PUSH2 0xDB JUMPI PUSH0 DUP1 REVERT JUMPDEST PUSH1 0x3 PUSH0 DUP1 PUSH2 0x100 EXP DUP2 SLOAD DUP2 PUSH1 0xFF MUL NOT AND SWAP1 DUP4 PUSH1 0x3 DUP2 GT ISZERO PUSH2 0xFF JUMPI PUSH2 0xFE PUSH2 0x220 JUMP JUMPDEST JUMPDEST MUL OR SWAP1 SSTORE POP JUMP JUMPDEST PUSH1 0x1 PUSH1 0x3 DUP2 GT ISZERO PUSH2 0x11A JUMPI PUSH2 0x119 PUSH2 0x220 JUMP JUMPDEST JUMPDEST PUSH0 DUP1 SLOAD SWAP1 PUSH2 0x100 EXP SWAP1 DIV PUSH1 0xFF AND PUSH1 0x3 DUP2 GT ISZERO PUSH2 0x139 JUMPI PUSH2 0x138 PUSH2 0x220 JUMP JUMPDEST JUMPDEST EQ PUSH2 0x142 JUMPI PUSH0 DUP1 REVERT JUMPDEST PUSH1 0x2 PUSH0 DUP1 PUSH2 0x100 EXP DUP2 SLOAD DUP2 PUSH1 0xFF MUL NOT AND SWAP1 DUP4 PUSH1 0x3 DUP2 GT ISZERO PUSH2 0x166 JUMPI PUSH2 0x165 PUSH2 0x220 JUMP JUMPDEST JUMPDEST MUL OR SWAP1 SSTORE POP JUMP JUMPDEST PUSH0 DUP1 SLOAD SWAP1 PUSH2 0x100 EXP SWAP1 DIV PUSH1 0xFF AND DUP2 JUMP JUMPDEST PUSH0 PUSH1 0x3 DUP2 GT ISZERO PUSH2 0x190 JUMPI PUSH2 0x18F PUSH2 0x220 JUMP JUMPDEST JUMPDEST PUSH0 DUP1 SLOAD SWAP1 PUSH2 0x100 EXP SWAP1 DIV PUSH1 0xFF AND PUSH1 0x3 DUP2 GT ISZERO PUSH2 0x1AF JUMPI PUSH2 0x1AE PUSH2 0x220 JUMP JUMPDEST JUMPDEST EQ PUSH2 0x1B8 JUMPI PUSH0 DUP1 REVERT JUMPDEST PUSH1 0x1 PUSH0 DUP1 PUSH2 0x100 EXP DUP2 SLOAD DUP2 PUSH1 0xFF MUL NOT AND SWAP1 DUP4 PUSH1 0x3 DUP2 GT ISZERO PUSH2 0x1DC JUMPI PUSH2 0x1DB PUSH2 0x220 JUMP JUMPDEST JUMPDEST MUL OR SWAP1 SSTORE POP JUMP JUMPDEST PUSH1 0x3 DUP1 DUP2 GT ISZERO PUSH2 0x1F6 JUMPI PUSH2 0x1F5 PUSH2 0x220 JUMP JUMPDEST JUMPDEST PUSH0 DUP1 SLOAD SWAP1 PUSH2 0x100 EXP SWAP1 DIV PUSH1 0xFF AND PUSH1 0x3 DUP2 GT ISZERO PUSH2 0x215 JUMPI PUSH2 0x214 PUSH2 0x220 JUMP JUMPDEST JUMPDEST EQ PUSH2 0x21E JUMPI PUSH0 DUP1 REVERT JUMPDEST JUMP JUMPDEST PUSH32 0x4E487B7100000000000000000000000000000000000000000000000000000000 PUSH0 MSTORE PUSH1 0x21 PUSH1 0x4 MSTORE PUSH1 0x24 PUSH0 REVERT JUMPDEST PUSH1 0x4 DUP2 LT PUSH2 0x25E JUMPI PUSH2 0x25D PUSH2 0x220 JUMP JUMPDEST JUMPDEST POP JUMP JUMPDEST PUSH0 DUP2 SWAP1 POP PUSH2 0x26E DUP3 PUSH2 0x24D JUMP JUMPDEST SWAP2 SWAP1 POP JUMP JUMPDEST PUSH0 PUSH2 0x27D DUP3 PUSH2 0x261 JUMP JUMPDEST SWAP1 POP SWAP2 SWAP1 POP JUMP JUMPDEST PUSH2 0x28D DUP2 PUSH2 0x273 JUMP JUMPDEST DUP3 MSTORE POP POP JUMP JUMPDEST PUSH0 PUSH1 0x20 DUP3 ADD SWAP1 POP PUSH2 0x2A6 PUSH0 DUP4 ADD DUP5 PUSH2 0x284 JUMP JUMPDEST SWAP3 SWAP2 POP POP JUMP INVALID LOG2 PUSH5 0x6970667358 0x22 SLT KECCAK256 PUSH10 0xD24E085FEC91880832A5 PUSH22 0x952F2666E299F8F13EECA11453274800B19D6E946473 PUSH16 0x6C634300081500330000000000000000 "
		},
		"gasEstimates": {
			"creation": {
				"codeDepositCost": "147600",
				"executionCost": "194",
				"totalCost": "147794"
			},
			"external": {
				"continuing()": "26614",
				"end()": "2426",
				"init()": "26679",
				"stage()": "2573",
				"start()": "26636"
			}
		},
		"methodIdentifiers": {
			"continuing()": "124f74ed",
			"end()": "efbe1c1c",
			"init()": "e1c7392a",
			"stage()": "c040e6b8",
			"start()": "be9a6555"
		}
	},
	"abi": [
		{
			"inputs": [],
			"name": "continuing",
			"outputs": [],
			"stateMutability": "nonpayable",
			"type": "function"
		},
		{
			"inputs": [],
			"name": "end",
			"outputs": [],
			"stateMutability": "view",
			"type": "function"
		},
		{
			"inputs": [],
			"name": "init",
			"outputs": [],
			"stateMutability": "nonpayable",
			"type": "function"
		},
		{
			"inputs": [],
			"name": "stage",
			"outputs": [
				{
					"internalType": "enum Enum.Stages",
					"name": "",
					"type": "uint8"
				}
			],
			"stateMutability": "view",
			"type": "function"
		},
		{
			"inputs": [],
			"name": "start",
			"outputs": [],
			"stateMutability": "nonpayable",
			"type": "function"
		}
	]
}