{
	"data": {
		"bytecode": {
			"linkReferences": {},
			"object": "608060405234801561000f575f80fd5b506104028061001d5f395ff3fe608060405234801561000f575f80fd5b506004361061004a575f3560e01c806363c397921461004e5780638c503fb91461007e578063c79d6ab5146100ae578063e0ed8fe0146100de575b5f80fd5b6100686004803603810190610063919061020b565b61010e565b6040516100759190610282565b60405180910390f35b6100986004803603810190610093919061020b565b610121565b6040516100a59190610282565b60405180910390f35b6100c860048036038101906100c3919061020b565b610134565b6040516100d59190610282565b60405180910390f35b6100f860048036038101906100f3919061020b565b610147565b6040516101059190610282565b60405180910390f35b5f610119838361015a565b905092915050565b5f61012c8383610182565b905092915050565b5f61013f8383610197565b905092915050565b5f61015283836101bf565b905092915050565b5f670de0b6b3a7640000828461017091906102c8565b61017a9190610336565b905092915050565b5f818361018f9190610366565b905092915050565b5f81670de0b6b3a7640000846101ad91906102c8565b6101b79190610336565b905092915050565b5f81836101cc9190610399565b905092915050565b5f80fd5b5f819050919050565b6101ea816101d8565b81146101f4575f80fd5b50565b5f81359050610205816101e1565b92915050565b5f8060408385031215610221576102206101d4565b5b5f61022e858286016101f7565b925050602061023f858286016101f7565b9150509250929050565b5f819050919050565b5f61026c610267610262846101d8565b610249565b6101d8565b9050919050565b61027c81610252565b82525050565b5f6020820190506102955f830184610273565b92915050565b7f4e487b71000000000000000000000000000000000000000000000000000000005f52601160045260245ffd5b5f6102d2826101d8565b91506102dd836101d8565b92508282026102eb816101d8565b915082820484148315176103025761030161029b565b5b5092915050565b7f4e487b71000000000000000000000000000000000000000000000000000000005f52601260045260245ffd5b5f610340826101d8565b915061034b836101d8565b92508261035b5761035a610309565b5b828204905092915050565b5f610370826101d8565b915061037b836101d8565b92508282039050818111156103935761039261029b565b5b92915050565b5f6103a3826101d8565b91506103ae836101d8565b92508282019050808211156103c6576103c561029b565b5b9291505056fea264697066735822122057a3046d2cdeecc486b991fada75dc7811e70d05b5a1fd6aebc2d7a8ee913e8d64736f6c63430008150033",
			"opcodes": "PUSH1 0x80 PUSH1 0x40 MSTORE CALLVALUE DUP1 ISZERO PUSH2 0xF JUMPI PUSH0 DUP1 REVERT JUMPDEST POP PUSH2 0x402 DUP1 PUSH2 0x1D PUSH0 CODECOPY PUSH0 RETURN INVALID PUSH1 0x80 PUSH1 0x40 MSTORE CALLVALUE DUP1 ISZERO PUSH2 0xF JUMPI PUSH0 DUP1 REVERT JUMPDEST POP PUSH1 0x4 CALLDATASIZE LT PUSH2 0x4A JUMPI PUSH0 CALLDATALOAD PUSH1 0xE0 SHR DUP1 PUSH4 0x63C39792 EQ PUSH2 0x4E JUMPI DUP1 PUSH4 0x8C503FB9 EQ PUSH2 0x7E JUMPI DUP1 PUSH4 0xC79D6AB5 EQ PUSH2 0xAE JUMPI DUP1 PUSH4 0xE0ED8FE0 EQ PUSH2 0xDE JUMPI JUMPDEST PUSH0 DUP1 REVERT JUMPDEST PUSH2 0x68 PUSH1 0x4 DUP1 CALLDATASIZE SUB DUP2 ADD SWAP1 PUSH2 0x63 SWAP2 SWAP1 PUSH2 0x20B JUMP JUMPDEST PUSH2 0x10E JUMP JUMPDEST PUSH1 0x40 MLOAD PUSH2 0x75 SWAP2 SWAP1 PUSH2 0x282 JUMP JUMPDEST PUSH1 0x40 MLOAD DUP1 SWAP2 SUB SWAP1 RETURN JUMPDEST PUSH2 0x98 PUSH1 0x4 DUP1 CALLDATASIZE SUB DUP2 ADD SWAP1 PUSH2 0x93 SWAP2 SWAP1 PUSH2 0x20B JUMP JUMPDEST PUSH2 0x121 JUMP JUMPDEST PUSH1 0x40 MLOAD PUSH2 0xA5 SWAP2 SWAP1 PUSH2 0x282 JUMP JUMPDEST PUSH1 0x40 MLOAD DUP1 SWAP2 SUB SWAP1 RETURN JUMPDEST PUSH2 0xC8 PUSH1 0x4 DUP1 CALLDATASIZE SUB DUP2 ADD SWAP1 PUSH2 0xC3 SWAP2 SWAP1 PUSH2 0x20B JUMP JUMPDEST PUSH2 0x134 JUMP JUMPDEST PUSH1 0x40 MLOAD PUSH2 0xD5 SWAP2 SWAP1 PUSH2 0x282 JUMP JUMPDEST PUSH1 0x40 MLOAD DUP1 SWAP2 SUB SWAP1 RETURN JUMPDEST PUSH2 0xF8 PUSH1 0x4 DUP1 CALLDATASIZE SUB DUP2 ADD SWAP1 PUSH2 0xF3 SWAP2 SWAP1 PUSH2 0x20B JUMP JUMPDEST PUSH2 0x147 JUMP JUMPDEST PUSH1 0x40 MLOAD PUSH2 0x105 SWAP2 SWAP1 PUSH2 0x282 JUMP JUMPDEST PUSH1 0x40 MLOAD DUP1 SWAP2 SUB SWAP1 RETURN JUMPDEST PUSH0 PUSH2 0x119 DUP4 DUP4 PUSH2 0x15A JUMP JUMPDEST SWAP1 POP SWAP3 SWAP2 POP POP JUMP JUMPDEST PUSH0 PUSH2 0x12C DUP4 DUP4 PUSH2 0x182 JUMP JUMPDEST SWAP1 POP SWAP3 SWAP2 POP POP JUMP JUMPDEST PUSH0 PUSH2 0x13F DUP4 DUP4 PUSH2 0x197 JUMP JUMPDEST SWAP1 POP SWAP3 SWAP2 POP POP JUMP JUMPDEST PUSH0 PUSH2 0x152 DUP4 DUP4 PUSH2 0x1BF JUMP JUMPDEST SWAP1 POP SWAP3 SWAP2 POP POP JUMP JUMPDEST PUSH0 PUSH8 0xDE0B6B3A7640000 DUP3 DUP5 PUSH2 0x170 SWAP2 SWAP1 PUSH2 0x2C8 JUMP JUMPDEST PUSH2 0x17A SWAP2 SWAP1 PUSH2 0x336 JUMP JUMPDEST SWAP1 POP SWAP3 SWAP2 POP POP JUMP JUMPDEST PUSH0 DUP2 DUP4 PUSH2 0x18F SWAP2 SWAP1 PUSH2 0x366 JUMP JUMPDEST SWAP1 POP SWAP3 SWAP2 POP POP JUMP JUMPDEST PUSH0 DUP2 PUSH8 0xDE0B6B3A7640000 DUP5 PUSH2 0x1AD SWAP2 SWAP1 PUSH2 0x2C8 JUMP JUMPDEST PUSH2 0x1B7 SWAP2 SWAP1 PUSH2 0x336 JUMP JUMPDEST SWAP1 POP SWAP3 SWAP2 POP POP JUMP JUMPDEST PUSH0 DUP2 DUP4 PUSH2 0x1CC SWAP2 SWAP1 PUSH2 0x399 JUMP JUMPDEST SWAP1 POP SWAP3 SWAP2 POP POP JUMP JUMPDEST PUSH0 DUP1 REVERT JUMPDEST PUSH0 DUP2 SWAP1 POP SWAP2 SWAP1 POP JUMP JUMPDEST PUSH2 0x1EA DUP2 PUSH2 0x1D8 JUMP JUMPDEST DUP2 EQ PUSH2 0x1F4 JUMPI PUSH0 DUP1 REVERT JUMPDEST POP JUMP JUMPDEST PUSH0 DUP2 CALLDATALOAD SWAP1 POP PUSH2 0x205 DUP2 PUSH2 0x1E1 JUMP JUMPDEST SWAP3 SWAP2 POP POP JUMP JUMPDEST PUSH0 DUP1 PUSH1 0x40 DUP4 DUP6 SUB SLT ISZERO PUSH2 0x221 JUMPI PUSH2 0x220 PUSH2 0x1D4 JUMP JUMPDEST JUMPDEST PUSH0 PUSH2 0x22E DUP6 DUP3 DUP7 ADD PUSH2 0x1F7 JUMP JUMPDEST SWAP3 POP POP PUSH1 0x20 PUSH2 0x23F DUP6 DUP3 DUP7 ADD PUSH2 0x1F7 JUMP JUMPDEST SWAP2 POP POP SWAP3 POP SWAP3 SWAP1 POP JUMP JUMPDEST PUSH0 DUP2 SWAP1 POP SWAP2 SWAP1 POP JUMP JUMPDEST PUSH0 PUSH2 0x26C PUSH2 0x267 PUSH2 0x262 DUP5 PUSH2 0x1D8 JUMP JUMPDEST PUSH2 0x249 JUMP JUMPDEST PUSH2 0x1D8 JUMP JUMPDEST SWAP1 POP SWAP2 SWAP1 POP JUMP JUMPDEST PUSH2 0x27C DUP2 PUSH2 0x252 JUMP JUMPDEST DUP3 MSTORE POP POP JUMP JUMPDEST PUSH0 PUSH1 0x20 DUP3 ADD SWAP1 POP PUSH2 0x295 PUSH0 DUP4 ADD DUP5 PUSH2 0x273 JUMP JUMPDEST SWAP3 SWAP2 POP POP JUMP JUMPDEST PUSH32 0x4E487B7100000000000000000000000000000000000000000000000000000000 PUSH0 MSTORE PUSH1 0x11 PUSH1 0x4 MSTORE PUSH1 0x24 PUSH0 REVERT JUMPDEST PUSH0 PUSH2 0x2D2 DUP3 PUSH2 0x1D8 JUMP JUMPDEST SWAP2 POP PUSH2 0x2DD DUP4 PUSH2 0x1D8 JUMP JUMPDEST SWAP3 POP DUP3 DUP3 MUL PUSH2 0x2EB DUP2 PUSH2 0x1D8 JUMP JUMPDEST SWAP2 POP DUP3 DUP3 DIV DUP5 EQ DUP4 ISZERO OR PUSH2 0x302 JUMPI PUSH2 0x301 PUSH2 0x29B JUMP JUMPDEST JUMPDEST POP SWAP3 SWAP2 POP POP JUMP JUMPDEST PUSH32 0x4E487B7100000000000000000000000000000000000000000000000000000000 PUSH0 MSTORE PUSH1 0x12 PUSH1 0x4 MSTORE PUSH1 0x24 PUSH0 REVERT JUMPDEST PUSH0 PUSH2 0x340 DUP3 PUSH2 0x1D8 JUMP JUMPDEST SWAP2 POP PUSH2 0x34B DUP4 PUSH2 0x1D8 JUMP JUMPDEST SWAP3 POP DUP3 PUSH2 0x35B JUMPI PUSH2 0x35A PUSH2 0x309 JUMP JUMPDEST JUMPDEST DUP3 DUP3 DIV SWAP1 POP SWAP3 SWAP2 POP POP JUMP JUMPDEST PUSH0 PUSH2 0x370 DUP3 PUSH2 0x1D8 JUMP JUMPDEST SWAP2 POP PUSH2 0x37B DUP4 PUSH2 0x1D8 JUMP JUMPDEST SWAP3 POP DUP3 DUP3 SUB SWAP1 POP DUP2 DUP2 GT ISZERO PUSH2 0x393 JUMPI PUSH2 0x392 PUSH2 0x29B JUMP JUMPDEST JUMPDEST SWAP3 SWAP2 POP POP JUMP JUMPDEST PUSH0 PUSH2 0x3A3 DUP3 PUSH2 0x1D8 JUMP JUMPDEST SWAP2 POP PUSH2 0x3AE DUP4 PUSH2 0x1D8 JUMP JUMPDEST SWAP3 POP DUP3 DUP3 ADD SWAP1 POP DUP1 DUP3 GT ISZERO PUSH2 0x3C6 JUMPI PUSH2 0x3C5 PUSH2 0x29B JUMP JUMPDEST JUMPDEST SWAP3 SWAP2 POP POP JUMP INVALID LOG2 PUSH5 0x6970667358 0x22 SLT KECCAK256 JUMPI LOG3 DIV PUSH14 0x2CDEECC486B991FADA75DC7811E7 0xD SDIV 0xB5 LOG1 REVERT PUSH11 0xEBC2D7A8EE913E8D64736F PUSH13 0x63430008150033000000000000 "
		},
		"gasEstimates": {
			"creation": {
				"codeDepositCost": "205200",
				"executionCost": "249",
				"totalCost": "205449"
			},
			"external": {
				"addFixedPointNumers(uint256,uint256)": "infinite",
				"divideFixedPointNumers(uint256,uint256)": "infinite",
				"multiplyFixedPointNumers(uint256,uint256)": "infinite",
				"subFixedPointNumers(uint256,uint256)": "infinite"
			}
		},
		"methodIdentifiers": {
			"addFixedPointNumers(uint256,uint256)": "e0ed8fe0",
			"divideFixedPointNumers(uint256,uint256)": "c79d6ab5",
			"multiplyFixedPointNumers(uint256,uint256)": "63c39792",
			"subFixedPointNumers(uint256,uint256)": "8c503fb9"
		}
	},
	"abi": [
		{
			"inputs": [
				{
					"internalType": "FixedPoint",
					"name": "a",
					"type": "uint256"
				},
				{
					"internalType": "FixedPoint",
					"name": "b",
					"type": "uint256"
				}
			],
			"name": "addFixedPointNumers",
			"outputs": [
				{
					"internalType": "FixedPoint",
					"name": "",
					"type": "uint256"
				}
			],
			"stateMutability": "pure",
			"type": "function"
		},
		{
			"inputs": [
				{
					"internalType": "FixedPoint",
					"name": "a",
					"type": "uint256"
				},
				{
					"internalType": "FixedPoint",
					"name": "b",
					"type": "uint256"
				}
			],
			"name": "divideFixedPointNumers",
			"outputs": [
				{
					"internalType": "FixedPoint",
					"name": "",
					"type": "uint256"
				}
			],
			"stateMutability": "pure",
			"type": "function"
		},
		{
			"inputs": [
				{
					"internalType": "FixedPoint",
					"name": "a",
					"type": "uint256"
				},
				{
					"internalType": "FixedPoint",
					"name": "b",
					"type": "uint256"
				}
			],
			"name": "multiplyFixedPointNumers",
			"outputs": [
				{
					"internalType": "FixedPoint",
					"name": "",
					"type": "uint256"
				}
			],
			"stateMutability": "pure",
			"type": "function"
		},
		{
			"inputs": [
				{
					"internalType": "FixedPoint",
					"name": "a",
					"type": "uint256"
				},
				{
					"internalType": "FixedPoint",
					"name": "b",
					"type": "uint256"
				}
			],
			"name": "subFixedPointNumers",
			"outputs": [
				{
					"internalType": "FixedPoint",
					"name": "",
					"type": "uint256"
				}
			],
			"stateMutability": "pure",
			"type": "function"
		}
	]
}